{
  "abi": [
    {
      "inputs": [],
      "stateMutability": "nonpayable",
      "type": "constructor"
    },
    {
      "inputs": [],
      "name": "cappedGuestListInstance",
      "outputs": [
        {
          "internalType": "contract CappedGuestList",
          "name": "",
          "type": "address"
        }
      ],
      "stateMutability": "view",
      "type": "function"
    },
    {
      "inputs": [
        {
          "internalType": "uint256",
          "name": "_slot",
          "type": "uint256"
        },
        {
          "internalType": "address",
          "name": "_owner",
          "type": "address"
        },
        {
          "internalType": "address",
          "name": "_vault",
          "type": "address"
        },
        {
          "internalType": "address",
          "name": "_priceCalculator",
          "type": "address"
        },
        {
          "internalType": "uint256",
          "name": "_userDepositCap",
          "type": "uint256"
        },
        {
          "internalType": "uint256",
          "name": "_totalDepositCap",
          "type": "uint256"
        }
      ],
      "name": "createCappedGuestList",
      "outputs": [
        {
          "internalType": "address",
          "name": "",
          "type": "address"
        }
      ],
      "stateMutability": "nonpayable",
      "type": "function"
    }
  ],
  "bytecode": "608060405234801561001057600080fd5b5060405161001d9061005f565b604051809103906000f080158015610039573d6000803e3d6000fd5b50600080546001600160a01b0319166001600160a01b039290921691909117905561006c565b6112278061034283390190565b6102c78061007b6000396000f3fe608060405234801561001057600080fd5b50600436106100365760003560e01c80632eb96fba1461003b57806349c9c2e01461006a575b600080fd5b60005461004e906001600160a01b031681565b6040516001600160a01b03909116815260200160405180910390f35b61004e610078366004610232565b600080610085868961012a565b60008054919250906100a0906001600160a01b031683610172565b6040516314d6c7d760e31b81526001600160a01b038a811660048301528981166024830152888116604483015260648201889052608482018790529192509082169063a6b63eb89060a401600060405180830381600087803b15801561010557600080fd5b505af1158015610119573d6000803e3d6000fd5b50929b9a5050505050505050505050565b6040516bffffffffffffffffffffffff19606084901b166020820152603481018290526000906054016040516020818303038152906040528051906020012090505b92915050565b6000604051733d602d80600a3d3981f3363d3d373d3d3d363d7360601b81528360601b60148201526e5af43d82803e903d91602b57fd5bf360881b6028820152826037826000f59150506001600160a01b03811661016c5760405162461bcd60e51b815260206004820152601760248201527f455243313136373a2063726561746532206661696c6564000000000000000000604482015260640160405180910390fd5b80356001600160a01b038116811461022d57600080fd5b919050565b60008060008060008060c0878903121561024b57600080fd5b8635955061025b60208801610216565b945061026960408801610216565b935061027760608801610216565b92506080870135915060a08701359050929550929550929556fea2646970667358221220e8819f78889e599eba34ced2212984ece567ece4d76c216c57b969df105e4a3564736f6c634300080c0033608060405234801561001057600080fd5b50611207806100206000396000f3fe608060405234801561001057600080fd5b50600436106101215760003560e01c80639135b6c3116100ad578063d23e048011610071578063d23e048014610251578063ebbf5c1714610264578063f2fde38b14610277578063f51c75121461028a578063fbfa77cf1461029357600080fd5b80639135b6c314610207578063a0622a5c1461021a578063a6b63eb814610222578063a8a9c26014610235578063c26ad22d1461023e57600080fd5b80635db88e85116100f45780635db88e85146101a7578063715018a6146101b057806377f32f84146101b85780638b95e335146101cb5780638da5cb5b146101f657600080fd5b806303d4fb75146101265780630eda85ee1461014c5780631a9ee26f1461017f57806345d1cfe014610192575b600080fd5b610139610134366004610eb0565b6102a6565b6040519081526020015b60405180910390f35b61016f61015a366004610eb0565b606b6020526000908152604090205460ff1681565b6040519015158152602001610143565b61016f61018d366004610f19565b610442565b6101a56101a0366004610f75565b6104dc565b005b610139606a5481565b6101a5610542565b6101a56101c6366004610f8e565b610578565b6067546101de906001600160a01b031681565b6040516001600160a01b039091168152602001610143565b6033546001600160a01b03166101de565b6101a5610215366004610f75565b610615565b61013961067b565b6101a5610230366004610fee565b61081e565b61013960695481565b6101a561024c366004611049565b6109a3565b6065546101de906001600160a01b031681565b6101a5610272366004610f75565b610acf565b6101a5610285366004610eb0565b610b2e565b61013960685481565b6066546101de906001600160a01b031681565b6066546040516370a0823160e01b81526001600160a01b03838116600483015260009283929116906370a0823190602401602060405180830381865afa1580156102f4573d6000803e3d6000fd5b505050506040513d601f19601f82011682018060405250810190610318919061109e565b90506000606660009054906101000a90046001600160a01b03166001600160a01b03166377c7b8fc6040518163ffffffff1660e01b8152600401602060405180830381865afa15801561036f573d6000803e3d6000fd5b505050506040513d601f19601f82011682018060405250810190610393919061109e565b6067546065549192506000916001600160a01b0391821691630a68667e91166103bc85876110cd565b6040516001600160e01b031960e085901b1681526001600160a01b0390921660048301526024820152604401602060405180830381865afa158015610405573d6000803e3d6000fd5b505050506040513d601f19601f82011682018060405250810190610429919061109e565b6069549091506104399082610bc9565b95945050505050565b6001600160a01b0384166000908152606b602052604081205460ff168015801561046c5750606854155b15610475575060015b80158015610484575060685415155b1561049757610494868585610bdc565b90505b8080156104ac5750846104a9876102a6565b10155b80156104bf5750846104bc61067b565b10155b156104ce5760019150506104d4565b60009150505b949350505050565b6033546001600160a01b0316331461050f5760405162461bcd60e51b8152600401610506906110ec565b60405180910390fd5b606881905560405181907ff31172dfe9d39a93e27305df08f61a7f02e44070846c51c290c60a93597bd51590600090a250565b6033546001600160a01b0316331461056c5760405162461bcd60e51b8152600401610506906110ec565b6105766000610c59565b565b6033546001600160a01b031633146105a25760405162461bcd60e51b8152600401610506906110ec565b61060f84848080602002602001604051908101604052809392919081815260200183836020028082843760009201919091525050604080516020808802828101820190935287825290935087925086918291850190849080828437600092019190915250610cab92505050565b50505050565b6033546001600160a01b0316331461063f5760405162461bcd60e51b8152600401610506906110ec565b60698190556040518181527fff92f33fbebe5d3177eb2e5face87085417f569955cd785211554df1d90084a5906020015b60405180910390a150565b600080606660009054906101000a90046001600160a01b03166001600160a01b03166318160ddd6040518163ffffffff1660e01b8152600401602060405180830381865afa1580156106d1573d6000803e3d6000fd5b505050506040513d601f19601f820116820180604052508101906106f5919061109e565b90506000606660009054906101000a90046001600160a01b03166001600160a01b03166377c7b8fc6040518163ffffffff1660e01b8152600401602060405180830381865afa15801561074c573d6000803e3d6000fd5b505050506040513d601f19601f82011682018060405250810190610770919061109e565b6067546065549192506000916001600160a01b0391821691630a68667e911661079985876110cd565b6040516001600160e01b031960e085901b1681526001600160a01b0390921660048301526024820152604401602060405180830381865afa1580156107e2573d6000803e3d6000fd5b505050506040513d601f19601f82011682018060405250810190610806919061109e565b606a549091506108169082610bc9565b935050505090565b600054610100900460ff166108395760005460ff161561083d565b303b155b6108a05760405162461bcd60e51b815260206004820152602e60248201527f496e697469616c697a61626c653a20636f6e747261637420697320616c72656160448201526d191e481a5b9a5d1a585b1a5e995960921b6064820152608401610506565b600054610100900460ff161580156108c2576000805461ffff19166101011790555b6108ca610db2565b6108d386610b2e565b606680546001600160a01b0319166001600160a01b03871690811790915560408051637e062a3560e11b8152905163fc0c546a916004808201926020929091908290030181865afa15801561092c573d6000803e3d6000fd5b505050506040513d601f19601f820116820180604052508101906109509190611121565b606580546001600160a01b03199081166001600160a01b0393841617909155606780549091169186169190911790556069839055606a829055801561099b576000805461ff00191690555b505050505050565b6109ae838383610bdc565b6109e95760405162461bcd60e51b815260206004820152600c60248201526b10b6b2b935b632a83937b7b360a11b6044820152606401610506565b6040805160018082528183019092526000916020808301908036833750506040805160018082528183019092529293506000929150602080830190803683370190505090508482600081518110610a4257610a4261113e565b60200260200101906001600160a01b031690816001600160a01b031681525050600181600081518110610a7757610a7761113e565b91151560209283029190910190910152610a918282610cab565b6068546040516001600160a01b038716907fb0265f949f67383910ea35ddfd8a25e2b554a8f9b878b8ca1e2336b433ad2d7290600090a35050505050565b6033546001600160a01b03163314610af95760405162461bcd60e51b8152600401610506906110ec565b606a8190556040518181527f4dca2e8d25c91b34082757532d59a08da6a173c9e60694e3a1b2cba6ccb07be190602001610670565b6033546001600160a01b03163314610b585760405162461bcd60e51b8152600401610506906110ec565b6001600160a01b038116610bbd5760405162461bcd60e51b815260206004820152602660248201527f4f776e61626c653a206e6577206f776e657220697320746865207a65726f206160448201526564647265737360d01b6064820152608401610506565b610bc681610c59565b50565b6000610bd58284611154565b9392505050565b6040516bffffffffffffffffffffffff19606085901b1660208201526000908190603401604051602081830303815290604052805190602001209050610439848480806020026020016040519081016040528093929190818152602001838360200280828437600092019190915250506068549150849050610de1565b603380546001600160a01b038381166001600160a01b0319831681179093556040519116919082907f8be0079c531659141344cd1fd0a4f28419497f9722a3daafe3b4186f6b6457e090600090a35050565b8051825114610ce65760405162461bcd60e51b8152602060048201526007602482015266042d8cadccee8d60cb1b6044820152606401610506565b60005b8251811015610dad5760006001600160a01b0316838281518110610d0f57610d0f61113e565b60200260200101516001600160a01b03161415610d2b57610d9b565b818181518110610d3d57610d3d61113e565b6020026020010151606b6000858481518110610d5b57610d5b61113e565b60200260200101516001600160a01b03166001600160a01b0316815260200190815260200160002060006101000a81548160ff0219169083151502179055505b80610da58161116b565b915050610ce9565b505050565b600054610100900460ff16610dd95760405162461bcd60e51b815260040161050690611186565b610576610df7565b600082610dee8584610e27565b14949350505050565b600054610100900460ff16610e1e5760405162461bcd60e51b815260040161050690611186565b61057633610c59565b600081815b8451811015610e93576000858281518110610e4957610e4961113e565b60200260200101519050808311610e6f5760008381526020829052604090209250610e80565b600081815260208490526040902092505b5080610e8b8161116b565b915050610e2c565b509392505050565b6001600160a01b0381168114610bc657600080fd5b600060208284031215610ec257600080fd5b8135610bd581610e9b565b60008083601f840112610edf57600080fd5b50813567ffffffffffffffff811115610ef757600080fd5b6020830191508360208260051b8501011115610f1257600080fd5b9250929050565b60008060008060608587031215610f2f57600080fd5b8435610f3a81610e9b565b935060208501359250604085013567ffffffffffffffff811115610f5d57600080fd5b610f6987828801610ecd565b95989497509550505050565b600060208284031215610f8757600080fd5b5035919050565b60008060008060408587031215610fa457600080fd5b843567ffffffffffffffff80821115610fbc57600080fd5b610fc888838901610ecd565b90965094506020870135915080821115610fe157600080fd5b50610f6987828801610ecd565b600080600080600060a0868803121561100657600080fd5b853561101181610e9b565b9450602086013561102181610e9b565b9350604086013561103181610e9b565b94979396509394606081013594506080013592915050565b60008060006040848603121561105e57600080fd5b833561106981610e9b565b9250602084013567ffffffffffffffff81111561108557600080fd5b61109186828701610ecd565b9497909650939450505050565b6000602082840312156110b057600080fd5b5051919050565b634e487b7160e01b600052601160045260246000fd5b60008160001904831182151516156110e7576110e76110b7565b500290565b6020808252818101527f4f776e61626c653a2063616c6c6572206973206e6f7420746865206f776e6572604082015260600190565b60006020828403121561113357600080fd5b8151610bd581610e9b565b634e487b7160e01b600052603260045260246000fd5b600082821015611166576111666110b7565b500390565b600060001982141561117f5761117f6110b7565b5060010190565b6020808252602b908201527f496e697469616c697a61626c653a20636f6e7472616374206973206e6f74206960408201526a6e697469616c697a696e6760a81b60608201526080019056fea2646970667358221220af6fc03eb70231a588fe8477ee777d03aaad2d805a5eafdaafa660fd79982f7964736f6c634300080c0033",
  "bytecodeSha1": "1ff597a2598cacb3e5f92f27fd3f0f8ea7c3d69e",
  "compiler": {
    "evm_version": "istanbul",
    "optimizer": {
      "enabled": true,
      "runs": 200
    },
    "version": "0.8.12+commit.f00d7308"
  },
  "contractName": "CappedGuestListFactory",
  "language": "Solidity",
  "natspec": {
    "kind": "dev",
    "methods": {
      "cappedGuestListInstance()": {
        "notice": "The instance to which all proxies will point."
      },
      "constructor": {
        "notice": "Contract constructor."
      },
      "createCappedGuestList(uint256,address,address,address,uint256,uint256)": {
        "notice": "Creates a clone of the CappedGuestList.",
        "params": {
          "_owner": "owner of guestList",
          "_priceCalculator": "the PriceCalculator for guestList,",
          "_slot": "Random number used to deterministically deploy the clone",
          "_vault": "the Vault the guestList is for,"
        },
        "returns": {
          "_0": "The newly created delegation"
        }
      }
    },
    "title": "The CappedGuestListFactory allows users to create CappedGuestList very cheaply.",
    "version": 1
  },
  "opcodes": "PUSH1 0x80 PUSH1 0x40 MSTORE CALLVALUE DUP1 ISZERO PUSH2 0x10 JUMPI PUSH1 0x0 DUP1 REVERT JUMPDEST POP PUSH1 0x4 CALLDATASIZE LT PUSH2 0x36 JUMPI PUSH1 0x0 CALLDATALOAD PUSH1 0xE0 SHR DUP1 PUSH4 0x2EB96FBA EQ PUSH2 0x3B JUMPI DUP1 PUSH4 0x49C9C2E0 EQ PUSH2 0x6A JUMPI JUMPDEST PUSH1 0x0 DUP1 REVERT JUMPDEST PUSH1 0x0 SLOAD PUSH2 0x4E SWAP1 PUSH1 0x1 PUSH1 0x1 PUSH1 0xA0 SHL SUB AND DUP2 JUMP JUMPDEST PUSH1 0x40 MLOAD PUSH1 0x1 PUSH1 0x1 PUSH1 0xA0 SHL SUB SWAP1 SWAP2 AND DUP2 MSTORE PUSH1 0x20 ADD PUSH1 0x40 MLOAD DUP1 SWAP2 SUB SWAP1 RETURN JUMPDEST PUSH2 0x4E PUSH2 0x78 CALLDATASIZE PUSH1 0x4 PUSH2 0x232 JUMP JUMPDEST PUSH1 0x0 DUP1 PUSH2 0x85 DUP7 DUP10 PUSH2 0x12A JUMP JUMPDEST PUSH1 0x0 DUP1 SLOAD SWAP2 SWAP3 POP SWAP1 PUSH2 0xA0 SWAP1 PUSH1 0x1 PUSH1 0x1 PUSH1 0xA0 SHL SUB AND DUP4 PUSH2 0x172 JUMP JUMPDEST PUSH1 0x40 MLOAD PUSH4 0x14D6C7D7 PUSH1 0xE3 SHL DUP2 MSTORE PUSH1 0x1 PUSH1 0x1 PUSH1 0xA0 SHL SUB DUP11 DUP2 AND PUSH1 0x4 DUP4 ADD MSTORE DUP10 DUP2 AND PUSH1 0x24 DUP4 ADD MSTORE DUP9 DUP2 AND PUSH1 0x44 DUP4 ADD MSTORE PUSH1 0x64 DUP3 ADD DUP9 SWAP1 MSTORE PUSH1 0x84 DUP3 ADD DUP8 SWAP1 MSTORE SWAP2 SWAP3 POP SWAP1 DUP3 AND SWAP1 PUSH4 0xA6B63EB8 SWAP1 PUSH1 0xA4 ADD PUSH1 0x0 PUSH1 0x40 MLOAD DUP1 DUP4 SUB DUP2 PUSH1 0x0 DUP8 DUP1 EXTCODESIZE ISZERO DUP1 ISZERO PUSH2 0x105 JUMPI PUSH1 0x0 DUP1 REVERT JUMPDEST POP GAS CALL ISZERO DUP1 ISZERO PUSH2 0x119 JUMPI RETURNDATASIZE PUSH1 0x0 DUP1 RETURNDATACOPY RETURNDATASIZE PUSH1 0x0 REVERT JUMPDEST POP SWAP3 SWAP12 SWAP11 POP POP POP POP POP POP POP POP POP POP POP JUMP JUMPDEST PUSH1 0x40 MLOAD PUSH12 0xFFFFFFFFFFFFFFFFFFFFFFFF NOT PUSH1 0x60 DUP5 SWAP1 SHL AND PUSH1 0x20 DUP3 ADD MSTORE PUSH1 0x34 DUP2 ADD DUP3 SWAP1 MSTORE PUSH1 0x0 SWAP1 PUSH1 0x54 ADD PUSH1 0x40 MLOAD PUSH1 0x20 DUP2 DUP4 SUB SUB DUP2 MSTORE SWAP1 PUSH1 0x40 MSTORE DUP1 MLOAD SWAP1 PUSH1 0x20 ADD KECCAK256 SWAP1 POP JUMPDEST SWAP3 SWAP2 POP POP JUMP JUMPDEST PUSH1 0x0 PUSH1 0x40 MLOAD PUSH20 0x3D602D80600A3D3981F3363D3D373D3D3D363D73 PUSH1 0x60 SHL DUP2 MSTORE DUP4 PUSH1 0x60 SHL PUSH1 0x14 DUP3 ADD MSTORE PUSH15 0x5AF43D82803E903D91602B57FD5BF3 PUSH1 0x88 SHL PUSH1 0x28 DUP3 ADD MSTORE DUP3 PUSH1 0x37 DUP3 PUSH1 0x0 CREATE2 SWAP2 POP POP PUSH1 0x1 PUSH1 0x1 PUSH1 0xA0 SHL SUB DUP2 AND PUSH2 0x16C JUMPI PUSH1 0x40 MLOAD PUSH3 0x461BCD PUSH1 0xE5 SHL DUP2 MSTORE PUSH1 0x20 PUSH1 0x4 DUP3 ADD MSTORE PUSH1 0x17 PUSH1 0x24 DUP3 ADD MSTORE PUSH32 0x455243313136373A2063726561746532206661696C6564000000000000000000 PUSH1 0x44 DUP3 ADD MSTORE PUSH1 0x64 ADD PUSH1 0x40 MLOAD DUP1 SWAP2 SUB SWAP1 REVERT JUMPDEST DUP1 CALLDATALOAD PUSH1 0x1 PUSH1 0x1 PUSH1 0xA0 SHL SUB DUP2 AND DUP2 EQ PUSH2 0x22D JUMPI PUSH1 0x0 DUP1 REVERT JUMPDEST SWAP2 SWAP1 POP JUMP JUMPDEST PUSH1 0x0 DUP1 PUSH1 0x0 DUP1 PUSH1 0x0 DUP1 PUSH1 0xC0 DUP8 DUP10 SUB SLT ISZERO PUSH2 0x24B JUMPI PUSH1 0x0 DUP1 REVERT JUMPDEST DUP7 CALLDATALOAD SWAP6 POP PUSH2 0x25B PUSH1 0x20 DUP9 ADD PUSH2 0x216 JUMP JUMPDEST SWAP5 POP PUSH2 0x269 PUSH1 0x40 DUP9 ADD PUSH2 0x216 JUMP JUMPDEST SWAP4 POP PUSH2 0x277 PUSH1 0x60 DUP9 ADD PUSH2 0x216 JUMP JUMPDEST SWAP3 POP PUSH1 0x80 DUP8 ADD CALLDATALOAD SWAP2 POP PUSH1 0xA0 DUP8 ADD CALLDATALOAD SWAP1 POP SWAP3 SWAP6 POP SWAP3 SWAP6 POP SWAP3 SWAP6 JUMP INVALID LOG2 PUSH5 0x6970667358 0x22 SLT KECCAK256 0xE8 DUP2 SWAP16 PUSH25 0x889E599EBA34CED2212984ECE567ECE4D76C216C57B969DF10 0x5E 0x4A CALLDATALOAD PUSH5 0x736F6C6343 STOP ADDMOD 0xC STOP CALLER ",
  "sha1": "299280a46789b22a49874635551936f28434b6e6",
  "source": "// SPDX-License-Identifier: GPL-3.0\n\npragma solidity 0.8.12;\n\nimport \"@openzeppelin/contracts/proxy/Clones.sol\";\n\nimport \"./CappedGuestList.sol\";\n\n/// @title The CappedGuestListFactory allows users to create CappedGuestList very cheaply.\ncontract CappedGuestListFactory {\n  using Clones for address;\n\n  /// @notice The instance to which all proxies will point.\n  CappedGuestList public cappedGuestListInstance;\n\n  /// @notice Contract constructor.\n  constructor() {\n    cappedGuestListInstance = new CappedGuestList();\n  }\n\n  /**\n   * @notice Creates a clone of the CappedGuestList.\n   * @param _slot Random number used to deterministically deploy the clone\n   * @param _owner owner of guestList\n   * @param _vault the Vault the guestList is for,\n   * @param _priceCalculator the PriceCalculator for guestList,\n   * @return The newly created delegation\n   */\n  function createCappedGuestList(uint256 _slot, address _owner, address _vault, address _priceCalculator, uint256 _userDepositCap, uint256 _totalDepositCap) public returns (address) {\n    bytes32 _salt = _computeSalt(_vault, _slot);\n    CappedGuestList _guestList = CappedGuestList(address(cappedGuestListInstance).cloneDeterministic(_salt));\n    _guestList.initialize(_owner, _vault, _priceCalculator, _userDepositCap, _totalDepositCap);\n    return address(_guestList);\n  }\n\n  /**\n   * @notice Computes the address of a clone, also known as minimal proxy contract.\n   * @param _salt Random number used to compute the address\n   * @return Address at which the clone will be deployed\n   */\n  function _computeAddress(bytes32 _salt) internal view returns (address) {\n    return address(cappedGuestListInstance).predictDeterministicAddress(_salt, address(this));\n  }\n\n  /**\n   * @notice Computes salt used to deterministically deploy a clone.\n   * @param _vault Address of the vault\n   * @param _slot Slot of the delegation\n   * @return Salt used to deterministically deploy a clone.\n   */\n  function _computeSalt(address _vault, uint256 _slot) internal pure returns (bytes32) {\n    return keccak256(abi.encodePacked(_vault, _slot));\n  }\n}\n",
  "sourcePath": "contracts/CappedGuestListFactory.sol",
  "type": "contract"
}