{
  "abi": [
    {
      "anonymous": false,
      "inputs": [
        {
          "indexed": true,
          "internalType": "address",
          "name": "previousOwner",
          "type": "address"
        },
        {
          "indexed": true,
          "internalType": "address",
          "name": "newOwner",
          "type": "address"
        }
      ],
      "name": "OwnershipTransferred",
      "type": "event"
    },
    {
      "anonymous": false,
      "inputs": [
        {
          "indexed": true,
          "internalType": "address",
          "name": "account",
          "type": "address"
        },
        {
          "indexed": true,
          "internalType": "bytes32",
          "name": "guestRoot",
          "type": "bytes32"
        }
      ],
      "name": "ProveInvitation",
      "type": "event"
    },
    {
      "anonymous": false,
      "inputs": [
        {
          "indexed": true,
          "internalType": "bytes32",
          "name": "guestRoot",
          "type": "bytes32"
        }
      ],
      "name": "SetGuestRoot",
      "type": "event"
    },
    {
      "anonymous": false,
      "inputs": [
        {
          "indexed": false,
          "internalType": "uint256",
          "name": "cap",
          "type": "uint256"
        }
      ],
      "name": "SetTotalDepositCap",
      "type": "event"
    },
    {
      "anonymous": false,
      "inputs": [
        {
          "indexed": false,
          "internalType": "uint256",
          "name": "cap",
          "type": "uint256"
        }
      ],
      "name": "SetUserDepositCap",
      "type": "event"
    },
    {
      "inputs": [
        {
          "internalType": "address",
          "name": "_guest",
          "type": "address"
        },
        {
          "internalType": "uint256",
          "name": "_amount",
          "type": "uint256"
        },
        {
          "internalType": "bytes32[]",
          "name": "_merkleProof",
          "type": "bytes32[]"
        }
      ],
      "name": "authorized",
      "outputs": [
        {
          "internalType": "bool",
          "name": "",
          "type": "bool"
        }
      ],
      "stateMutability": "view",
      "type": "function"
    },
    {
      "inputs": [],
      "name": "guestRoot",
      "outputs": [
        {
          "internalType": "bytes32",
          "name": "",
          "type": "bytes32"
        }
      ],
      "stateMutability": "view",
      "type": "function"
    },
    {
      "inputs": [
        {
          "internalType": "address",
          "name": "",
          "type": "address"
        }
      ],
      "name": "guests",
      "outputs": [
        {
          "internalType": "bool",
          "name": "",
          "type": "bool"
        }
      ],
      "stateMutability": "view",
      "type": "function"
    },
    {
      "inputs": [
        {
          "internalType": "address",
          "name": "_owner",
          "type": "address"
        },
        {
          "internalType": "address",
          "name": "_vault",
          "type": "address"
        },
        {
          "internalType": "address",
          "name": "_priceCalculator",
          "type": "address"
        },
        {
          "internalType": "uint256",
          "name": "_userDepositCap",
          "type": "uint256"
        },
        {
          "internalType": "uint256",
          "name": "_totalDepositCap",
          "type": "uint256"
        }
      ],
      "name": "initialize",
      "outputs": [],
      "stateMutability": "nonpayable",
      "type": "function"
    },
    {
      "inputs": [],
      "name": "owner",
      "outputs": [
        {
          "internalType": "address",
          "name": "",
          "type": "address"
        }
      ],
      "stateMutability": "view",
      "type": "function"
    },
    {
      "inputs": [],
      "name": "priceCalculator",
      "outputs": [
        {
          "internalType": "address",
          "name": "",
          "type": "address"
        }
      ],
      "stateMutability": "view",
      "type": "function"
    },
    {
      "inputs": [
        {
          "internalType": "address",
          "name": "account",
          "type": "address"
        },
        {
          "internalType": "bytes32[]",
          "name": "merkleProof",
          "type": "bytes32[]"
        }
      ],
      "name": "proveInvitation",
      "outputs": [],
      "stateMutability": "nonpayable",
      "type": "function"
    },
    {
      "inputs": [],
      "name": "remainingTotalDepositAllowed",
      "outputs": [
        {
          "internalType": "uint256",
          "name": "",
          "type": "uint256"
        }
      ],
      "stateMutability": "view",
      "type": "function"
    },
    {
      "inputs": [
        {
          "internalType": "address",
          "name": "user",
          "type": "address"
        }
      ],
      "name": "remainingUserDepositAllowed",
      "outputs": [
        {
          "internalType": "uint256",
          "name": "",
          "type": "uint256"
        }
      ],
      "stateMutability": "view",
      "type": "function"
    },
    {
      "inputs": [],
      "name": "renounceOwnership",
      "outputs": [],
      "stateMutability": "nonpayable",
      "type": "function"
    },
    {
      "inputs": [
        {
          "internalType": "bytes32",
          "name": "guestRoot_",
          "type": "bytes32"
        }
      ],
      "name": "setGuestRoot",
      "outputs": [],
      "stateMutability": "nonpayable",
      "type": "function"
    },
    {
      "inputs": [
        {
          "internalType": "address[]",
          "name": "_guests",
          "type": "address[]"
        },
        {
          "internalType": "bool[]",
          "name": "_invited",
          "type": "bool[]"
        }
      ],
      "name": "setGuests",
      "outputs": [],
      "stateMutability": "nonpayable",
      "type": "function"
    },
    {
      "inputs": [
        {
          "internalType": "uint256",
          "name": "cap_",
          "type": "uint256"
        }
      ],
      "name": "setTotalDepositCap",
      "outputs": [],
      "stateMutability": "nonpayable",
      "type": "function"
    },
    {
      "inputs": [
        {
          "internalType": "uint256",
          "name": "cap_",
          "type": "uint256"
        }
      ],
      "name": "setUserDepositCap",
      "outputs": [],
      "stateMutability": "nonpayable",
      "type": "function"
    },
    {
      "inputs": [],
      "name": "totalDepositCap",
      "outputs": [
        {
          "internalType": "uint256",
          "name": "",
          "type": "uint256"
        }
      ],
      "stateMutability": "view",
      "type": "function"
    },
    {
      "inputs": [
        {
          "internalType": "address",
          "name": "newOwner",
          "type": "address"
        }
      ],
      "name": "transferOwnership",
      "outputs": [],
      "stateMutability": "nonpayable",
      "type": "function"
    },
    {
      "inputs": [],
      "name": "userDepositCap",
      "outputs": [
        {
          "internalType": "uint256",
          "name": "",
          "type": "uint256"
        }
      ],
      "stateMutability": "view",
      "type": "function"
    },
    {
      "inputs": [],
      "name": "vault",
      "outputs": [
        {
          "internalType": "address",
          "name": "",
          "type": "address"
        }
      ],
      "stateMutability": "view",
      "type": "function"
    },
    {
      "inputs": [],
      "name": "wantToken",
      "outputs": [
        {
          "internalType": "address",
          "name": "",
          "type": "address"
        }
      ],
      "stateMutability": "view",
      "type": "function"
    }
  ],
  "bytecode": "608060405234801561001057600080fd5b50611207806100206000396000f3fe608060405234801561001057600080fd5b50600436106101215760003560e01c80639135b6c3116100ad578063d23e048011610071578063d23e048014610251578063ebbf5c1714610264578063f2fde38b14610277578063f51c75121461028a578063fbfa77cf1461029357600080fd5b80639135b6c314610207578063a0622a5c1461021a578063a6b63eb814610222578063a8a9c26014610235578063c26ad22d1461023e57600080fd5b80635db88e85116100f45780635db88e85146101a7578063715018a6146101b057806377f32f84146101b85780638b95e335146101cb5780638da5cb5b146101f657600080fd5b806303d4fb75146101265780630eda85ee1461014c5780631a9ee26f1461017f57806345d1cfe014610192575b600080fd5b610139610134366004610eb0565b6102a6565b6040519081526020015b60405180910390f35b61016f61015a366004610eb0565b606b6020526000908152604090205460ff1681565b6040519015158152602001610143565b61016f61018d366004610f19565b610442565b6101a56101a0366004610f75565b6104dc565b005b610139606a5481565b6101a5610542565b6101a56101c6366004610f8e565b610578565b6067546101de906001600160a01b031681565b6040516001600160a01b039091168152602001610143565b6033546001600160a01b03166101de565b6101a5610215366004610f75565b610615565b61013961067b565b6101a5610230366004610fee565b61081e565b61013960695481565b6101a561024c366004611049565b6109a3565b6065546101de906001600160a01b031681565b6101a5610272366004610f75565b610acf565b6101a5610285366004610eb0565b610b2e565b61013960685481565b6066546101de906001600160a01b031681565b6066546040516370a0823160e01b81526001600160a01b03838116600483015260009283929116906370a0823190602401602060405180830381865afa1580156102f4573d6000803e3d6000fd5b505050506040513d601f19601f82011682018060405250810190610318919061109e565b90506000606660009054906101000a90046001600160a01b03166001600160a01b03166377c7b8fc6040518163ffffffff1660e01b8152600401602060405180830381865afa15801561036f573d6000803e3d6000fd5b505050506040513d601f19601f82011682018060405250810190610393919061109e565b6067546065549192506000916001600160a01b0391821691630a68667e91166103bc85876110cd565b6040516001600160e01b031960e085901b1681526001600160a01b0390921660048301526024820152604401602060405180830381865afa158015610405573d6000803e3d6000fd5b505050506040513d601f19601f82011682018060405250810190610429919061109e565b6069549091506104399082610bc9565b95945050505050565b6001600160a01b0384166000908152606b602052604081205460ff168015801561046c5750606854155b15610475575060015b80158015610484575060685415155b1561049757610494868585610bdc565b90505b8080156104ac5750846104a9876102a6565b10155b80156104bf5750846104bc61067b565b10155b156104ce5760019150506104d4565b60009150505b949350505050565b6033546001600160a01b0316331461050f5760405162461bcd60e51b8152600401610506906110ec565b60405180910390fd5b606881905560405181907ff31172dfe9d39a93e27305df08f61a7f02e44070846c51c290c60a93597bd51590600090a250565b6033546001600160a01b0316331461056c5760405162461bcd60e51b8152600401610506906110ec565b6105766000610c59565b565b6033546001600160a01b031633146105a25760405162461bcd60e51b8152600401610506906110ec565b61060f84848080602002602001604051908101604052809392919081815260200183836020028082843760009201919091525050604080516020808802828101820190935287825290935087925086918291850190849080828437600092019190915250610cab92505050565b50505050565b6033546001600160a01b0316331461063f5760405162461bcd60e51b8152600401610506906110ec565b60698190556040518181527fff92f33fbebe5d3177eb2e5face87085417f569955cd785211554df1d90084a5906020015b60405180910390a150565b600080606660009054906101000a90046001600160a01b03166001600160a01b03166318160ddd6040518163ffffffff1660e01b8152600401602060405180830381865afa1580156106d1573d6000803e3d6000fd5b505050506040513d601f19601f820116820180604052508101906106f5919061109e565b90506000606660009054906101000a90046001600160a01b03166001600160a01b03166377c7b8fc6040518163ffffffff1660e01b8152600401602060405180830381865afa15801561074c573d6000803e3d6000fd5b505050506040513d601f19601f82011682018060405250810190610770919061109e565b6067546065549192506000916001600160a01b0391821691630a68667e911661079985876110cd565b6040516001600160e01b031960e085901b1681526001600160a01b0390921660048301526024820152604401602060405180830381865afa1580156107e2573d6000803e3d6000fd5b505050506040513d601f19601f82011682018060405250810190610806919061109e565b606a549091506108169082610bc9565b935050505090565b600054610100900460ff166108395760005460ff161561083d565b303b155b6108a05760405162461bcd60e51b815260206004820152602e60248201527f496e697469616c697a61626c653a20636f6e747261637420697320616c72656160448201526d191e481a5b9a5d1a585b1a5e995960921b6064820152608401610506565b600054610100900460ff161580156108c2576000805461ffff19166101011790555b6108ca610db2565b6108d386610b2e565b606680546001600160a01b0319166001600160a01b03871690811790915560408051637e062a3560e11b8152905163fc0c546a916004808201926020929091908290030181865afa15801561092c573d6000803e3d6000fd5b505050506040513d601f19601f820116820180604052508101906109509190611121565b606580546001600160a01b03199081166001600160a01b0393841617909155606780549091169186169190911790556069839055606a829055801561099b576000805461ff00191690555b505050505050565b6109ae838383610bdc565b6109e95760405162461bcd60e51b815260206004820152600c60248201526b10b6b2b935b632a83937b7b360a11b6044820152606401610506565b6040805160018082528183019092526000916020808301908036833750506040805160018082528183019092529293506000929150602080830190803683370190505090508482600081518110610a4257610a4261113e565b60200260200101906001600160a01b031690816001600160a01b031681525050600181600081518110610a7757610a7761113e565b91151560209283029190910190910152610a918282610cab565b6068546040516001600160a01b038716907fb0265f949f67383910ea35ddfd8a25e2b554a8f9b878b8ca1e2336b433ad2d7290600090a35050505050565b6033546001600160a01b03163314610af95760405162461bcd60e51b8152600401610506906110ec565b606a8190556040518181527f4dca2e8d25c91b34082757532d59a08da6a173c9e60694e3a1b2cba6ccb07be190602001610670565b6033546001600160a01b03163314610b585760405162461bcd60e51b8152600401610506906110ec565b6001600160a01b038116610bbd5760405162461bcd60e51b815260206004820152602660248201527f4f776e61626c653a206e6577206f776e657220697320746865207a65726f206160448201526564647265737360d01b6064820152608401610506565b610bc681610c59565b50565b6000610bd58284611154565b9392505050565b6040516bffffffffffffffffffffffff19606085901b1660208201526000908190603401604051602081830303815290604052805190602001209050610439848480806020026020016040519081016040528093929190818152602001838360200280828437600092019190915250506068549150849050610de1565b603380546001600160a01b038381166001600160a01b0319831681179093556040519116919082907f8be0079c531659141344cd1fd0a4f28419497f9722a3daafe3b4186f6b6457e090600090a35050565b8051825114610ce65760405162461bcd60e51b8152602060048201526007602482015266042d8cadccee8d60cb1b6044820152606401610506565b60005b8251811015610dad5760006001600160a01b0316838281518110610d0f57610d0f61113e565b60200260200101516001600160a01b03161415610d2b57610d9b565b818181518110610d3d57610d3d61113e565b6020026020010151606b6000858481518110610d5b57610d5b61113e565b60200260200101516001600160a01b03166001600160a01b0316815260200190815260200160002060006101000a81548160ff0219169083151502179055505b80610da58161116b565b915050610ce9565b505050565b600054610100900460ff16610dd95760405162461bcd60e51b815260040161050690611186565b610576610df7565b600082610dee8584610e27565b14949350505050565b600054610100900460ff16610e1e5760405162461bcd60e51b815260040161050690611186565b61057633610c59565b600081815b8451811015610e93576000858281518110610e4957610e4961113e565b60200260200101519050808311610e6f5760008381526020829052604090209250610e80565b600081815260208490526040902092505b5080610e8b8161116b565b915050610e2c565b509392505050565b6001600160a01b0381168114610bc657600080fd5b600060208284031215610ec257600080fd5b8135610bd581610e9b565b60008083601f840112610edf57600080fd5b50813567ffffffffffffffff811115610ef757600080fd5b6020830191508360208260051b8501011115610f1257600080fd5b9250929050565b60008060008060608587031215610f2f57600080fd5b8435610f3a81610e9b565b935060208501359250604085013567ffffffffffffffff811115610f5d57600080fd5b610f6987828801610ecd565b95989497509550505050565b600060208284031215610f8757600080fd5b5035919050565b60008060008060408587031215610fa457600080fd5b843567ffffffffffffffff80821115610fbc57600080fd5b610fc888838901610ecd565b90965094506020870135915080821115610fe157600080fd5b50610f6987828801610ecd565b600080600080600060a0868803121561100657600080fd5b853561101181610e9b565b9450602086013561102181610e9b565b9350604086013561103181610e9b565b94979396509394606081013594506080013592915050565b60008060006040848603121561105e57600080fd5b833561106981610e9b565b9250602084013567ffffffffffffffff81111561108557600080fd5b61109186828701610ecd565b9497909650939450505050565b6000602082840312156110b057600080fd5b5051919050565b634e487b7160e01b600052601160045260246000fd5b60008160001904831182151516156110e7576110e76110b7565b500290565b6020808252818101527f4f776e61626c653a2063616c6c6572206973206e6f7420746865206f776e6572604082015260600190565b60006020828403121561113357600080fd5b8151610bd581610e9b565b634e487b7160e01b600052603260045260246000fd5b600082821015611166576111666110b7565b500390565b600060001982141561117f5761117f6110b7565b5060010190565b6020808252602b908201527f496e697469616c697a61626c653a20636f6e7472616374206973206e6f74206960408201526a6e697469616c697a696e6760a81b60608201526080019056fea2646970667358221220af6fc03eb70231a588fe8477ee777d03aaad2d805a5eafdaafa660fd79982f7964736f6c634300080c0033",
  "bytecodeSha1": "8de610ee3e8fb6545ff6623c6ca7d90b6c719e6f",
  "compiler": {
    "evm_version": "istanbul",
    "optimizer": {
      "enabled": true,
      "runs": 200
    },
    "version": "0.8.12+commit.f00d7308"
  },
  "contractName": "CappedGuestList",
  "language": "Solidity",
  "natspec": {
    "details": "For a Vyper implementation of this contract containing additional functionality, see https://github.com/banteg/guest-list/blob/master/contracts/GuestList.vy The owner can invite arbitrary guests A guest can be added permissionlessly with proof of inclusion in current merkle set The owner can change the merkle root at any time Merkle-based permission that has been claimed cannot be revoked permissionlessly. Any guests can be revoked by the owner at-will The TVL cap is based on the number of want tokens in the underlying vaults. This can only be made more permissive over time. If decreased, existing TVL is maintained and no deposits are possible until the TVL has gone below the threshold A variant of the yearn AffiliateToken that supports guest list control of deposits A guest list that gates access by merkle root and a TVL cap",
    "kind": "dev",
    "methods": {
      "authorized(address,uint256,bytes32[])": {
        "notice": "Check if a guest with a bag of a certain size is allowed into the party.",
        "params": {
          "_guest": "The guest's address to check."
        }
      },
      "initialize(address,address,address,uint256,uint256)": {
        "notice": "Create the guest list"
      },
      "owner()": {
        "details": "Returns the address of the current owner."
      },
      "proveInvitation(address,bytes32[])": {
        "notice": "Permissionly prove an address is included in the current merkle root, thereby granting accessNote that the list is designed to ONLY EXPAND in future instancesThe admin does retain the ability to ban individual addresses"
      },
      "renounceOwnership()": {
        "details": "Leaves the contract without owner. It will not be possible to call `onlyOwner` functions anymore. Can only be called by the current owner. NOTE: Renouncing ownership will leave the contract without an owner, thereby removing any functionality that is only available to the owner."
      },
      "setGuestRoot(bytes32)": {
        "notice": "Set the merkle root to verify invitation proofs against.Note that accounts not included in the root will still be invited if their inviation was previously approved.Setting to 0 removes proof verification versus the root, opening access"
      },
      "setGuests(address[],bool[])": {
        "notice": "Invite guests or kick them from the party.",
        "params": {
          "_guests": "The guests to add or update.",
          "_invited": "A flag for each guest at the matching index, inviting or uninviting the guest."
        }
      },
      "transferOwnership(address)": {
        "details": "Transfers ownership of the contract to a new account (`newOwner`). Can only be called by the current owner."
      }
    },
    "notice": "A basic guest list contract.authorized function to ignore merkle proof for testing, inspiration from yearn's approach to testing guestlist https://github.com/yearn/yearn-devdocs/blob/4664fdef7d10f3a767fa651975059c44cf1cdb37/docs/developers/v2/smart-contracts/test/TestGuestList.md",
    "version": 1
  },
  "opcodes": "PUSH1 0x80 PUSH1 0x40 MSTORE CALLVALUE DUP1 ISZERO PUSH2 0x10 JUMPI PUSH1 0x0 DUP1 REVERT JUMPDEST POP PUSH1 0x4 CALLDATASIZE LT PUSH2 0x121 JUMPI PUSH1 0x0 CALLDATALOAD PUSH1 0xE0 SHR DUP1 PUSH4 0x9135B6C3 GT PUSH2 0xAD JUMPI DUP1 PUSH4 0xD23E0480 GT PUSH2 0x71 JUMPI DUP1 PUSH4 0xD23E0480 EQ PUSH2 0x251 JUMPI DUP1 PUSH4 0xEBBF5C17 EQ PUSH2 0x264 JUMPI DUP1 PUSH4 0xF2FDE38B EQ PUSH2 0x277 JUMPI DUP1 PUSH4 0xF51C7512 EQ PUSH2 0x28A JUMPI DUP1 PUSH4 0xFBFA77CF EQ PUSH2 0x293 JUMPI PUSH1 0x0 DUP1 REVERT JUMPDEST DUP1 PUSH4 0x9135B6C3 EQ PUSH2 0x207 JUMPI DUP1 PUSH4 0xA0622A5C EQ PUSH2 0x21A JUMPI DUP1 PUSH4 0xA6B63EB8 EQ PUSH2 0x222 JUMPI DUP1 PUSH4 0xA8A9C260 EQ PUSH2 0x235 JUMPI DUP1 PUSH4 0xC26AD22D EQ PUSH2 0x23E JUMPI PUSH1 0x0 DUP1 REVERT JUMPDEST DUP1 PUSH4 0x5DB88E85 GT PUSH2 0xF4 JUMPI DUP1 PUSH4 0x5DB88E85 EQ PUSH2 0x1A7 JUMPI DUP1 PUSH4 0x715018A6 EQ PUSH2 0x1B0 JUMPI DUP1 PUSH4 0x77F32F84 EQ PUSH2 0x1B8 JUMPI DUP1 PUSH4 0x8B95E335 EQ PUSH2 0x1CB JUMPI DUP1 PUSH4 0x8DA5CB5B EQ PUSH2 0x1F6 JUMPI PUSH1 0x0 DUP1 REVERT JUMPDEST DUP1 PUSH4 0x3D4FB75 EQ PUSH2 0x126 JUMPI DUP1 PUSH4 0xEDA85EE EQ PUSH2 0x14C JUMPI DUP1 PUSH4 0x1A9EE26F EQ PUSH2 0x17F JUMPI DUP1 PUSH4 0x45D1CFE0 EQ PUSH2 0x192 JUMPI JUMPDEST PUSH1 0x0 DUP1 REVERT JUMPDEST PUSH2 0x139 PUSH2 0x134 CALLDATASIZE PUSH1 0x4 PUSH2 0xEB0 JUMP JUMPDEST PUSH2 0x2A6 JUMP JUMPDEST PUSH1 0x40 MLOAD SWAP1 DUP2 MSTORE PUSH1 0x20 ADD JUMPDEST PUSH1 0x40 MLOAD DUP1 SWAP2 SUB SWAP1 RETURN JUMPDEST PUSH2 0x16F PUSH2 0x15A CALLDATASIZE PUSH1 0x4 PUSH2 0xEB0 JUMP JUMPDEST PUSH1 0x6B PUSH1 0x20 MSTORE PUSH1 0x0 SWAP1 DUP2 MSTORE PUSH1 0x40 SWAP1 KECCAK256 SLOAD PUSH1 0xFF AND DUP2 JUMP JUMPDEST PUSH1 0x40 MLOAD SWAP1 ISZERO ISZERO DUP2 MSTORE PUSH1 0x20 ADD PUSH2 0x143 JUMP JUMPDEST PUSH2 0x16F PUSH2 0x18D CALLDATASIZE PUSH1 0x4 PUSH2 0xF19 JUMP JUMPDEST PUSH2 0x442 JUMP JUMPDEST PUSH2 0x1A5 PUSH2 0x1A0 CALLDATASIZE PUSH1 0x4 PUSH2 0xF75 JUMP JUMPDEST PUSH2 0x4DC JUMP JUMPDEST STOP JUMPDEST PUSH2 0x139 PUSH1 0x6A SLOAD DUP2 JUMP JUMPDEST PUSH2 0x1A5 PUSH2 0x542 JUMP JUMPDEST PUSH2 0x1A5 PUSH2 0x1C6 CALLDATASIZE PUSH1 0x4 PUSH2 0xF8E JUMP JUMPDEST PUSH2 0x578 JUMP JUMPDEST PUSH1 0x67 SLOAD PUSH2 0x1DE SWAP1 PUSH1 0x1 PUSH1 0x1 PUSH1 0xA0 SHL SUB AND DUP2 JUMP JUMPDEST PUSH1 0x40 MLOAD PUSH1 0x1 PUSH1 0x1 PUSH1 0xA0 SHL SUB SWAP1 SWAP2 AND DUP2 MSTORE PUSH1 0x20 ADD PUSH2 0x143 JUMP JUMPDEST PUSH1 0x33 SLOAD PUSH1 0x1 PUSH1 0x1 PUSH1 0xA0 SHL SUB AND PUSH2 0x1DE JUMP JUMPDEST PUSH2 0x1A5 PUSH2 0x215 CALLDATASIZE PUSH1 0x4 PUSH2 0xF75 JUMP JUMPDEST PUSH2 0x615 JUMP JUMPDEST PUSH2 0x139 PUSH2 0x67B JUMP JUMPDEST PUSH2 0x1A5 PUSH2 0x230 CALLDATASIZE PUSH1 0x4 PUSH2 0xFEE JUMP JUMPDEST PUSH2 0x81E JUMP JUMPDEST PUSH2 0x139 PUSH1 0x69 SLOAD DUP2 JUMP JUMPDEST PUSH2 0x1A5 PUSH2 0x24C CALLDATASIZE PUSH1 0x4 PUSH2 0x1049 JUMP JUMPDEST PUSH2 0x9A3 JUMP JUMPDEST PUSH1 0x65 SLOAD PUSH2 0x1DE SWAP1 PUSH1 0x1 PUSH1 0x1 PUSH1 0xA0 SHL SUB AND DUP2 JUMP JUMPDEST PUSH2 0x1A5 PUSH2 0x272 CALLDATASIZE PUSH1 0x4 PUSH2 0xF75 JUMP JUMPDEST PUSH2 0xACF JUMP JUMPDEST PUSH2 0x1A5 PUSH2 0x285 CALLDATASIZE PUSH1 0x4 PUSH2 0xEB0 JUMP JUMPDEST PUSH2 0xB2E JUMP JUMPDEST PUSH2 0x139 PUSH1 0x68 SLOAD DUP2 JUMP JUMPDEST PUSH1 0x66 SLOAD PUSH2 0x1DE SWAP1 PUSH1 0x1 PUSH1 0x1 PUSH1 0xA0 SHL SUB AND DUP2 JUMP JUMPDEST PUSH1 0x66 SLOAD PUSH1 0x40 MLOAD PUSH4 0x70A08231 PUSH1 0xE0 SHL DUP2 MSTORE PUSH1 0x1 PUSH1 0x1 PUSH1 0xA0 SHL SUB DUP4 DUP2 AND PUSH1 0x4 DUP4 ADD MSTORE PUSH1 0x0 SWAP3 DUP4 SWAP3 SWAP2 AND SWAP1 PUSH4 0x70A08231 SWAP1 PUSH1 0x24 ADD PUSH1 0x20 PUSH1 0x40 MLOAD DUP1 DUP4 SUB DUP2 DUP7 GAS STATICCALL ISZERO DUP1 ISZERO PUSH2 0x2F4 JUMPI RETURNDATASIZE PUSH1 0x0 DUP1 RETURNDATACOPY RETURNDATASIZE PUSH1 0x0 REVERT JUMPDEST POP POP POP POP PUSH1 0x40 MLOAD RETURNDATASIZE PUSH1 0x1F NOT PUSH1 0x1F DUP3 ADD AND DUP3 ADD DUP1 PUSH1 0x40 MSTORE POP DUP2 ADD SWAP1 PUSH2 0x318 SWAP2 SWAP1 PUSH2 0x109E JUMP JUMPDEST SWAP1 POP PUSH1 0x0 PUSH1 0x66 PUSH1 0x0 SWAP1 SLOAD SWAP1 PUSH2 0x100 EXP SWAP1 DIV PUSH1 0x1 PUSH1 0x1 PUSH1 0xA0 SHL SUB AND PUSH1 0x1 PUSH1 0x1 PUSH1 0xA0 SHL SUB AND PUSH4 0x77C7B8FC PUSH1 0x40 MLOAD DUP2 PUSH4 0xFFFFFFFF AND PUSH1 0xE0 SHL DUP2 MSTORE PUSH1 0x4 ADD PUSH1 0x20 PUSH1 0x40 MLOAD DUP1 DUP4 SUB DUP2 DUP7 GAS STATICCALL ISZERO DUP1 ISZERO PUSH2 0x36F JUMPI RETURNDATASIZE PUSH1 0x0 DUP1 RETURNDATACOPY RETURNDATASIZE PUSH1 0x0 REVERT JUMPDEST POP POP POP POP PUSH1 0x40 MLOAD RETURNDATASIZE PUSH1 0x1F NOT PUSH1 0x1F DUP3 ADD AND DUP3 ADD DUP1 PUSH1 0x40 MSTORE POP DUP2 ADD SWAP1 PUSH2 0x393 SWAP2 SWAP1 PUSH2 0x109E JUMP JUMPDEST PUSH1 0x67 SLOAD PUSH1 0x65 SLOAD SWAP2 SWAP3 POP PUSH1 0x0 SWAP2 PUSH1 0x1 PUSH1 0x1 PUSH1 0xA0 SHL SUB SWAP2 DUP3 AND SWAP2 PUSH4 0xA68667E SWAP2 AND PUSH2 0x3BC DUP6 DUP8 PUSH2 0x10CD JUMP JUMPDEST PUSH1 0x40 MLOAD PUSH1 0x1 PUSH1 0x1 PUSH1 0xE0 SHL SUB NOT PUSH1 0xE0 DUP6 SWAP1 SHL AND DUP2 MSTORE PUSH1 0x1 PUSH1 0x1 PUSH1 0xA0 SHL SUB SWAP1 SWAP3 AND PUSH1 0x4 DUP4 ADD MSTORE PUSH1 0x24 DUP3 ADD MSTORE PUSH1 0x44 ADD PUSH1 0x20 PUSH1 0x40 MLOAD DUP1 DUP4 SUB DUP2 DUP7 GAS STATICCALL ISZERO DUP1 ISZERO PUSH2 0x405 JUMPI RETURNDATASIZE PUSH1 0x0 DUP1 RETURNDATACOPY RETURNDATASIZE PUSH1 0x0 REVERT JUMPDEST POP POP POP POP PUSH1 0x40 MLOAD RETURNDATASIZE PUSH1 0x1F NOT PUSH1 0x1F DUP3 ADD AND DUP3 ADD DUP1 PUSH1 0x40 MSTORE POP DUP2 ADD SWAP1 PUSH2 0x429 SWAP2 SWAP1 PUSH2 0x109E JUMP JUMPDEST PUSH1 0x69 SLOAD SWAP1 SWAP2 POP PUSH2 0x439 SWAP1 DUP3 PUSH2 0xBC9 JUMP JUMPDEST SWAP6 SWAP5 POP POP POP POP POP JUMP JUMPDEST PUSH1 0x1 PUSH1 0x1 PUSH1 0xA0 SHL SUB DUP5 AND PUSH1 0x0 SWAP1 DUP2 MSTORE PUSH1 0x6B PUSH1 0x20 MSTORE PUSH1 0x40 DUP2 KECCAK256 SLOAD PUSH1 0xFF AND DUP1 ISZERO DUP1 ISZERO PUSH2 0x46C JUMPI POP PUSH1 0x68 SLOAD ISZERO JUMPDEST ISZERO PUSH2 0x475 JUMPI POP PUSH1 0x1 JUMPDEST DUP1 ISZERO DUP1 ISZERO PUSH2 0x484 JUMPI POP PUSH1 0x68 SLOAD ISZERO ISZERO JUMPDEST ISZERO PUSH2 0x497 JUMPI PUSH2 0x494 DUP7 DUP6 DUP6 PUSH2 0xBDC JUMP JUMPDEST SWAP1 POP JUMPDEST DUP1 DUP1 ISZERO PUSH2 0x4AC JUMPI POP DUP5 PUSH2 0x4A9 DUP8 PUSH2 0x2A6 JUMP JUMPDEST LT ISZERO JUMPDEST DUP1 ISZERO PUSH2 0x4BF JUMPI POP DUP5 PUSH2 0x4BC PUSH2 0x67B JUMP JUMPDEST LT ISZERO JUMPDEST ISZERO PUSH2 0x4CE JUMPI PUSH1 0x1 SWAP2 POP POP PUSH2 0x4D4 JUMP JUMPDEST PUSH1 0x0 SWAP2 POP POP JUMPDEST SWAP5 SWAP4 POP POP POP POP JUMP JUMPDEST PUSH1 0x33 SLOAD PUSH1 0x1 PUSH1 0x1 PUSH1 0xA0 SHL SUB AND CALLER EQ PUSH2 0x50F JUMPI PUSH1 0x40 MLOAD PUSH3 0x461BCD PUSH1 0xE5 SHL DUP2 MSTORE PUSH1 0x4 ADD PUSH2 0x506 SWAP1 PUSH2 0x10EC JUMP JUMPDEST PUSH1 0x40 MLOAD DUP1 SWAP2 SUB SWAP1 REVERT JUMPDEST PUSH1 0x68 DUP2 SWAP1 SSTORE PUSH1 0x40 MLOAD DUP2 SWAP1 PUSH32 0xF31172DFE9D39A93E27305DF08F61A7F02E44070846C51C290C60A93597BD515 SWAP1 PUSH1 0x0 SWAP1 LOG2 POP JUMP JUMPDEST PUSH1 0x33 SLOAD PUSH1 0x1 PUSH1 0x1 PUSH1 0xA0 SHL SUB AND CALLER EQ PUSH2 0x56C JUMPI PUSH1 0x40 MLOAD PUSH3 0x461BCD PUSH1 0xE5 SHL DUP2 MSTORE PUSH1 0x4 ADD PUSH2 0x506 SWAP1 PUSH2 0x10EC JUMP JUMPDEST PUSH2 0x576 PUSH1 0x0 PUSH2 0xC59 JUMP JUMPDEST JUMP JUMPDEST PUSH1 0x33 SLOAD PUSH1 0x1 PUSH1 0x1 PUSH1 0xA0 SHL SUB AND CALLER EQ PUSH2 0x5A2 JUMPI PUSH1 0x40 MLOAD PUSH3 0x461BCD PUSH1 0xE5 SHL DUP2 MSTORE PUSH1 0x4 ADD PUSH2 0x506 SWAP1 PUSH2 0x10EC JUMP JUMPDEST PUSH2 0x60F DUP5 DUP5 DUP1 DUP1 PUSH1 0x20 MUL PUSH1 0x20 ADD PUSH1 0x40 MLOAD SWAP1 DUP2 ADD PUSH1 0x40 MSTORE DUP1 SWAP4 SWAP3 SWAP2 SWAP1 DUP2 DUP2 MSTORE PUSH1 0x20 ADD DUP4 DUP4 PUSH1 0x20 MUL DUP1 DUP3 DUP5 CALLDATACOPY PUSH1 0x0 SWAP3 ADD SWAP2 SWAP1 SWAP2 MSTORE POP POP PUSH1 0x40 DUP1 MLOAD PUSH1 0x20 DUP1 DUP9 MUL DUP3 DUP2 ADD DUP3 ADD SWAP1 SWAP4 MSTORE DUP8 DUP3 MSTORE SWAP1 SWAP4 POP DUP8 SWAP3 POP DUP7 SWAP2 DUP3 SWAP2 DUP6 ADD SWAP1 DUP5 SWAP1 DUP1 DUP3 DUP5 CALLDATACOPY PUSH1 0x0 SWAP3 ADD SWAP2 SWAP1 SWAP2 MSTORE POP PUSH2 0xCAB SWAP3 POP POP POP JUMP JUMPDEST POP POP POP POP JUMP JUMPDEST PUSH1 0x33 SLOAD PUSH1 0x1 PUSH1 0x1 PUSH1 0xA0 SHL SUB AND CALLER EQ PUSH2 0x63F JUMPI PUSH1 0x40 MLOAD PUSH3 0x461BCD PUSH1 0xE5 SHL DUP2 MSTORE PUSH1 0x4 ADD PUSH2 0x506 SWAP1 PUSH2 0x10EC JUMP JUMPDEST PUSH1 0x69 DUP2 SWAP1 SSTORE PUSH1 0x40 MLOAD DUP2 DUP2 MSTORE PUSH32 0xFF92F33FBEBE5D3177EB2E5FACE87085417F569955CD785211554DF1D90084A5 SWAP1 PUSH1 0x20 ADD JUMPDEST PUSH1 0x40 MLOAD DUP1 SWAP2 SUB SWAP1 LOG1 POP JUMP JUMPDEST PUSH1 0x0 DUP1 PUSH1 0x66 PUSH1 0x0 SWAP1 SLOAD SWAP1 PUSH2 0x100 EXP SWAP1 DIV PUSH1 0x1 PUSH1 0x1 PUSH1 0xA0 SHL SUB AND PUSH1 0x1 PUSH1 0x1 PUSH1 0xA0 SHL SUB AND PUSH4 0x18160DDD PUSH1 0x40 MLOAD DUP2 PUSH4 0xFFFFFFFF AND PUSH1 0xE0 SHL DUP2 MSTORE PUSH1 0x4 ADD PUSH1 0x20 PUSH1 0x40 MLOAD DUP1 DUP4 SUB DUP2 DUP7 GAS STATICCALL ISZERO DUP1 ISZERO PUSH2 0x6D1 JUMPI RETURNDATASIZE PUSH1 0x0 DUP1 RETURNDATACOPY RETURNDATASIZE PUSH1 0x0 REVERT JUMPDEST POP POP POP POP PUSH1 0x40 MLOAD RETURNDATASIZE PUSH1 0x1F NOT PUSH1 0x1F DUP3 ADD AND DUP3 ADD DUP1 PUSH1 0x40 MSTORE POP DUP2 ADD SWAP1 PUSH2 0x6F5 SWAP2 SWAP1 PUSH2 0x109E JUMP JUMPDEST SWAP1 POP PUSH1 0x0 PUSH1 0x66 PUSH1 0x0 SWAP1 SLOAD SWAP1 PUSH2 0x100 EXP SWAP1 DIV PUSH1 0x1 PUSH1 0x1 PUSH1 0xA0 SHL SUB AND PUSH1 0x1 PUSH1 0x1 PUSH1 0xA0 SHL SUB AND PUSH4 0x77C7B8FC PUSH1 0x40 MLOAD DUP2 PUSH4 0xFFFFFFFF AND PUSH1 0xE0 SHL DUP2 MSTORE PUSH1 0x4 ADD PUSH1 0x20 PUSH1 0x40 MLOAD DUP1 DUP4 SUB DUP2 DUP7 GAS STATICCALL ISZERO DUP1 ISZERO PUSH2 0x74C JUMPI RETURNDATASIZE PUSH1 0x0 DUP1 RETURNDATACOPY RETURNDATASIZE PUSH1 0x0 REVERT JUMPDEST POP POP POP POP PUSH1 0x40 MLOAD RETURNDATASIZE PUSH1 0x1F NOT PUSH1 0x1F DUP3 ADD AND DUP3 ADD DUP1 PUSH1 0x40 MSTORE POP DUP2 ADD SWAP1 PUSH2 0x770 SWAP2 SWAP1 PUSH2 0x109E JUMP JUMPDEST PUSH1 0x67 SLOAD PUSH1 0x65 SLOAD SWAP2 SWAP3 POP PUSH1 0x0 SWAP2 PUSH1 0x1 PUSH1 0x1 PUSH1 0xA0 SHL SUB SWAP2 DUP3 AND SWAP2 PUSH4 0xA68667E SWAP2 AND PUSH2 0x799 DUP6 DUP8 PUSH2 0x10CD JUMP JUMPDEST PUSH1 0x40 MLOAD PUSH1 0x1 PUSH1 0x1 PUSH1 0xE0 SHL SUB NOT PUSH1 0xE0 DUP6 SWAP1 SHL AND DUP2 MSTORE PUSH1 0x1 PUSH1 0x1 PUSH1 0xA0 SHL SUB SWAP1 SWAP3 AND PUSH1 0x4 DUP4 ADD MSTORE PUSH1 0x24 DUP3 ADD MSTORE PUSH1 0x44 ADD PUSH1 0x20 PUSH1 0x40 MLOAD DUP1 DUP4 SUB DUP2 DUP7 GAS STATICCALL ISZERO DUP1 ISZERO PUSH2 0x7E2 JUMPI RETURNDATASIZE PUSH1 0x0 DUP1 RETURNDATACOPY RETURNDATASIZE PUSH1 0x0 REVERT JUMPDEST POP POP POP POP PUSH1 0x40 MLOAD RETURNDATASIZE PUSH1 0x1F NOT PUSH1 0x1F DUP3 ADD AND DUP3 ADD DUP1 PUSH1 0x40 MSTORE POP DUP2 ADD SWAP1 PUSH2 0x806 SWAP2 SWAP1 PUSH2 0x109E JUMP JUMPDEST PUSH1 0x6A SLOAD SWAP1 SWAP2 POP PUSH2 0x816 SWAP1 DUP3 PUSH2 0xBC9 JUMP JUMPDEST SWAP4 POP POP POP POP SWAP1 JUMP JUMPDEST PUSH1 0x0 SLOAD PUSH2 0x100 SWAP1 DIV PUSH1 0xFF AND PUSH2 0x839 JUMPI PUSH1 0x0 SLOAD PUSH1 0xFF AND ISZERO PUSH2 0x83D JUMP JUMPDEST ADDRESS EXTCODESIZE ISZERO JUMPDEST PUSH2 0x8A0 JUMPI PUSH1 0x40 MLOAD PUSH3 0x461BCD PUSH1 0xE5 SHL DUP2 MSTORE PUSH1 0x20 PUSH1 0x4 DUP3 ADD MSTORE PUSH1 0x2E PUSH1 0x24 DUP3 ADD MSTORE PUSH32 0x496E697469616C697A61626C653A20636F6E747261637420697320616C726561 PUSH1 0x44 DUP3 ADD MSTORE PUSH14 0x191E481A5B9A5D1A585B1A5E9959 PUSH1 0x92 SHL PUSH1 0x64 DUP3 ADD MSTORE PUSH1 0x84 ADD PUSH2 0x506 JUMP JUMPDEST PUSH1 0x0 SLOAD PUSH2 0x100 SWAP1 DIV PUSH1 0xFF AND ISZERO DUP1 ISZERO PUSH2 0x8C2 JUMPI PUSH1 0x0 DUP1 SLOAD PUSH2 0xFFFF NOT AND PUSH2 0x101 OR SWAP1 SSTORE JUMPDEST PUSH2 0x8CA PUSH2 0xDB2 JUMP JUMPDEST PUSH2 0x8D3 DUP7 PUSH2 0xB2E JUMP JUMPDEST PUSH1 0x66 DUP1 SLOAD PUSH1 0x1 PUSH1 0x1 PUSH1 0xA0 SHL SUB NOT AND PUSH1 0x1 PUSH1 0x1 PUSH1 0xA0 SHL SUB DUP8 AND SWAP1 DUP2 OR SWAP1 SWAP2 SSTORE PUSH1 0x40 DUP1 MLOAD PUSH4 0x7E062A35 PUSH1 0xE1 SHL DUP2 MSTORE SWAP1 MLOAD PUSH4 0xFC0C546A SWAP2 PUSH1 0x4 DUP1 DUP3 ADD SWAP3 PUSH1 0x20 SWAP3 SWAP1 SWAP2 SWAP1 DUP3 SWAP1 SUB ADD DUP2 DUP7 GAS STATICCALL ISZERO DUP1 ISZERO PUSH2 0x92C JUMPI RETURNDATASIZE PUSH1 0x0 DUP1 RETURNDATACOPY RETURNDATASIZE PUSH1 0x0 REVERT JUMPDEST POP POP POP POP PUSH1 0x40 MLOAD RETURNDATASIZE PUSH1 0x1F NOT PUSH1 0x1F DUP3 ADD AND DUP3 ADD DUP1 PUSH1 0x40 MSTORE POP DUP2 ADD SWAP1 PUSH2 0x950 SWAP2 SWAP1 PUSH2 0x1121 JUMP JUMPDEST PUSH1 0x65 DUP1 SLOAD PUSH1 0x1 PUSH1 0x1 PUSH1 0xA0 SHL SUB NOT SWAP1 DUP2 AND PUSH1 0x1 PUSH1 0x1 PUSH1 0xA0 SHL SUB SWAP4 DUP5 AND OR SWAP1 SWAP2 SSTORE PUSH1 0x67 DUP1 SLOAD SWAP1 SWAP2 AND SWAP2 DUP7 AND SWAP2 SWAP1 SWAP2 OR SWAP1 SSTORE PUSH1 0x69 DUP4 SWAP1 SSTORE PUSH1 0x6A DUP3 SWAP1 SSTORE DUP1 ISZERO PUSH2 0x99B JUMPI PUSH1 0x0 DUP1 SLOAD PUSH2 0xFF00 NOT AND SWAP1 SSTORE JUMPDEST POP POP POP POP POP POP JUMP JUMPDEST PUSH2 0x9AE DUP4 DUP4 DUP4 PUSH2 0xBDC JUMP JUMPDEST PUSH2 0x9E9 JUMPI PUSH1 0x40 MLOAD PUSH3 0x461BCD PUSH1 0xE5 SHL DUP2 MSTORE PUSH1 0x20 PUSH1 0x4 DUP3 ADD MSTORE PUSH1 0xC PUSH1 0x24 DUP3 ADD MSTORE PUSH12 0x10B6B2B935B632A83937B7B3 PUSH1 0xA1 SHL PUSH1 0x44 DUP3 ADD MSTORE PUSH1 0x64 ADD PUSH2 0x506 JUMP JUMPDEST PUSH1 0x40 DUP1 MLOAD PUSH1 0x1 DUP1 DUP3 MSTORE DUP2 DUP4 ADD SWAP1 SWAP3 MSTORE PUSH1 0x0 SWAP2 PUSH1 0x20 DUP1 DUP4 ADD SWAP1 DUP1 CALLDATASIZE DUP4 CALLDATACOPY POP POP PUSH1 0x40 DUP1 MLOAD PUSH1 0x1 DUP1 DUP3 MSTORE DUP2 DUP4 ADD SWAP1 SWAP3 MSTORE SWAP3 SWAP4 POP PUSH1 0x0 SWAP3 SWAP2 POP PUSH1 0x20 DUP1 DUP4 ADD SWAP1 DUP1 CALLDATASIZE DUP4 CALLDATACOPY ADD SWAP1 POP POP SWAP1 POP DUP5 DUP3 PUSH1 0x0 DUP2 MLOAD DUP2 LT PUSH2 0xA42 JUMPI PUSH2 0xA42 PUSH2 0x113E JUMP JUMPDEST PUSH1 0x20 MUL PUSH1 0x20 ADD ADD SWAP1 PUSH1 0x1 PUSH1 0x1 PUSH1 0xA0 SHL SUB AND SWAP1 DUP2 PUSH1 0x1 PUSH1 0x1 PUSH1 0xA0 SHL SUB AND DUP2 MSTORE POP POP PUSH1 0x1 DUP2 PUSH1 0x0 DUP2 MLOAD DUP2 LT PUSH2 0xA77 JUMPI PUSH2 0xA77 PUSH2 0x113E JUMP JUMPDEST SWAP2 ISZERO ISZERO PUSH1 0x20 SWAP3 DUP4 MUL SWAP2 SWAP1 SWAP2 ADD SWAP1 SWAP2 ADD MSTORE PUSH2 0xA91 DUP3 DUP3 PUSH2 0xCAB JUMP JUMPDEST PUSH1 0x68 SLOAD PUSH1 0x40 MLOAD PUSH1 0x1 PUSH1 0x1 PUSH1 0xA0 SHL SUB DUP8 AND SWAP1 PUSH32 0xB0265F949F67383910EA35DDFD8A25E2B554A8F9B878B8CA1E2336B433AD2D72 SWAP1 PUSH1 0x0 SWAP1 LOG3 POP POP POP POP POP JUMP JUMPDEST PUSH1 0x33 SLOAD PUSH1 0x1 PUSH1 0x1 PUSH1 0xA0 SHL SUB AND CALLER EQ PUSH2 0xAF9 JUMPI PUSH1 0x40 MLOAD PUSH3 0x461BCD PUSH1 0xE5 SHL DUP2 MSTORE PUSH1 0x4 ADD PUSH2 0x506 SWAP1 PUSH2 0x10EC JUMP JUMPDEST PUSH1 0x6A DUP2 SWAP1 SSTORE PUSH1 0x40 MLOAD DUP2 DUP2 MSTORE PUSH32 0x4DCA2E8D25C91B34082757532D59A08DA6A173C9E60694E3A1B2CBA6CCB07BE1 SWAP1 PUSH1 0x20 ADD PUSH2 0x670 JUMP JUMPDEST PUSH1 0x33 SLOAD PUSH1 0x1 PUSH1 0x1 PUSH1 0xA0 SHL SUB AND CALLER EQ PUSH2 0xB58 JUMPI PUSH1 0x40 MLOAD PUSH3 0x461BCD PUSH1 0xE5 SHL DUP2 MSTORE PUSH1 0x4 ADD PUSH2 0x506 SWAP1 PUSH2 0x10EC JUMP JUMPDEST PUSH1 0x1 PUSH1 0x1 PUSH1 0xA0 SHL SUB DUP2 AND PUSH2 0xBBD JUMPI PUSH1 0x40 MLOAD PUSH3 0x461BCD PUSH1 0xE5 SHL DUP2 MSTORE PUSH1 0x20 PUSH1 0x4 DUP3 ADD MSTORE PUSH1 0x26 PUSH1 0x24 DUP3 ADD MSTORE PUSH32 0x4F776E61626C653A206E6577206F776E657220697320746865207A65726F2061 PUSH1 0x44 DUP3 ADD MSTORE PUSH6 0x646472657373 PUSH1 0xD0 SHL PUSH1 0x64 DUP3 ADD MSTORE PUSH1 0x84 ADD PUSH2 0x506 JUMP JUMPDEST PUSH2 0xBC6 DUP2 PUSH2 0xC59 JUMP JUMPDEST POP JUMP JUMPDEST PUSH1 0x0 PUSH2 0xBD5 DUP3 DUP5 PUSH2 0x1154 JUMP JUMPDEST SWAP4 SWAP3 POP POP POP JUMP JUMPDEST PUSH1 0x40 MLOAD PUSH12 0xFFFFFFFFFFFFFFFFFFFFFFFF NOT PUSH1 0x60 DUP6 SWAP1 SHL AND PUSH1 0x20 DUP3 ADD MSTORE PUSH1 0x0 SWAP1 DUP2 SWAP1 PUSH1 0x34 ADD PUSH1 0x40 MLOAD PUSH1 0x20 DUP2 DUP4 SUB SUB DUP2 MSTORE SWAP1 PUSH1 0x40 MSTORE DUP1 MLOAD SWAP1 PUSH1 0x20 ADD KECCAK256 SWAP1 POP PUSH2 0x439 DUP5 DUP5 DUP1 DUP1 PUSH1 0x20 MUL PUSH1 0x20 ADD PUSH1 0x40 MLOAD SWAP1 DUP2 ADD PUSH1 0x40 MSTORE DUP1 SWAP4 SWAP3 SWAP2 SWAP1 DUP2 DUP2 MSTORE PUSH1 0x20 ADD DUP4 DUP4 PUSH1 0x20 MUL DUP1 DUP3 DUP5 CALLDATACOPY PUSH1 0x0 SWAP3 ADD SWAP2 SWAP1 SWAP2 MSTORE POP POP PUSH1 0x68 SLOAD SWAP2 POP DUP5 SWAP1 POP PUSH2 0xDE1 JUMP JUMPDEST PUSH1 0x33 DUP1 SLOAD PUSH1 0x1 PUSH1 0x1 PUSH1 0xA0 SHL SUB DUP4 DUP2 AND PUSH1 0x1 PUSH1 0x1 PUSH1 0xA0 SHL SUB NOT DUP4 AND DUP2 OR SWAP1 SWAP4 SSTORE PUSH1 0x40 MLOAD SWAP2 AND SWAP2 SWAP1 DUP3 SWAP1 PUSH32 0x8BE0079C531659141344CD1FD0A4F28419497F9722A3DAAFE3B4186F6B6457E0 SWAP1 PUSH1 0x0 SWAP1 LOG3 POP POP JUMP JUMPDEST DUP1 MLOAD DUP3 MLOAD EQ PUSH2 0xCE6 JUMPI PUSH1 0x40 MLOAD PUSH3 0x461BCD PUSH1 0xE5 SHL DUP2 MSTORE PUSH1 0x20 PUSH1 0x4 DUP3 ADD MSTORE PUSH1 0x7 PUSH1 0x24 DUP3 ADD MSTORE PUSH7 0x42D8CADCCEE8D PUSH1 0xCB SHL PUSH1 0x44 DUP3 ADD MSTORE PUSH1 0x64 ADD PUSH2 0x506 JUMP JUMPDEST PUSH1 0x0 JUMPDEST DUP3 MLOAD DUP2 LT ISZERO PUSH2 0xDAD JUMPI PUSH1 0x0 PUSH1 0x1 PUSH1 0x1 PUSH1 0xA0 SHL SUB AND DUP4 DUP3 DUP2 MLOAD DUP2 LT PUSH2 0xD0F JUMPI PUSH2 0xD0F PUSH2 0x113E JUMP JUMPDEST PUSH1 0x20 MUL PUSH1 0x20 ADD ADD MLOAD PUSH1 0x1 PUSH1 0x1 PUSH1 0xA0 SHL SUB AND EQ ISZERO PUSH2 0xD2B JUMPI PUSH2 0xD9B JUMP JUMPDEST DUP2 DUP2 DUP2 MLOAD DUP2 LT PUSH2 0xD3D JUMPI PUSH2 0xD3D PUSH2 0x113E JUMP JUMPDEST PUSH1 0x20 MUL PUSH1 0x20 ADD ADD MLOAD PUSH1 0x6B PUSH1 0x0 DUP6 DUP5 DUP2 MLOAD DUP2 LT PUSH2 0xD5B JUMPI PUSH2 0xD5B PUSH2 0x113E JUMP JUMPDEST PUSH1 0x20 MUL PUSH1 0x20 ADD ADD MLOAD PUSH1 0x1 PUSH1 0x1 PUSH1 0xA0 SHL SUB AND PUSH1 0x1 PUSH1 0x1 PUSH1 0xA0 SHL SUB AND DUP2 MSTORE PUSH1 0x20 ADD SWAP1 DUP2 MSTORE PUSH1 0x20 ADD PUSH1 0x0 KECCAK256 PUSH1 0x0 PUSH2 0x100 EXP DUP2 SLOAD DUP2 PUSH1 0xFF MUL NOT AND SWAP1 DUP4 ISZERO ISZERO MUL OR SWAP1 SSTORE POP JUMPDEST DUP1 PUSH2 0xDA5 DUP2 PUSH2 0x116B JUMP JUMPDEST SWAP2 POP POP PUSH2 0xCE9 JUMP JUMPDEST POP POP POP JUMP JUMPDEST PUSH1 0x0 SLOAD PUSH2 0x100 SWAP1 DIV PUSH1 0xFF AND PUSH2 0xDD9 JUMPI PUSH1 0x40 MLOAD PUSH3 0x461BCD PUSH1 0xE5 SHL DUP2 MSTORE PUSH1 0x4 ADD PUSH2 0x506 SWAP1 PUSH2 0x1186 JUMP JUMPDEST PUSH2 0x576 PUSH2 0xDF7 JUMP JUMPDEST PUSH1 0x0 DUP3 PUSH2 0xDEE DUP6 DUP5 PUSH2 0xE27 JUMP JUMPDEST EQ SWAP5 SWAP4 POP POP POP POP JUMP JUMPDEST PUSH1 0x0 SLOAD PUSH2 0x100 SWAP1 DIV PUSH1 0xFF AND PUSH2 0xE1E JUMPI PUSH1 0x40 MLOAD PUSH3 0x461BCD PUSH1 0xE5 SHL DUP2 MSTORE PUSH1 0x4 ADD PUSH2 0x506 SWAP1 PUSH2 0x1186 JUMP JUMPDEST PUSH2 0x576 CALLER PUSH2 0xC59 JUMP JUMPDEST PUSH1 0x0 DUP2 DUP2 JUMPDEST DUP5 MLOAD DUP2 LT ISZERO PUSH2 0xE93 JUMPI PUSH1 0x0 DUP6 DUP3 DUP2 MLOAD DUP2 LT PUSH2 0xE49 JUMPI PUSH2 0xE49 PUSH2 0x113E JUMP JUMPDEST PUSH1 0x20 MUL PUSH1 0x20 ADD ADD MLOAD SWAP1 POP DUP1 DUP4 GT PUSH2 0xE6F JUMPI PUSH1 0x0 DUP4 DUP2 MSTORE PUSH1 0x20 DUP3 SWAP1 MSTORE PUSH1 0x40 SWAP1 KECCAK256 SWAP3 POP PUSH2 0xE80 JUMP JUMPDEST PUSH1 0x0 DUP2 DUP2 MSTORE PUSH1 0x20 DUP5 SWAP1 MSTORE PUSH1 0x40 SWAP1 KECCAK256 SWAP3 POP JUMPDEST POP DUP1 PUSH2 0xE8B DUP2 PUSH2 0x116B JUMP JUMPDEST SWAP2 POP POP PUSH2 0xE2C JUMP JUMPDEST POP SWAP4 SWAP3 POP POP POP JUMP JUMPDEST PUSH1 0x1 PUSH1 0x1 PUSH1 0xA0 SHL SUB DUP2 AND DUP2 EQ PUSH2 0xBC6 JUMPI PUSH1 0x0 DUP1 REVERT JUMPDEST PUSH1 0x0 PUSH1 0x20 DUP3 DUP5 SUB SLT ISZERO PUSH2 0xEC2 JUMPI PUSH1 0x0 DUP1 REVERT JUMPDEST DUP2 CALLDATALOAD PUSH2 0xBD5 DUP2 PUSH2 0xE9B JUMP JUMPDEST PUSH1 0x0 DUP1 DUP4 PUSH1 0x1F DUP5 ADD SLT PUSH2 0xEDF JUMPI PUSH1 0x0 DUP1 REVERT JUMPDEST POP DUP2 CALLDATALOAD PUSH8 0xFFFFFFFFFFFFFFFF DUP2 GT ISZERO PUSH2 0xEF7 JUMPI PUSH1 0x0 DUP1 REVERT JUMPDEST PUSH1 0x20 DUP4 ADD SWAP2 POP DUP4 PUSH1 0x20 DUP3 PUSH1 0x5 SHL DUP6 ADD ADD GT ISZERO PUSH2 0xF12 JUMPI PUSH1 0x0 DUP1 REVERT JUMPDEST SWAP3 POP SWAP3 SWAP1 POP JUMP JUMPDEST PUSH1 0x0 DUP1 PUSH1 0x0 DUP1 PUSH1 0x60 DUP6 DUP8 SUB SLT ISZERO PUSH2 0xF2F JUMPI PUSH1 0x0 DUP1 REVERT JUMPDEST DUP5 CALLDATALOAD PUSH2 0xF3A DUP2 PUSH2 0xE9B JUMP JUMPDEST SWAP4 POP PUSH1 0x20 DUP6 ADD CALLDATALOAD SWAP3 POP PUSH1 0x40 DUP6 ADD CALLDATALOAD PUSH8 0xFFFFFFFFFFFFFFFF DUP2 GT ISZERO PUSH2 0xF5D JUMPI PUSH1 0x0 DUP1 REVERT JUMPDEST PUSH2 0xF69 DUP8 DUP3 DUP9 ADD PUSH2 0xECD JUMP JUMPDEST SWAP6 SWAP9 SWAP5 SWAP8 POP SWAP6 POP POP POP POP JUMP JUMPDEST PUSH1 0x0 PUSH1 0x20 DUP3 DUP5 SUB SLT ISZERO PUSH2 0xF87 JUMPI PUSH1 0x0 DUP1 REVERT JUMPDEST POP CALLDATALOAD SWAP2 SWAP1 POP JUMP JUMPDEST PUSH1 0x0 DUP1 PUSH1 0x0 DUP1 PUSH1 0x40 DUP6 DUP8 SUB SLT ISZERO PUSH2 0xFA4 JUMPI PUSH1 0x0 DUP1 REVERT JUMPDEST DUP5 CALLDATALOAD PUSH8 0xFFFFFFFFFFFFFFFF DUP1 DUP3 GT ISZERO PUSH2 0xFBC JUMPI PUSH1 0x0 DUP1 REVERT JUMPDEST PUSH2 0xFC8 DUP9 DUP4 DUP10 ADD PUSH2 0xECD JUMP JUMPDEST SWAP1 SWAP7 POP SWAP5 POP PUSH1 0x20 DUP8 ADD CALLDATALOAD SWAP2 POP DUP1 DUP3 GT ISZERO PUSH2 0xFE1 JUMPI PUSH1 0x0 DUP1 REVERT JUMPDEST POP PUSH2 0xF69 DUP8 DUP3 DUP9 ADD PUSH2 0xECD JUMP JUMPDEST PUSH1 0x0 DUP1 PUSH1 0x0 DUP1 PUSH1 0x0 PUSH1 0xA0 DUP7 DUP9 SUB SLT ISZERO PUSH2 0x1006 JUMPI PUSH1 0x0 DUP1 REVERT JUMPDEST DUP6 CALLDATALOAD PUSH2 0x1011 DUP2 PUSH2 0xE9B JUMP JUMPDEST SWAP5 POP PUSH1 0x20 DUP7 ADD CALLDATALOAD PUSH2 0x1021 DUP2 PUSH2 0xE9B JUMP JUMPDEST SWAP4 POP PUSH1 0x40 DUP7 ADD CALLDATALOAD PUSH2 0x1031 DUP2 PUSH2 0xE9B JUMP JUMPDEST SWAP5 SWAP8 SWAP4 SWAP7 POP SWAP4 SWAP5 PUSH1 0x60 DUP2 ADD CALLDATALOAD SWAP5 POP PUSH1 0x80 ADD CALLDATALOAD SWAP3 SWAP2 POP POP JUMP JUMPDEST PUSH1 0x0 DUP1 PUSH1 0x0 PUSH1 0x40 DUP5 DUP7 SUB SLT ISZERO PUSH2 0x105E JUMPI PUSH1 0x0 DUP1 REVERT JUMPDEST DUP4 CALLDATALOAD PUSH2 0x1069 DUP2 PUSH2 0xE9B JUMP JUMPDEST SWAP3 POP PUSH1 0x20 DUP5 ADD CALLDATALOAD PUSH8 0xFFFFFFFFFFFFFFFF DUP2 GT ISZERO PUSH2 0x1085 JUMPI PUSH1 0x0 DUP1 REVERT JUMPDEST PUSH2 0x1091 DUP7 DUP3 DUP8 ADD PUSH2 0xECD JUMP JUMPDEST SWAP5 SWAP8 SWAP1 SWAP7 POP SWAP4 SWAP5 POP POP POP POP JUMP JUMPDEST PUSH1 0x0 PUSH1 0x20 DUP3 DUP5 SUB SLT ISZERO PUSH2 0x10B0 JUMPI PUSH1 0x0 DUP1 REVERT JUMPDEST POP MLOAD SWAP2 SWAP1 POP JUMP JUMPDEST PUSH4 0x4E487B71 PUSH1 0xE0 SHL PUSH1 0x0 MSTORE PUSH1 0x11 PUSH1 0x4 MSTORE PUSH1 0x24 PUSH1 0x0 REVERT JUMPDEST PUSH1 0x0 DUP2 PUSH1 0x0 NOT DIV DUP4 GT DUP3 ISZERO ISZERO AND ISZERO PUSH2 0x10E7 JUMPI PUSH2 0x10E7 PUSH2 0x10B7 JUMP JUMPDEST POP MUL SWAP1 JUMP JUMPDEST PUSH1 0x20 DUP1 DUP3 MSTORE DUP2 DUP2 ADD MSTORE PUSH32 0x4F776E61626C653A2063616C6C6572206973206E6F7420746865206F776E6572 PUSH1 0x40 DUP3 ADD MSTORE PUSH1 0x60 ADD SWAP1 JUMP JUMPDEST PUSH1 0x0 PUSH1 0x20 DUP3 DUP5 SUB SLT ISZERO PUSH2 0x1133 JUMPI PUSH1 0x0 DUP1 REVERT JUMPDEST DUP2 MLOAD PUSH2 0xBD5 DUP2 PUSH2 0xE9B JUMP JUMPDEST PUSH4 0x4E487B71 PUSH1 0xE0 SHL PUSH1 0x0 MSTORE PUSH1 0x32 PUSH1 0x4 MSTORE PUSH1 0x24 PUSH1 0x0 REVERT JUMPDEST PUSH1 0x0 DUP3 DUP3 LT ISZERO PUSH2 0x1166 JUMPI PUSH2 0x1166 PUSH2 0x10B7 JUMP JUMPDEST POP SUB SWAP1 JUMP JUMPDEST PUSH1 0x0 PUSH1 0x0 NOT DUP3 EQ ISZERO PUSH2 0x117F JUMPI PUSH2 0x117F PUSH2 0x10B7 JUMP JUMPDEST POP PUSH1 0x1 ADD SWAP1 JUMP JUMPDEST PUSH1 0x20 DUP1 DUP3 MSTORE PUSH1 0x2B SWAP1 DUP3 ADD MSTORE PUSH32 0x496E697469616C697A61626C653A20636F6E7472616374206973206E6F742069 PUSH1 0x40 DUP3 ADD MSTORE PUSH11 0x6E697469616C697A696E67 PUSH1 0xA8 SHL PUSH1 0x60 DUP3 ADD MSTORE PUSH1 0x80 ADD SWAP1 JUMP INVALID LOG2 PUSH5 0x6970667358 0x22 SLT KECCAK256 0xAF PUSH16 0xC03EB70231A588FE8477EE777D03AAAD 0x2D DUP1 GAS 0x5E 0xAF 0xDA 0xAF 0xA6 PUSH1 0xFD PUSH26 0x982F7964736F6C634300080C0033000000000000000000000000 ",
  "sha1": "1c4485809b718b3bd48598a6c80a1cc2f897f62d",
  "source": "// SPDX-License-Identifier: GPL-3.0\npragma solidity 0.8.12;\npragma experimental ABIEncoderV2;\n\nimport \"@openzeppelin/contracts-upgradeable/utils/math/SafeMathUpgradeable.sol\";\nimport \"@openzeppelin/contracts-upgradeable/access/OwnableUpgradeable.sol\";\nimport \"@openzeppelin/contracts-upgradeable/utils/cryptography/MerkleProofUpgradeable.sol\";\nimport \"@openzeppelin/contracts/token/ERC20/IERC20.sol\";\n\nimport './interfaces/IVault.sol';\nimport './interfaces/IPriceCalculator.sol';\n\n\n/**\n * @notice A basic guest list contract.\n * @dev For a Vyper implementation of this contract containing additional\n * functionality, see https://github.com/banteg/guest-list/blob/master/contracts/GuestList.vy\n * The owner can invite arbitrary guests\n * A guest can be added permissionlessly with proof of inclusion in current merkle set\n * The owner can change the merkle root at any time\n * Merkle-based permission that has been claimed cannot be revoked permissionlessly.\n * Any guests can be revoked by the owner at-will\n * The TVL cap is based on the number of want tokens in the underlying vaults.\n * This can only be made more permissive over time. If decreased, existing TVL is maintained and no deposits are possible until the TVL has gone below the threshold\n * A variant of the yearn AffiliateToken that supports guest list control of deposits\n * A guest list that gates access by merkle root and a TVL cap\n * @notice authorized function to ignore merkle proof for testing, inspiration from yearn's approach to testing guestlist https://github.com/yearn/yearn-devdocs/blob/4664fdef7d10f3a767fa651975059c44cf1cdb37/docs/developers/v2/smart-contracts/test/TestGuestList.md\n */\ncontract CappedGuestList is OwnableUpgradeable {\n    using SafeMathUpgradeable for uint256;\n\n    address public wantToken;\n    address public vault;\n    address public priceCalculator;\n\n    bytes32 public guestRoot;\n    uint256 public userDepositCap;\n    uint256 public totalDepositCap;\n\n    mapping(address => bool) public guests;\n\n    event ProveInvitation(address indexed account, bytes32 indexed guestRoot);\n    event SetGuestRoot(bytes32 indexed guestRoot);\n    event SetUserDepositCap(uint256 cap);\n    event SetTotalDepositCap(uint256 cap);\n\n    /**\n     * @notice Create the guest list\n     */\n    function initialize(address _owner, address _vault, address _priceCalculator, uint256 _userDepositCap, uint256 _totalDepositCap) public initializer {\n        __Ownable_init();\n        transferOwnership(_owner);\n        vault = _vault;\n        wantToken = IVault(vault).token();\n        priceCalculator = _priceCalculator;\n        userDepositCap = _userDepositCap;\n        totalDepositCap = _totalDepositCap;\n    }\n\n    /**\n     * @notice Invite guests or kick them from the party.\n     * @param _guests The guests to add or update.\n     * @param _invited A flag for each guest at the matching index, inviting or\n     * uninviting the guest.\n     */\n    function setGuests(address[] calldata _guests, bool[] calldata _invited) external onlyOwner {\n        _setGuests(_guests, _invited);\n    }\n\n    function remainingTotalDepositAllowed() public view returns (uint256) {\n        uint256 totalSupply = IVault(vault).totalSupply();\n        uint256 pricePerShare = IVault(vault).getPricePerFullShare();\n        uint256 totalTokenPriceInUSD = IPriceCalculator(priceCalculator).tokenPriceInUSD(wantToken, totalSupply * pricePerShare);\n\n        return totalDepositCap.sub(totalTokenPriceInUSD);\n    }\n\n    function remainingUserDepositAllowed(address user) public view returns (uint256) {\n        uint256 userBalance = IVault(vault).balanceOf(user);\n        uint256 pricePerShare = IVault(vault).getPricePerFullShare();\n        uint256 totalTokenPriceInUSD = IPriceCalculator(priceCalculator).tokenPriceInUSD(wantToken, userBalance * pricePerShare);\n        return userDepositCap.sub(totalTokenPriceInUSD);\n    }\n\n    /**\n     * @notice Permissionly prove an address is included in the current merkle root, thereby granting access\n     * @notice Note that the list is designed to ONLY EXPAND in future instances\n     * @notice The admin does retain the ability to ban individual addresses\n     */\n    function proveInvitation(address account, bytes32[] calldata merkleProof) public {\n        // Verify Merkle Proof\n        require(_verifyInvitationProof(account, merkleProof), \"!merkleProof\");\n\n        address[] memory accounts = new address[](1);\n        bool[] memory invited = new bool[](1);\n\n        accounts[0] = account;\n        invited[0] = true;\n\n        _setGuests(accounts, invited);\n\n        emit ProveInvitation(account, guestRoot);\n    }\n\n    /**\n     * @notice Set the merkle root to verify invitation proofs against.\n     * @notice Note that accounts not included in the root will still be invited if their inviation was previously approved.\n     * @notice Setting to 0 removes proof verification versus the root, opening access\n     */\n    function setGuestRoot(bytes32 guestRoot_) external onlyOwner {\n        guestRoot = guestRoot_;\n\n        emit SetGuestRoot(guestRoot);\n    }\n\n    function setUserDepositCap(uint256 cap_) external onlyOwner {\n        userDepositCap = cap_;\n\n        emit SetUserDepositCap(userDepositCap);\n    }\n\n    function setTotalDepositCap(uint256 cap_) external onlyOwner {\n        totalDepositCap = cap_;\n\n        emit SetTotalDepositCap(totalDepositCap);\n    }\n\n    /**\n     * @notice Check if a guest with a bag of a certain size is allowed into\n     * the party.\n     * @param _guest The guest's address to check.\n     */\n    function authorized(\n        address _guest,\n        uint256 _amount,\n        bytes32[] calldata _merkleProof\n    ) external view returns (bool) {\n        // Yes: If the user is on the list, and under the cap\n        // Yes: If the user is not on the list, and is under the cap\n        // No: If the user is not on the list, or is over the cap\n        bool invited = guests[_guest];\n\n        // If there is no guest root, all users are invited\n        if (!invited && guestRoot == bytes32(0)) {\n            invited = true;\n        }\n\n        // If the user is not already invited and there is an active guestList, require verification of merkle proof to grant temporary invitation (does not set storage variable)\n        if (!invited && guestRoot != bytes32(0)) {\n            // Will revert on invalid proof\n            invited = _verifyInvitationProof(_guest, _merkleProof);\n        }\n\n        // If the user was previously invited, or proved invitiation via list, verify if the amount to deposit keeps them under the cap\n        if (invited && remainingUserDepositAllowed(_guest) >= _amount && remainingTotalDepositAllowed() >= _amount) {\n            return true;\n        } else {\n            return false;\n        }\n    }\n\n    function _setGuests(address[] memory _guests, bool[] memory _invited) internal {\n        require(_guests.length == _invited.length, \"!length\");\n        for (uint256 i = 0; i < _guests.length; i++) {\n            if (_guests[i] == address(0)) {\n                continue;\n            }\n            guests[_guests[i]] = _invited[i];\n        }\n    }\n\n    function _verifyInvitationProof(address account, bytes32[] calldata merkleProof) internal view returns (bool) {\n        bytes32 node = keccak256(abi.encodePacked(account));\n        return MerkleProofUpgradeable.verify(merkleProof, guestRoot, node);\n    }\n}",
  "sourcePath": "contracts/CappedGuestList.sol",
  "type": "contract"
}