{
  "abi": [
    {
      "inputs": [
        {
          "internalType": "address",
          "name": "_priceCalculatorAddress",
          "type": "address"
        }
      ],
      "stateMutability": "nonpayable",
      "type": "constructor"
    },
    {
      "inputs": [
        {
          "internalType": "address",
          "name": "pair",
          "type": "address"
        }
      ],
      "name": "getData",
      "outputs": [
        {
          "internalType": "uint256",
          "name": "",
          "type": "uint256"
        }
      ],
      "stateMutability": "view",
      "type": "function"
    },
    {
      "inputs": [],
      "name": "priceCalculatorAddress",
      "outputs": [
        {
          "internalType": "address",
          "name": "",
          "type": "address"
        }
      ],
      "stateMutability": "view",
      "type": "function"
    }
  ],
  "bytecode": "60a060405234801561001057600080fd5b506040516107c13803806107c183398101604081905261002f91610040565b6001600160a01b0316608052610070565b60006020828403121561005257600080fd5b81516001600160a01b038116811461006957600080fd5b9392505050565b6080516107296100986000396000818160660152818161029a015261033801526107296000f3fe608060405234801561001057600080fd5b50600436106100365760003560e01c806338266b221461003b578063efd99e4514610061575b600080fd5b61004e6100493660046105c5565b6100a0565b6040519081526020015b60405180910390f35b6100887f000000000000000000000000000000000000000000000000000000000000000081565b6040516001600160a01b039091168152602001610058565b600080826001600160a01b0316630dfe16816040518163ffffffff1660e01b8152600401602060405180830381865afa1580156100e1573d6000803e3d6000fd5b505050506040513d601f19601f8201168201806040525081019061010591906105e2565b90506000836001600160a01b031663d21220a76040518163ffffffff1660e01b8152600401602060405180830381865afa158015610147573d6000803e3d6000fd5b505050506040513d601f19601f8201168201806040525081019061016b91906105e2565b90506000846001600160a01b03166318160ddd6040518163ffffffff1660e01b8152600401602060405180830381865afa1580156101ad573d6000803e3d6000fd5b505050506040513d601f19601f820116820180604052508101906101d191906105ff565b9050600080866001600160a01b0316630902f1ac6040518163ffffffff1660e01b8152600401606060405180830381865afa158015610214573d6000803e3d6000fd5b505050506040513d601f19601f820116820180604052508101906102389190610634565b506001600160701b03918216935016905060006102678461026161025c86866103f5565b610408565b90610586565b604051630534333f60e11b81526001600160a01b038881166004830152670de0b6b3a764000060248301529192506000917f00000000000000000000000000000000000000000000000000000000000000001690630a68667e90604401602060405180830381865afa1580156102e1573d6000803e3d6000fd5b505050506040513d601f19601f8201168201806040525081019061030591906105ff565b604051630534333f60e11b81526001600160a01b038881166004830152670de0b6b3a764000060248301529192506000917f00000000000000000000000000000000000000000000000000000000000000001690630a68667e90604401602060405180830381865afa15801561037f573d6000803e3d6000fd5b505050506040513d601f19601f820116820180604052508101906103a391906105ff565b905060006103e6600160381b6103e06103bb85610408565b6103da600160381b6103e06103cf8a610408565b6103da8c60026103f5565b906103f5565b906105a1565b9b9a5050505050505050505050565b6000610401828461069a565b9392505050565b60008161041757506000919050565b816001600160801b82106104305760809190911c9060401b5b68010000000000000000821061044b5760409190911c9060201b5b64010000000082106104625760209190911c9060101b5b6201000082106104775760109190911c9060081b5b610100821061048b5760089190911c9060041b5b6010821061049e5760049190911c9060021b5b600882106104aa5760011b5b60016104b682866106b9565b6104c090836106db565b901c905060016104d082866106b9565b6104da90836106db565b901c905060016104ea82866106b9565b6104f490836106db565b901c9050600161050482866106b9565b61050e90836106db565b901c9050600161051e82866106b9565b61052890836106db565b901c9050600161053882866106b9565b61054290836106db565b901c9050600161055282866106b9565b61055c90836106db565b901c9050600061056c82866106b9565b905080821061057b578061057d565b815b95945050505050565b60008161059784600160701b6103f5565b61040191906106b9565b600061040182846106b9565b6001600160a01b03811681146105c257600080fd5b50565b6000602082840312156105d757600080fd5b8135610401816105ad565b6000602082840312156105f457600080fd5b8151610401816105ad565b60006020828403121561061157600080fd5b5051919050565b80516001600160701b038116811461062f57600080fd5b919050565b60008060006060848603121561064957600080fd5b61065284610618565b925061066060208501610618565b9150604084015163ffffffff8116811461067957600080fd5b809150509250925092565b634e487b7160e01b600052601160045260246000fd5b60008160001904831182151516156106b4576106b4610684565b500290565b6000826106d657634e487b7160e01b600052601260045260246000fd5b500490565b600082198211156106ee576106ee610684565b50019056fea2646970667358221220d4702779a8c161899274f98d26fac92db263d0858c6c0d23621251d042e8449f64736f6c634300080c0033",
  "bytecodeSha1": "21e4d16afafc05f9e226b515a802ce1ac35b7bdb",
  "compiler": {
    "evm_version": "istanbul",
    "optimizer": {
      "enabled": true,
      "runs": 200
    },
    "version": "0.8.12+commit.f00d7308"
  },
  "contractName": "LPPriceCalculator",
  "language": "Solidity",
  "natspec": {
    "kind": "dev",
    "methods": {},
    "version": 1
  },
  "opcodes": "PUSH1 0x80 PUSH1 0x40 MSTORE CALLVALUE DUP1 ISZERO PUSH2 0x10 JUMPI PUSH1 0x0 DUP1 REVERT JUMPDEST POP PUSH1 0x4 CALLDATASIZE LT PUSH2 0x36 JUMPI PUSH1 0x0 CALLDATALOAD PUSH1 0xE0 SHR DUP1 PUSH4 0x38266B22 EQ PUSH2 0x3B JUMPI DUP1 PUSH4 0xEFD99E45 EQ PUSH2 0x61 JUMPI JUMPDEST PUSH1 0x0 DUP1 REVERT JUMPDEST PUSH2 0x4E PUSH2 0x49 CALLDATASIZE PUSH1 0x4 PUSH2 0x5C5 JUMP JUMPDEST PUSH2 0xA0 JUMP JUMPDEST PUSH1 0x40 MLOAD SWAP1 DUP2 MSTORE PUSH1 0x20 ADD JUMPDEST PUSH1 0x40 MLOAD DUP1 SWAP2 SUB SWAP1 RETURN JUMPDEST PUSH2 0x88 PUSH32 0x0 DUP2 JUMP JUMPDEST PUSH1 0x40 MLOAD PUSH1 0x1 PUSH1 0x1 PUSH1 0xA0 SHL SUB SWAP1 SWAP2 AND DUP2 MSTORE PUSH1 0x20 ADD PUSH2 0x58 JUMP JUMPDEST PUSH1 0x0 DUP1 DUP3 PUSH1 0x1 PUSH1 0x1 PUSH1 0xA0 SHL SUB AND PUSH4 0xDFE1681 PUSH1 0x40 MLOAD DUP2 PUSH4 0xFFFFFFFF AND PUSH1 0xE0 SHL DUP2 MSTORE PUSH1 0x4 ADD PUSH1 0x20 PUSH1 0x40 MLOAD DUP1 DUP4 SUB DUP2 DUP7 GAS STATICCALL ISZERO DUP1 ISZERO PUSH2 0xE1 JUMPI RETURNDATASIZE PUSH1 0x0 DUP1 RETURNDATACOPY RETURNDATASIZE PUSH1 0x0 REVERT JUMPDEST POP POP POP POP PUSH1 0x40 MLOAD RETURNDATASIZE PUSH1 0x1F NOT PUSH1 0x1F DUP3 ADD AND DUP3 ADD DUP1 PUSH1 0x40 MSTORE POP DUP2 ADD SWAP1 PUSH2 0x105 SWAP2 SWAP1 PUSH2 0x5E2 JUMP JUMPDEST SWAP1 POP PUSH1 0x0 DUP4 PUSH1 0x1 PUSH1 0x1 PUSH1 0xA0 SHL SUB AND PUSH4 0xD21220A7 PUSH1 0x40 MLOAD DUP2 PUSH4 0xFFFFFFFF AND PUSH1 0xE0 SHL DUP2 MSTORE PUSH1 0x4 ADD PUSH1 0x20 PUSH1 0x40 MLOAD DUP1 DUP4 SUB DUP2 DUP7 GAS STATICCALL ISZERO DUP1 ISZERO PUSH2 0x147 JUMPI RETURNDATASIZE PUSH1 0x0 DUP1 RETURNDATACOPY RETURNDATASIZE PUSH1 0x0 REVERT JUMPDEST POP POP POP POP PUSH1 0x40 MLOAD RETURNDATASIZE PUSH1 0x1F NOT PUSH1 0x1F DUP3 ADD AND DUP3 ADD DUP1 PUSH1 0x40 MSTORE POP DUP2 ADD SWAP1 PUSH2 0x16B SWAP2 SWAP1 PUSH2 0x5E2 JUMP JUMPDEST SWAP1 POP PUSH1 0x0 DUP5 PUSH1 0x1 PUSH1 0x1 PUSH1 0xA0 SHL SUB AND PUSH4 0x18160DDD PUSH1 0x40 MLOAD DUP2 PUSH4 0xFFFFFFFF AND PUSH1 0xE0 SHL DUP2 MSTORE PUSH1 0x4 ADD PUSH1 0x20 PUSH1 0x40 MLOAD DUP1 DUP4 SUB DUP2 DUP7 GAS STATICCALL ISZERO DUP1 ISZERO PUSH2 0x1AD JUMPI RETURNDATASIZE PUSH1 0x0 DUP1 RETURNDATACOPY RETURNDATASIZE PUSH1 0x0 REVERT JUMPDEST POP POP POP POP PUSH1 0x40 MLOAD RETURNDATASIZE PUSH1 0x1F NOT PUSH1 0x1F DUP3 ADD AND DUP3 ADD DUP1 PUSH1 0x40 MSTORE POP DUP2 ADD SWAP1 PUSH2 0x1D1 SWAP2 SWAP1 PUSH2 0x5FF JUMP JUMPDEST SWAP1 POP PUSH1 0x0 DUP1 DUP7 PUSH1 0x1 PUSH1 0x1 PUSH1 0xA0 SHL SUB AND PUSH4 0x902F1AC PUSH1 0x40 MLOAD DUP2 PUSH4 0xFFFFFFFF AND PUSH1 0xE0 SHL DUP2 MSTORE PUSH1 0x4 ADD PUSH1 0x60 PUSH1 0x40 MLOAD DUP1 DUP4 SUB DUP2 DUP7 GAS STATICCALL ISZERO DUP1 ISZERO PUSH2 0x214 JUMPI RETURNDATASIZE PUSH1 0x0 DUP1 RETURNDATACOPY RETURNDATASIZE PUSH1 0x0 REVERT JUMPDEST POP POP POP POP PUSH1 0x40 MLOAD RETURNDATASIZE PUSH1 0x1F NOT PUSH1 0x1F DUP3 ADD AND DUP3 ADD DUP1 PUSH1 0x40 MSTORE POP DUP2 ADD SWAP1 PUSH2 0x238 SWAP2 SWAP1 PUSH2 0x634 JUMP JUMPDEST POP PUSH1 0x1 PUSH1 0x1 PUSH1 0x70 SHL SUB SWAP2 DUP3 AND SWAP4 POP AND SWAP1 POP PUSH1 0x0 PUSH2 0x267 DUP5 PUSH2 0x261 PUSH2 0x25C DUP7 DUP7 PUSH2 0x3F5 JUMP JUMPDEST PUSH2 0x408 JUMP JUMPDEST SWAP1 PUSH2 0x586 JUMP JUMPDEST PUSH1 0x40 MLOAD PUSH4 0x534333F PUSH1 0xE1 SHL DUP2 MSTORE PUSH1 0x1 PUSH1 0x1 PUSH1 0xA0 SHL SUB DUP9 DUP2 AND PUSH1 0x4 DUP4 ADD MSTORE PUSH8 0xDE0B6B3A7640000 PUSH1 0x24 DUP4 ADD MSTORE SWAP2 SWAP3 POP PUSH1 0x0 SWAP2 PUSH32 0x0 AND SWAP1 PUSH4 0xA68667E SWAP1 PUSH1 0x44 ADD PUSH1 0x20 PUSH1 0x40 MLOAD DUP1 DUP4 SUB DUP2 DUP7 GAS STATICCALL ISZERO DUP1 ISZERO PUSH2 0x2E1 JUMPI RETURNDATASIZE PUSH1 0x0 DUP1 RETURNDATACOPY RETURNDATASIZE PUSH1 0x0 REVERT JUMPDEST POP POP POP POP PUSH1 0x40 MLOAD RETURNDATASIZE PUSH1 0x1F NOT PUSH1 0x1F DUP3 ADD AND DUP3 ADD DUP1 PUSH1 0x40 MSTORE POP DUP2 ADD SWAP1 PUSH2 0x305 SWAP2 SWAP1 PUSH2 0x5FF JUMP JUMPDEST PUSH1 0x40 MLOAD PUSH4 0x534333F PUSH1 0xE1 SHL DUP2 MSTORE PUSH1 0x1 PUSH1 0x1 PUSH1 0xA0 SHL SUB DUP9 DUP2 AND PUSH1 0x4 DUP4 ADD MSTORE PUSH8 0xDE0B6B3A7640000 PUSH1 0x24 DUP4 ADD MSTORE SWAP2 SWAP3 POP PUSH1 0x0 SWAP2 PUSH32 0x0 AND SWAP1 PUSH4 0xA68667E SWAP1 PUSH1 0x44 ADD PUSH1 0x20 PUSH1 0x40 MLOAD DUP1 DUP4 SUB DUP2 DUP7 GAS STATICCALL ISZERO DUP1 ISZERO PUSH2 0x37F JUMPI RETURNDATASIZE PUSH1 0x0 DUP1 RETURNDATACOPY RETURNDATASIZE PUSH1 0x0 REVERT JUMPDEST POP POP POP POP PUSH1 0x40 MLOAD RETURNDATASIZE PUSH1 0x1F NOT PUSH1 0x1F DUP3 ADD AND DUP3 ADD DUP1 PUSH1 0x40 MSTORE POP DUP2 ADD SWAP1 PUSH2 0x3A3 SWAP2 SWAP1 PUSH2 0x5FF JUMP JUMPDEST SWAP1 POP PUSH1 0x0 PUSH2 0x3E6 PUSH1 0x1 PUSH1 0x38 SHL PUSH2 0x3E0 PUSH2 0x3BB DUP6 PUSH2 0x408 JUMP JUMPDEST PUSH2 0x3DA PUSH1 0x1 PUSH1 0x38 SHL PUSH2 0x3E0 PUSH2 0x3CF DUP11 PUSH2 0x408 JUMP JUMPDEST PUSH2 0x3DA DUP13 PUSH1 0x2 PUSH2 0x3F5 JUMP JUMPDEST SWAP1 PUSH2 0x3F5 JUMP JUMPDEST SWAP1 PUSH2 0x5A1 JUMP JUMPDEST SWAP12 SWAP11 POP POP POP POP POP POP POP POP POP POP POP JUMP JUMPDEST PUSH1 0x0 PUSH2 0x401 DUP3 DUP5 PUSH2 0x69A JUMP JUMPDEST SWAP4 SWAP3 POP POP POP JUMP JUMPDEST PUSH1 0x0 DUP2 PUSH2 0x417 JUMPI POP PUSH1 0x0 SWAP2 SWAP1 POP JUMP JUMPDEST DUP2 PUSH1 0x1 PUSH1 0x1 PUSH1 0x80 SHL DUP3 LT PUSH2 0x430 JUMPI PUSH1 0x80 SWAP2 SWAP1 SWAP2 SHR SWAP1 PUSH1 0x40 SHL JUMPDEST PUSH9 0x10000000000000000 DUP3 LT PUSH2 0x44B JUMPI PUSH1 0x40 SWAP2 SWAP1 SWAP2 SHR SWAP1 PUSH1 0x20 SHL JUMPDEST PUSH5 0x100000000 DUP3 LT PUSH2 0x462 JUMPI PUSH1 0x20 SWAP2 SWAP1 SWAP2 SHR SWAP1 PUSH1 0x10 SHL JUMPDEST PUSH3 0x10000 DUP3 LT PUSH2 0x477 JUMPI PUSH1 0x10 SWAP2 SWAP1 SWAP2 SHR SWAP1 PUSH1 0x8 SHL JUMPDEST PUSH2 0x100 DUP3 LT PUSH2 0x48B JUMPI PUSH1 0x8 SWAP2 SWAP1 SWAP2 SHR SWAP1 PUSH1 0x4 SHL JUMPDEST PUSH1 0x10 DUP3 LT PUSH2 0x49E JUMPI PUSH1 0x4 SWAP2 SWAP1 SWAP2 SHR SWAP1 PUSH1 0x2 SHL JUMPDEST PUSH1 0x8 DUP3 LT PUSH2 0x4AA JUMPI PUSH1 0x1 SHL JUMPDEST PUSH1 0x1 PUSH2 0x4B6 DUP3 DUP7 PUSH2 0x6B9 JUMP JUMPDEST PUSH2 0x4C0 SWAP1 DUP4 PUSH2 0x6DB JUMP JUMPDEST SWAP1 SHR SWAP1 POP PUSH1 0x1 PUSH2 0x4D0 DUP3 DUP7 PUSH2 0x6B9 JUMP JUMPDEST PUSH2 0x4DA SWAP1 DUP4 PUSH2 0x6DB JUMP JUMPDEST SWAP1 SHR SWAP1 POP PUSH1 0x1 PUSH2 0x4EA DUP3 DUP7 PUSH2 0x6B9 JUMP JUMPDEST PUSH2 0x4F4 SWAP1 DUP4 PUSH2 0x6DB JUMP JUMPDEST SWAP1 SHR SWAP1 POP PUSH1 0x1 PUSH2 0x504 DUP3 DUP7 PUSH2 0x6B9 JUMP JUMPDEST PUSH2 0x50E SWAP1 DUP4 PUSH2 0x6DB JUMP JUMPDEST SWAP1 SHR SWAP1 POP PUSH1 0x1 PUSH2 0x51E DUP3 DUP7 PUSH2 0x6B9 JUMP JUMPDEST PUSH2 0x528 SWAP1 DUP4 PUSH2 0x6DB JUMP JUMPDEST SWAP1 SHR SWAP1 POP PUSH1 0x1 PUSH2 0x538 DUP3 DUP7 PUSH2 0x6B9 JUMP JUMPDEST PUSH2 0x542 SWAP1 DUP4 PUSH2 0x6DB JUMP JUMPDEST SWAP1 SHR SWAP1 POP PUSH1 0x1 PUSH2 0x552 DUP3 DUP7 PUSH2 0x6B9 JUMP JUMPDEST PUSH2 0x55C SWAP1 DUP4 PUSH2 0x6DB JUMP JUMPDEST SWAP1 SHR SWAP1 POP PUSH1 0x0 PUSH2 0x56C DUP3 DUP7 PUSH2 0x6B9 JUMP JUMPDEST SWAP1 POP DUP1 DUP3 LT PUSH2 0x57B JUMPI DUP1 PUSH2 0x57D JUMP JUMPDEST DUP2 JUMPDEST SWAP6 SWAP5 POP POP POP POP POP JUMP JUMPDEST PUSH1 0x0 DUP2 PUSH2 0x597 DUP5 PUSH1 0x1 PUSH1 0x70 SHL PUSH2 0x3F5 JUMP JUMPDEST PUSH2 0x401 SWAP2 SWAP1 PUSH2 0x6B9 JUMP JUMPDEST PUSH1 0x0 PUSH2 0x401 DUP3 DUP5 PUSH2 0x6B9 JUMP JUMPDEST PUSH1 0x1 PUSH1 0x1 PUSH1 0xA0 SHL SUB DUP2 AND DUP2 EQ PUSH2 0x5C2 JUMPI PUSH1 0x0 DUP1 REVERT JUMPDEST POP JUMP JUMPDEST PUSH1 0x0 PUSH1 0x20 DUP3 DUP5 SUB SLT ISZERO PUSH2 0x5D7 JUMPI PUSH1 0x0 DUP1 REVERT JUMPDEST DUP2 CALLDATALOAD PUSH2 0x401 DUP2 PUSH2 0x5AD JUMP JUMPDEST PUSH1 0x0 PUSH1 0x20 DUP3 DUP5 SUB SLT ISZERO PUSH2 0x5F4 JUMPI PUSH1 0x0 DUP1 REVERT JUMPDEST DUP2 MLOAD PUSH2 0x401 DUP2 PUSH2 0x5AD JUMP JUMPDEST PUSH1 0x0 PUSH1 0x20 DUP3 DUP5 SUB SLT ISZERO PUSH2 0x611 JUMPI PUSH1 0x0 DUP1 REVERT JUMPDEST POP MLOAD SWAP2 SWAP1 POP JUMP JUMPDEST DUP1 MLOAD PUSH1 0x1 PUSH1 0x1 PUSH1 0x70 SHL SUB DUP2 AND DUP2 EQ PUSH2 0x62F JUMPI PUSH1 0x0 DUP1 REVERT JUMPDEST SWAP2 SWAP1 POP JUMP JUMPDEST PUSH1 0x0 DUP1 PUSH1 0x0 PUSH1 0x60 DUP5 DUP7 SUB SLT ISZERO PUSH2 0x649 JUMPI PUSH1 0x0 DUP1 REVERT JUMPDEST PUSH2 0x652 DUP5 PUSH2 0x618 JUMP JUMPDEST SWAP3 POP PUSH2 0x660 PUSH1 0x20 DUP6 ADD PUSH2 0x618 JUMP JUMPDEST SWAP2 POP PUSH1 0x40 DUP5 ADD MLOAD PUSH4 0xFFFFFFFF DUP2 AND DUP2 EQ PUSH2 0x679 JUMPI PUSH1 0x0 DUP1 REVERT JUMPDEST DUP1 SWAP2 POP POP SWAP3 POP SWAP3 POP SWAP3 JUMP JUMPDEST PUSH4 0x4E487B71 PUSH1 0xE0 SHL PUSH1 0x0 MSTORE PUSH1 0x11 PUSH1 0x4 MSTORE PUSH1 0x24 PUSH1 0x0 REVERT JUMPDEST PUSH1 0x0 DUP2 PUSH1 0x0 NOT DIV DUP4 GT DUP3 ISZERO ISZERO AND ISZERO PUSH2 0x6B4 JUMPI PUSH2 0x6B4 PUSH2 0x684 JUMP JUMPDEST POP MUL SWAP1 JUMP JUMPDEST PUSH1 0x0 DUP3 PUSH2 0x6D6 JUMPI PUSH4 0x4E487B71 PUSH1 0xE0 SHL PUSH1 0x0 MSTORE PUSH1 0x12 PUSH1 0x4 MSTORE PUSH1 0x24 PUSH1 0x0 REVERT JUMPDEST POP DIV SWAP1 JUMP JUMPDEST PUSH1 0x0 DUP3 NOT DUP3 GT ISZERO PUSH2 0x6EE JUMPI PUSH2 0x6EE PUSH2 0x684 JUMP JUMPDEST POP ADD SWAP1 JUMP INVALID LOG2 PUSH5 0x6970667358 0x22 SLT KECCAK256 0xD4 PUSH17 0x2779A8C161899274F98D26FAC92DB263D0 DUP6 DUP13 PUSH13 0xD23621251D042E8449F64736F PUSH13 0x634300080C0033000000000000 ",
  "sha1": "89ddd3232d2dca895f7f1da9195bed80e4c847e3",
  "source": "// SPDX-License-Identifier: MIT\npragma solidity 0.8.12;\n\nimport \"@openzeppelin/contracts/token/ERC20/IERC20.sol\";\nimport \"@openzeppelin/contracts/token/ERC20/utils/SafeERC20.sol\";\nimport \"@openzeppelin/contracts/utils/math/Math.sol\";\nimport \"@openzeppelin/contracts/utils/math/SafeMath.sol\";\nimport \"@openzeppelin/contracts/token/ERC20/extensions/IERC20Metadata.sol\";\nimport '../libraries/HomoraMath.sol';\nimport '../interfaces/IUniv2LikePair.sol';\nimport '../interfaces/IPriceCalculator.sol';\nimport '../interfaces/IPriceFeed.sol';\n\ncontract LPPriceCalculator is IPriceFeed {\n    using SafeMath for uint256;\n    using HomoraMath for uint256;\n\n    address public immutable priceCalculatorAddress;\n\n    constructor(address _priceCalculatorAddress) {\n        priceCalculatorAddress = _priceCalculatorAddress;\n    }\n\n    function getData(address pair) external view override returns (uint256) {\n        address token0 = IUniv2LikePair(pair).token0();\n        address token1 = IUniv2LikePair(pair).token1();\n        uint totalSupply = IUniv2LikePair(pair).totalSupply();\n        (uint r0, uint r1, ) = IUniv2LikePair(pair).getReserves();\n\n        uint sqrtK = HomoraMath.sqrt(r0.mul(r1)).fdiv(totalSupply);  // in 2**112\n        uint px0 = IPriceCalculator(priceCalculatorAddress).tokenPriceInUSD(token0, 1e18);\n        uint px1 = IPriceCalculator(priceCalculatorAddress).tokenPriceInUSD(token1, 1e18);\n        uint fairPriceInUSD = sqrtK.mul(2).mul(HomoraMath.sqrt(px0)).div(2**56).mul(HomoraMath.sqrt(px1)).div(2**56);\n\n        return fairPriceInUSD;\n    }\n}\n",
  "sourcePath": "contracts/priceOracle/LPPriceCalculator.sol",
  "type": "contract"
}