{
  "abi": [
    {
      "inputs": [
        {
          "internalType": "address",
          "name": "_QUOTE_USD_TOKEN",
          "type": "address"
        }
      ],
      "stateMutability": "nonpayable",
      "type": "constructor"
    },
    {
      "anonymous": false,
      "inputs": [
        {
          "indexed": true,
          "internalType": "bytes32",
          "name": "role",
          "type": "bytes32"
        },
        {
          "indexed": true,
          "internalType": "bytes32",
          "name": "previousAdminRole",
          "type": "bytes32"
        },
        {
          "indexed": true,
          "internalType": "bytes32",
          "name": "newAdminRole",
          "type": "bytes32"
        }
      ],
      "name": "RoleAdminChanged",
      "type": "event"
    },
    {
      "anonymous": false,
      "inputs": [
        {
          "indexed": true,
          "internalType": "bytes32",
          "name": "role",
          "type": "bytes32"
        },
        {
          "indexed": true,
          "internalType": "address",
          "name": "account",
          "type": "address"
        },
        {
          "indexed": true,
          "internalType": "address",
          "name": "sender",
          "type": "address"
        }
      ],
      "name": "RoleGranted",
      "type": "event"
    },
    {
      "anonymous": false,
      "inputs": [
        {
          "indexed": true,
          "internalType": "bytes32",
          "name": "role",
          "type": "bytes32"
        },
        {
          "indexed": true,
          "internalType": "address",
          "name": "account",
          "type": "address"
        },
        {
          "indexed": true,
          "internalType": "address",
          "name": "sender",
          "type": "address"
        }
      ],
      "name": "RoleRevoked",
      "type": "event"
    },
    {
      "inputs": [],
      "name": "CONFIGURATOR_ROLE",
      "outputs": [
        {
          "internalType": "bytes32",
          "name": "",
          "type": "bytes32"
        }
      ],
      "stateMutability": "view",
      "type": "function"
    },
    {
      "inputs": [],
      "name": "DEFAULT_ADMIN_ROLE",
      "outputs": [
        {
          "internalType": "bytes32",
          "name": "",
          "type": "bytes32"
        }
      ],
      "stateMutability": "view",
      "type": "function"
    },
    {
      "inputs": [],
      "name": "KEEPER_ROLE",
      "outputs": [
        {
          "internalType": "bytes32",
          "name": "",
          "type": "bytes32"
        }
      ],
      "stateMutability": "view",
      "type": "function"
    },
    {
      "inputs": [],
      "name": "QUOTE_USD_DECIMAL",
      "outputs": [
        {
          "internalType": "uint256",
          "name": "",
          "type": "uint256"
        }
      ],
      "stateMutability": "view",
      "type": "function"
    },
    {
      "inputs": [],
      "name": "QUOTE_USD_TOKEN",
      "outputs": [
        {
          "internalType": "address",
          "name": "",
          "type": "address"
        }
      ],
      "stateMutability": "view",
      "type": "function"
    },
    {
      "inputs": [],
      "name": "controller",
      "outputs": [
        {
          "internalType": "address",
          "name": "",
          "type": "address"
        }
      ],
      "stateMutability": "view",
      "type": "function"
    },
    {
      "inputs": [
        {
          "internalType": "address",
          "name": "tokenAddress",
          "type": "address"
        }
      ],
      "name": "getData",
      "outputs": [
        {
          "internalType": "uint256",
          "name": "",
          "type": "uint256"
        }
      ],
      "stateMutability": "view",
      "type": "function"
    },
    {
      "inputs": [
        {
          "internalType": "bytes32",
          "name": "role",
          "type": "bytes32"
        }
      ],
      "name": "getRoleAdmin",
      "outputs": [
        {
          "internalType": "bytes32",
          "name": "",
          "type": "bytes32"
        }
      ],
      "stateMutability": "view",
      "type": "function"
    },
    {
      "inputs": [
        {
          "internalType": "address",
          "name": "tokenAddress",
          "type": "address"
        }
      ],
      "name": "getTokenPrice",
      "outputs": [
        {
          "internalType": "uint256",
          "name": "",
          "type": "uint256"
        },
        {
          "internalType": "uint256",
          "name": "",
          "type": "uint256"
        },
        {
          "internalType": "uint32",
          "name": "",
          "type": "uint32"
        },
        {
          "internalType": "uint256",
          "name": "",
          "type": "uint256"
        }
      ],
      "stateMutability": "view",
      "type": "function"
    },
    {
      "inputs": [
        {
          "internalType": "bytes32",
          "name": "role",
          "type": "bytes32"
        },
        {
          "internalType": "address",
          "name": "account",
          "type": "address"
        }
      ],
      "name": "grantRole",
      "outputs": [],
      "stateMutability": "nonpayable",
      "type": "function"
    },
    {
      "inputs": [
        {
          "internalType": "bytes32",
          "name": "role",
          "type": "bytes32"
        },
        {
          "internalType": "address",
          "name": "account",
          "type": "address"
        }
      ],
      "name": "hasRole",
      "outputs": [
        {
          "internalType": "bool",
          "name": "",
          "type": "bool"
        }
      ],
      "stateMutability": "view",
      "type": "function"
    },
    {
      "inputs": [
        {
          "internalType": "address",
          "name": "",
          "type": "address"
        }
      ],
      "name": "priceList",
      "outputs": [
        {
          "internalType": "uint256",
          "name": "price0CumulativeLast",
          "type": "uint256"
        },
        {
          "internalType": "uint256",
          "name": "price1CumulativeLast",
          "type": "uint256"
        },
        {
          "internalType": "uint256",
          "name": "tokenValueInUSDAverage",
          "type": "uint256"
        },
        {
          "internalType": "uint32",
          "name": "timestampLast",
          "type": "uint32"
        }
      ],
      "stateMutability": "view",
      "type": "function"
    },
    {
      "inputs": [
        {
          "internalType": "bytes32",
          "name": "role",
          "type": "bytes32"
        },
        {
          "internalType": "address",
          "name": "account",
          "type": "address"
        }
      ],
      "name": "renounceRole",
      "outputs": [],
      "stateMutability": "nonpayable",
      "type": "function"
    },
    {
      "inputs": [
        {
          "internalType": "bytes32",
          "name": "role",
          "type": "bytes32"
        },
        {
          "internalType": "address",
          "name": "account",
          "type": "address"
        }
      ],
      "name": "revokeRole",
      "outputs": [],
      "stateMutability": "nonpayable",
      "type": "function"
    },
    {
      "inputs": [
        {
          "internalType": "address[]",
          "name": "tokenLPPairs",
          "type": "address[]"
        }
      ],
      "name": "setTokenLP",
      "outputs": [],
      "stateMutability": "nonpayable",
      "type": "function"
    },
    {
      "inputs": [
        {
          "internalType": "bytes4",
          "name": "interfaceId",
          "type": "bytes4"
        }
      ],
      "name": "supportsInterface",
      "outputs": [
        {
          "internalType": "bool",
          "name": "",
          "type": "bool"
        }
      ],
      "stateMutability": "view",
      "type": "function"
    },
    {
      "inputs": [
        {
          "internalType": "address",
          "name": "",
          "type": "address"
        }
      ],
      "name": "tokenLP",
      "outputs": [
        {
          "internalType": "contract IUniv2LikePair",
          "name": "",
          "type": "address"
        }
      ],
      "stateMutability": "view",
      "type": "function"
    },
    {
      "inputs": [
        {
          "internalType": "address[]",
          "name": "tokenAddress",
          "type": "address[]"
        }
      ],
      "name": "update",
      "outputs": [],
      "stateMutability": "nonpayable",
      "type": "function"
    }
  ],
  "bytecode": "60c06040523480156200001157600080fd5b5060405162001e0238038062001e028339810160408190526200003491620001c7565b6001600160a01b03811660808190526040805163313ce56760e01b8152905163313ce567916004808201926020929091908290030181865afa1580156200007f573d6000803e3d6000fd5b505050506040513d601f19601f82011682018060405250810190620000a59190620001f9565b60ff1660a052620000b860003362000117565b620000e47f3b49a237fe2d18fa4d9642b8a0e065923cceb71b797783b619a030a61d848bf03362000117565b620001107ffc8737ab85eb45125971625a9ebdb75cc78e01d5c1fa80c4c6e5203f47bc4fab3362000117565b506200021e565b62000123828262000127565b5050565b6000828152602081815260408083206001600160a01b038516845290915290205460ff1662000123576000828152602081815260408083206001600160a01b03851684529091529020805460ff19166001179055620001833390565b6001600160a01b0316816001600160a01b0316837f2f8788117e7eff1d82e926ec794901d17c78024a50270940304540a733656f0d60405160405180910390a45050565b600060208284031215620001da57600080fd5b81516001600160a01b0381168114620001f257600080fd5b9392505050565b6000602082840312156200020c57600080fd5b815160ff81168114620001f257600080fd5b60805160a051611b946200026e600039600081816102e601528181610a4601528181610a6f0152610ab10152600081816101a1015281816106e301528181610b310152610bdf0152611b946000f3fe608060405234801561001057600080fd5b50600436106101165760003560e01c80635e3418bc116100a2578063bfe8933d11610071578063bfe8933d146102e1578063d02641a014610308578063d547741f14610347578063d853015e1461035a578063f77c47911461038157600080fd5b80635e3418bc1461028a578063613e15711461029d57806391d14854146102c6578063a217fddf146102d957600080fd5b80633367fd2d116100e95780633367fd2d1461019c578063364bc15a146101db57806336568abe1461020257806338266b221461021557806341f8b6361461022857600080fd5b806301ffc9a71461011b578063248a9ca3146101435780632f2ff15d14610174578063317f17dc14610189575b600080fd5b61012e610129366004611668565b610394565b60405190151581526020015b60405180910390f35b610166610151366004611692565b60009081526020819052604090206001015490565b60405190815260200161013a565b6101876101823660046116ce565b6103cb565b005b610187610197366004611714565b6103f6565b6101c37f000000000000000000000000000000000000000000000000000000000000000081565b6040516001600160a01b03909116815260200161013a565b6101667ffc8737ab85eb45125971625a9ebdb75cc78e01d5c1fa80c4c6e5203f47bc4fab81565b6101876102103660046116ce565b610466565b6101666102233660046117d9565b6104e9565b6102646102363660046117d9565b6001602081905260009182526040909120805491810154600282015460039092015490919063ffffffff1684565b6040805194855260208501939093529183015263ffffffff16606082015260800161013a565b610187610298366004611714565b61050a565b6101c36102ab3660046117d9565b6002602052600090815260409020546001600160a01b031681565b61012e6102d43660046116ce565b6105b4565b610166600081565b6101667f000000000000000000000000000000000000000000000000000000000000000081565b61031b6103163660046117d9565b6105dd565b60405161013a9493929190938452602084019290925263ffffffff166040830152606082015260800190565b6101876103553660046116ce565b610870565b6101667f3b49a237fe2d18fa4d9642b8a0e065923cceb71b797783b619a030a61d848bf081565b6003546101c3906001600160a01b031681565b60006001600160e01b03198216637965db0b60e01b14806103c557506301ffc9a760e01b6001600160e01b03198316145b92915050565b6000828152602081905260409020600101546103e78133610896565b6103f183836108fa565b505050565b7ffc8737ab85eb45125971625a9ebdb75cc78e01d5c1fa80c4c6e5203f47bc4fab6104218133610896565b815160005b8181101561046057610450848281518110610443576104436117f6565b602002602001015161097e565b61045981611822565b9050610426565b50505050565b6001600160a01b03811633146104db5760405162461bcd60e51b815260206004820152602f60248201527f416363657373436f6e74726f6c3a2063616e206f6e6c792072656e6f756e636560448201526e103937b632b9903337b91039b2b63360891b60648201526084015b60405180910390fd5b6104e582826109db565b5050565b6000806104f5836105dd565b935050505061050381610a40565b9392505050565b7f3b49a237fe2d18fa4d9642b8a0e065923cceb71b797783b619a030a61d848bf06105358133610896565b600282516105439190611853565b1561054d57600080fd5b815160005b81811015610460576105a284828151811061056f5761056f6117f6565b6020026020010151858360016105859190611867565b81518110610595576105956117f6565b6020026020010151610aef565b6105ad816002611867565b9050610552565b6000918252602082815260408084206001600160a01b0393909316845291905290205460ff1690565b6001600160a01b03808216600090815260026020526040812054909182918291829182918291829161060f9116610e6b565b6001600160a01b038b16600090815260016020526040902060030154929550909350915063ffffffff8083169116141561068557505050506001600160a01b03841660009081526001602081905260409091208054918101546003820154600290920154929550935063ffffffff169150610869565b6001600160a01b0388166000908152600160205260408120600301546106b19063ffffffff168361187f565b6001600160a01b038a8116600090815260026020908152604080832054815163d21220a760e01b8152915195965092947f0000000000000000000000000000000000000000000000000000000000000000851694939093169263d21220a7926004808401939192918290030181865afa158015610732573d6000803e3d6000fd5b505050506040513d601f19601f8201168201806040525081019061075691906118a4565b6001600160a01b0316146107d65760405180602001604052808363ffffffff16600160008e6001600160a01b03166001600160a01b0316815260200190815260200160002060010154876107aa91906118c1565b6107bc90670de0b6b3a76400006118d8565b6107c691906118f7565b6001600160e01b03169052610836565b60408051602080820183526001600160a01b038d16600090815260019091529190912054819063ffffffff85169061080e90896118c1565b61082090670de0b6b3a76400006118d8565b61082a91906118f7565b6001600160e01b031690525b9050848484610850610849856001611062565b5160701c90565b929b5090995097506001600160901b0316955050505050505b9193509193565b60008281526020819052604090206001015461088c8133610896565b6103f183836109db565b6108a082826105b4565b6104e5576108b8816001600160a01b03166014611100565b6108c3836020611100565b6040516020016108d4929190611937565b60408051601f198184030181529082905262461bcd60e51b82526104d2916004016119ac565b61090482826105b4565b6104e5576000828152602081815260408083206001600160a01b03851684529091529020805460ff1916600117905561093a3390565b6001600160a01b0316816001600160a01b0316837f2f8788117e7eff1d82e926ec794901d17c78024a50270940304540a733656f0d60405160405180910390a45050565b60008060008061098d856105dd565b6001600160a01b03909816600090815260016020819052604090912060038101805463ffffffff90941663ffffffff1990941693909317909255928155918201556002019490945550505050565b6109e582826105b4565b156104e5576000828152602081815260408083206001600160a01b0385168085529252808320805460ff1916905551339285917ff6391f5c32d9c69d2a47ea670b442974b53935d1edc7fd64eb21e047a839171b9190a45050565b600060127f000000000000000000000000000000000000000000000000000000000000000011610aaa57610a957f000000000000000000000000000000000000000000000000000000000000000060126118c1565b610aa090600a611abb565b6103c590836118d8565b610ad560127f00000000000000000000000000000000000000000000000000000000000000006118c1565b610ae090600a611abb565b6103c590836118f7565b919050565b6001600160a01b0382811660009081526002602090815260409182902080546001600160a01b0319168585169081179091558251630dfe168160e01b815292517f0000000000000000000000000000000000000000000000000000000000000000909416939092630dfe16819260048083019391928290030181865afa158015610b7d573d6000803e3d6000fd5b505050506040513d601f19601f82011682018060405250810190610ba191906118a4565b6001600160a01b03161480610c5c57506001600160a01b0382811660009081526002602090815260409182902054825163d21220a760e01b815292517f0000000000000000000000000000000000000000000000000000000000000000851694919091169263d21220a79260048083019391928290030181865afa158015610c2d573d6000803e3d6000fd5b505050506040513d601f19601f82011682018060405250810190610c5191906118a4565b6001600160a01b0316145b610c975760405162461bcd60e51b815260206004820152600c60248201526b3737afbab9b22fba37b5b2b760a11b60448201526064016104d2565b6001600160a01b038083166000908152600260209081526040808320548151635909c0d560e01b8152915193941692635909c0d5926004808401939192918290030181865afa158015610cee573d6000803e3d6000fd5b505050506040513d601f19601f82011682018060405250810190610d129190611ac7565b6001600160a01b038085166000908152600260209081526040808320548151635a3d549360e01b8152915195965092949290931692635a3d549392600480830193928290030181865afa158015610d6d573d6000803e3d6000fd5b505050506040513d601f19601f82011682018060405250810190610d919190611ac7565b6001600160a01b03808616600090815260026020526040808220548151630240bc6b60e21b8152915194955091939190921691630902f1ac9160048083019260609291908290030181865afa158015610dee573d6000803e3d6000fd5b505050506040513d601f19601f82011682018060405250810190610e129190611af7565b6001600160a01b03881660009081526001602081905260408220600281019290925560038201805463ffffffff191663ffffffff851617905587825581018690559093509150610e6390508661097e565b505050505050565b6000806000610e7861129c565b9050836001600160a01b0316635909c0d56040518163ffffffff1660e01b8152600401602060405180830381865afa158015610eb8573d6000803e3d6000fd5b505050506040513d601f19601f82011682018060405250810190610edc9190611ac7565b9250836001600160a01b0316635a3d54936040518163ffffffff1660e01b8152600401602060405180830381865afa158015610f1c573d6000803e3d6000fd5b505050506040513d601f19601f82011682018060405250810190610f409190611ac7565b91506000806000866001600160a01b0316630902f1ac6040518163ffffffff1660e01b8152600401606060405180830381865afa158015610f85573d6000803e3d6000fd5b505050506040513d601f19601f82011682018060405250810190610fa99190611af7565b9250925092508363ffffffff168163ffffffff1614611058576000610fce828661187f565b90508063ffffffff16610ff3846001600160701b0316866001600160701b03166112b2565b5161100791906001600160e01b03166118d8565b6110119088611867565b96508063ffffffff16611036856001600160701b0316856001600160701b03166112b2565b5161104a91906001600160e01b03166118d8565b6110549087611867565b9550505b5050509193909250565b604080516020810190915260008152600082158061109f575083516001600160e01b03168361109181836118d8565b925061109d90836118f7565b145b6110eb5760405162461bcd60e51b815260206004820152601960248201527f4669786564506f696e743a3a6d756c3a206f766572666c6f770000000000000060448201526064016104d2565b60408051602081019091529081529392505050565b6060600061110f8360026118d8565b61111a906002611867565b67ffffffffffffffff811115611132576111326116fe565b6040519080825280601f01601f19166020018201604052801561115c576020820181803683370190505b509050600360fc1b81600081518110611177576111776117f6565b60200101906001600160f81b031916908160001a905350600f60fb1b816001815181106111a6576111a66117f6565b60200101906001600160f81b031916908160001a90535060006111ca8460026118d8565b6111d5906001611867565b90505b600181111561124d576f181899199a1a9b1b9c1cb0b131b232b360811b85600f1660108110611209576112096117f6565b1a60f81b82828151811061121f5761121f6117f6565b60200101906001600160f81b031916908160001a90535060049490941c9361124681611b47565b90506111d8565b5083156105035760405162461bcd60e51b815260206004820181905260248201527f537472696e67733a20686578206c656e67746820696e73756666696369656e7460448201526064016104d2565b60006112ad64010000000042611853565b905090565b604080516020810190915260008152600082116113205760405162461bcd60e51b815260206004820152602660248201527f4669786564506f696e743a3a6672616374696f6e3a206469766973696f6e206260448201526579207a65726f60d01b60648201526084016104d2565b8261133a57506040805160208101909152600081526103c5565b6001600160901b0383116113d157600061135883607086901b6118f7565b90506001600160e01b038111156113b15760405162461bcd60e51b815260206004820152601e60248201527f4669786564506f696e743a3a6672616374696f6e3a206f766572666c6f77000060448201526064016104d2565b6040518060200160405280826001600160e01b03168152509150506103c5565b600061135884600160701b8560008060006113ec86866114a5565b91509150600084806114005761140061183d565b86880990508281111561141b576114186001836118c1565b91505b61142581846118c1565b9250816114405761143685846118f7565b9350505050610503565b84821061148f5760405162461bcd60e51b815260206004820152601a60248201527f46756c6c4d6174683a2046554c4c4449565f4f564552464c4f5700000000000060448201526064016104d2565b61149a8383876114e7565b979650505050505050565b6000808060001984860990506114bb84866118d8565b92506114c783826118c1565b9150828110156114df576114dc6001836118c1565b91505b509250929050565b6000806114f683196001611867565b8316905061150481846118f7565b925061151081866118f7565b94508061151f81196001611867565b61152991906118f7565b611534906001611867565b61153e90856118d8565b6115489086611867565b9450600161155681856118d8565b6115619060026118c1565b61156b90826118d8565b905061157781856118d8565b6115829060026118c1565b61158c90826118d8565b905061159881856118d8565b6115a39060026118c1565b6115ad90826118d8565b90506115b981856118d8565b6115c49060026118c1565b6115ce90826118d8565b90506115da81856118d8565b6115e59060026118c1565b6115ef90826118d8565b90506115fb81856118d8565b6116069060026118c1565b61161090826118d8565b905061161c81856118d8565b6116279060026118c1565b61163190826118d8565b905061163d81856118d8565b6116489060026118c1565b61165290826118d8565b905061165e81876118d8565b9695505050505050565b60006020828403121561167a57600080fd5b81356001600160e01b03198116811461050357600080fd5b6000602082840312156116a457600080fd5b5035919050565b6001600160a01b03811681146116c057600080fd5b50565b8035610aea816116ab565b600080604083850312156116e157600080fd5b8235915060208301356116f3816116ab565b809150509250929050565b634e487b7160e01b600052604160045260246000fd5b6000602080838503121561172757600080fd5b823567ffffffffffffffff8082111561173f57600080fd5b818501915085601f83011261175357600080fd5b813581811115611765576117656116fe565b8060051b604051601f19603f8301168101818110858211171561178a5761178a6116fe565b6040529182528482019250838101850191888311156117a857600080fd5b938501935b828510156117cd576117be856116c3565b845293850193928501926117ad565b98975050505050505050565b6000602082840312156117eb57600080fd5b8135610503816116ab565b634e487b7160e01b600052603260045260246000fd5b634e487b7160e01b600052601160045260246000fd5b60006000198214156118365761183661180c565b5060010190565b634e487b7160e01b600052601260045260246000fd5b6000826118625761186261183d565b500690565b6000821982111561187a5761187a61180c565b500190565b600063ffffffff8381169083168181101561189c5761189c61180c565b039392505050565b6000602082840312156118b657600080fd5b8151610503816116ab565b6000828210156118d3576118d361180c565b500390565b60008160001904831182151516156118f2576118f261180c565b500290565b6000826119065761190661183d565b500490565b60005b8381101561192657818101518382015260200161190e565b838111156104605750506000910152565b7f416363657373436f6e74726f6c3a206163636f756e742000000000000000000081526000835161196f81601785016020880161190b565b7001034b99036b4b9b9b4b733903937b6329607d1b60179184019182015283516119a081602884016020880161190b565b01602801949350505050565b60208152600082518060208401526119cb81604085016020870161190b565b601f01601f19169190910160400192915050565b600181815b808511156114df578160001904821115611a0057611a0061180c565b80851615611a0d57918102915b93841c93908002906119e4565b600082611a29575060016103c5565b81611a36575060006103c5565b8160018114611a4c5760028114611a5657611a72565b60019150506103c5565b60ff841115611a6757611a6761180c565b50506001821b6103c5565b5060208310610133831016604e8410600b8410161715611a95575081810a6103c5565b611a9f83836119df565b8060001904821115611ab357611ab361180c565b029392505050565b60006105038383611a1a565b600060208284031215611ad957600080fd5b5051919050565b80516001600160701b0381168114610aea57600080fd5b600080600060608486031215611b0c57600080fd5b611b1584611ae0565b9250611b2360208501611ae0565b9150604084015163ffffffff81168114611b3c57600080fd5b809150509250925092565b600081611b5657611b5661180c565b50600019019056fea2646970667358221220e2f2b869068cc2033c8ceb0db0a8ebeee8c5cda27c1958a41d9804a0c7a15cd964736f6c634300080c0033",
  "bytecodeSha1": "b3099e40bf60d17c8b25c08859e36672ae17a042",
  "compiler": {
    "evm_version": "istanbul",
    "optimizer": {
      "enabled": true,
      "runs": 200
    },
    "version": "0.8.12+commit.f00d7308"
  },
  "contractName": "MarketOracle",
  "language": "Solidity",
  "natspec": {
    "kind": "dev",
    "methods": {
      "getRoleAdmin(bytes32)": {
        "details": "Returns the admin role that controls `role`. See {grantRole} and {revokeRole}. To change a role's admin, use {_setRoleAdmin}."
      },
      "grantRole(bytes32,address)": {
        "details": "Grants `role` to `account`. If `account` had not been already granted `role`, emits a {RoleGranted} event. Requirements: - the caller must have ``role``'s admin role."
      },
      "hasRole(bytes32,address)": {
        "details": "Returns `true` if `account` has been granted `role`."
      },
      "renounceRole(bytes32,address)": {
        "details": "Revokes `role` from the calling account. Roles are often managed via {grantRole} and {revokeRole}: this function's purpose is to provide a mechanism for accounts to lose their privileges if they are compromised (such as when a trusted device is misplaced). If the calling account had been revoked `role`, emits a {RoleRevoked} event. Requirements: - the caller must be `account`."
      },
      "revokeRole(bytes32,address)": {
        "details": "Revokes `role` from `account`. If `account` had been granted `role`, emits a {RoleRevoked} event. Requirements: - the caller must have ``role``'s admin role."
      },
      "supportsInterface(bytes4)": {
        "details": "See {IERC165-supportsInterface}."
      }
    },
    "version": 1
  },
  "opcodes": "PUSH1 0x80 PUSH1 0x40 MSTORE CALLVALUE DUP1 ISZERO PUSH2 0x10 JUMPI PUSH1 0x0 DUP1 REVERT JUMPDEST POP PUSH1 0x4 CALLDATASIZE LT PUSH2 0x116 JUMPI PUSH1 0x0 CALLDATALOAD PUSH1 0xE0 SHR DUP1 PUSH4 0x5E3418BC GT PUSH2 0xA2 JUMPI DUP1 PUSH4 0xBFE8933D GT PUSH2 0x71 JUMPI DUP1 PUSH4 0xBFE8933D EQ PUSH2 0x2E1 JUMPI DUP1 PUSH4 0xD02641A0 EQ PUSH2 0x308 JUMPI DUP1 PUSH4 0xD547741F EQ PUSH2 0x347 JUMPI DUP1 PUSH4 0xD853015E EQ PUSH2 0x35A JUMPI DUP1 PUSH4 0xF77C4791 EQ PUSH2 0x381 JUMPI PUSH1 0x0 DUP1 REVERT JUMPDEST DUP1 PUSH4 0x5E3418BC EQ PUSH2 0x28A JUMPI DUP1 PUSH4 0x613E1571 EQ PUSH2 0x29D JUMPI DUP1 PUSH4 0x91D14854 EQ PUSH2 0x2C6 JUMPI DUP1 PUSH4 0xA217FDDF EQ PUSH2 0x2D9 JUMPI PUSH1 0x0 DUP1 REVERT JUMPDEST DUP1 PUSH4 0x3367FD2D GT PUSH2 0xE9 JUMPI DUP1 PUSH4 0x3367FD2D EQ PUSH2 0x19C JUMPI DUP1 PUSH4 0x364BC15A EQ PUSH2 0x1DB JUMPI DUP1 PUSH4 0x36568ABE EQ PUSH2 0x202 JUMPI DUP1 PUSH4 0x38266B22 EQ PUSH2 0x215 JUMPI DUP1 PUSH4 0x41F8B636 EQ PUSH2 0x228 JUMPI PUSH1 0x0 DUP1 REVERT JUMPDEST DUP1 PUSH4 0x1FFC9A7 EQ PUSH2 0x11B JUMPI DUP1 PUSH4 0x248A9CA3 EQ PUSH2 0x143 JUMPI DUP1 PUSH4 0x2F2FF15D EQ PUSH2 0x174 JUMPI DUP1 PUSH4 0x317F17DC EQ PUSH2 0x189 JUMPI JUMPDEST PUSH1 0x0 DUP1 REVERT JUMPDEST PUSH2 0x12E PUSH2 0x129 CALLDATASIZE PUSH1 0x4 PUSH2 0x1668 JUMP JUMPDEST PUSH2 0x394 JUMP JUMPDEST PUSH1 0x40 MLOAD SWAP1 ISZERO ISZERO DUP2 MSTORE PUSH1 0x20 ADD JUMPDEST PUSH1 0x40 MLOAD DUP1 SWAP2 SUB SWAP1 RETURN JUMPDEST PUSH2 0x166 PUSH2 0x151 CALLDATASIZE PUSH1 0x4 PUSH2 0x1692 JUMP JUMPDEST PUSH1 0x0 SWAP1 DUP2 MSTORE PUSH1 0x20 DUP2 SWAP1 MSTORE PUSH1 0x40 SWAP1 KECCAK256 PUSH1 0x1 ADD SLOAD SWAP1 JUMP JUMPDEST PUSH1 0x40 MLOAD SWAP1 DUP2 MSTORE PUSH1 0x20 ADD PUSH2 0x13A JUMP JUMPDEST PUSH2 0x187 PUSH2 0x182 CALLDATASIZE PUSH1 0x4 PUSH2 0x16CE JUMP JUMPDEST PUSH2 0x3CB JUMP JUMPDEST STOP JUMPDEST PUSH2 0x187 PUSH2 0x197 CALLDATASIZE PUSH1 0x4 PUSH2 0x1714 JUMP JUMPDEST PUSH2 0x3F6 JUMP JUMPDEST PUSH2 0x1C3 PUSH32 0x0 DUP2 JUMP JUMPDEST PUSH1 0x40 MLOAD PUSH1 0x1 PUSH1 0x1 PUSH1 0xA0 SHL SUB SWAP1 SWAP2 AND DUP2 MSTORE PUSH1 0x20 ADD PUSH2 0x13A JUMP JUMPDEST PUSH2 0x166 PUSH32 0xFC8737AB85EB45125971625A9EBDB75CC78E01D5C1FA80C4C6E5203F47BC4FAB DUP2 JUMP JUMPDEST PUSH2 0x187 PUSH2 0x210 CALLDATASIZE PUSH1 0x4 PUSH2 0x16CE JUMP JUMPDEST PUSH2 0x466 JUMP JUMPDEST PUSH2 0x166 PUSH2 0x223 CALLDATASIZE PUSH1 0x4 PUSH2 0x17D9 JUMP JUMPDEST PUSH2 0x4E9 JUMP JUMPDEST PUSH2 0x264 PUSH2 0x236 CALLDATASIZE PUSH1 0x4 PUSH2 0x17D9 JUMP JUMPDEST PUSH1 0x1 PUSH1 0x20 DUP2 SWAP1 MSTORE PUSH1 0x0 SWAP2 DUP3 MSTORE PUSH1 0x40 SWAP1 SWAP2 KECCAK256 DUP1 SLOAD SWAP2 DUP2 ADD SLOAD PUSH1 0x2 DUP3 ADD SLOAD PUSH1 0x3 SWAP1 SWAP3 ADD SLOAD SWAP1 SWAP2 SWAP1 PUSH4 0xFFFFFFFF AND DUP5 JUMP JUMPDEST PUSH1 0x40 DUP1 MLOAD SWAP5 DUP6 MSTORE PUSH1 0x20 DUP6 ADD SWAP4 SWAP1 SWAP4 MSTORE SWAP2 DUP4 ADD MSTORE PUSH4 0xFFFFFFFF AND PUSH1 0x60 DUP3 ADD MSTORE PUSH1 0x80 ADD PUSH2 0x13A JUMP JUMPDEST PUSH2 0x187 PUSH2 0x298 CALLDATASIZE PUSH1 0x4 PUSH2 0x1714 JUMP JUMPDEST PUSH2 0x50A JUMP JUMPDEST PUSH2 0x1C3 PUSH2 0x2AB CALLDATASIZE PUSH1 0x4 PUSH2 0x17D9 JUMP JUMPDEST PUSH1 0x2 PUSH1 0x20 MSTORE PUSH1 0x0 SWAP1 DUP2 MSTORE PUSH1 0x40 SWAP1 KECCAK256 SLOAD PUSH1 0x1 PUSH1 0x1 PUSH1 0xA0 SHL SUB AND DUP2 JUMP JUMPDEST PUSH2 0x12E PUSH2 0x2D4 CALLDATASIZE PUSH1 0x4 PUSH2 0x16CE JUMP JUMPDEST PUSH2 0x5B4 JUMP JUMPDEST PUSH2 0x166 PUSH1 0x0 DUP2 JUMP JUMPDEST PUSH2 0x166 PUSH32 0x0 DUP2 JUMP JUMPDEST PUSH2 0x31B PUSH2 0x316 CALLDATASIZE PUSH1 0x4 PUSH2 0x17D9 JUMP JUMPDEST PUSH2 0x5DD JUMP JUMPDEST PUSH1 0x40 MLOAD PUSH2 0x13A SWAP5 SWAP4 SWAP3 SWAP2 SWAP1 SWAP4 DUP5 MSTORE PUSH1 0x20 DUP5 ADD SWAP3 SWAP1 SWAP3 MSTORE PUSH4 0xFFFFFFFF AND PUSH1 0x40 DUP4 ADD MSTORE PUSH1 0x60 DUP3 ADD MSTORE PUSH1 0x80 ADD SWAP1 JUMP JUMPDEST PUSH2 0x187 PUSH2 0x355 CALLDATASIZE PUSH1 0x4 PUSH2 0x16CE JUMP JUMPDEST PUSH2 0x870 JUMP JUMPDEST PUSH2 0x166 PUSH32 0x3B49A237FE2D18FA4D9642B8A0E065923CCEB71B797783B619A030A61D848BF0 DUP2 JUMP JUMPDEST PUSH1 0x3 SLOAD PUSH2 0x1C3 SWAP1 PUSH1 0x1 PUSH1 0x1 PUSH1 0xA0 SHL SUB AND DUP2 JUMP JUMPDEST PUSH1 0x0 PUSH1 0x1 PUSH1 0x1 PUSH1 0xE0 SHL SUB NOT DUP3 AND PUSH4 0x7965DB0B PUSH1 0xE0 SHL EQ DUP1 PUSH2 0x3C5 JUMPI POP PUSH4 0x1FFC9A7 PUSH1 0xE0 SHL PUSH1 0x1 PUSH1 0x1 PUSH1 0xE0 SHL SUB NOT DUP4 AND EQ JUMPDEST SWAP3 SWAP2 POP POP JUMP JUMPDEST PUSH1 0x0 DUP3 DUP2 MSTORE PUSH1 0x20 DUP2 SWAP1 MSTORE PUSH1 0x40 SWAP1 KECCAK256 PUSH1 0x1 ADD SLOAD PUSH2 0x3E7 DUP2 CALLER PUSH2 0x896 JUMP JUMPDEST PUSH2 0x3F1 DUP4 DUP4 PUSH2 0x8FA JUMP JUMPDEST POP POP POP JUMP JUMPDEST PUSH32 0xFC8737AB85EB45125971625A9EBDB75CC78E01D5C1FA80C4C6E5203F47BC4FAB PUSH2 0x421 DUP2 CALLER PUSH2 0x896 JUMP JUMPDEST DUP2 MLOAD PUSH1 0x0 JUMPDEST DUP2 DUP2 LT ISZERO PUSH2 0x460 JUMPI PUSH2 0x450 DUP5 DUP3 DUP2 MLOAD DUP2 LT PUSH2 0x443 JUMPI PUSH2 0x443 PUSH2 0x17F6 JUMP JUMPDEST PUSH1 0x20 MUL PUSH1 0x20 ADD ADD MLOAD PUSH2 0x97E JUMP JUMPDEST PUSH2 0x459 DUP2 PUSH2 0x1822 JUMP JUMPDEST SWAP1 POP PUSH2 0x426 JUMP JUMPDEST POP POP POP POP JUMP JUMPDEST PUSH1 0x1 PUSH1 0x1 PUSH1 0xA0 SHL SUB DUP2 AND CALLER EQ PUSH2 0x4DB JUMPI PUSH1 0x40 MLOAD PUSH3 0x461BCD PUSH1 0xE5 SHL DUP2 MSTORE PUSH1 0x20 PUSH1 0x4 DUP3 ADD MSTORE PUSH1 0x2F PUSH1 0x24 DUP3 ADD MSTORE PUSH32 0x416363657373436F6E74726F6C3A2063616E206F6E6C792072656E6F756E6365 PUSH1 0x44 DUP3 ADD MSTORE PUSH15 0x103937B632B9903337B91039B2B633 PUSH1 0x89 SHL PUSH1 0x64 DUP3 ADD MSTORE PUSH1 0x84 ADD JUMPDEST PUSH1 0x40 MLOAD DUP1 SWAP2 SUB SWAP1 REVERT JUMPDEST PUSH2 0x4E5 DUP3 DUP3 PUSH2 0x9DB JUMP JUMPDEST POP POP JUMP JUMPDEST PUSH1 0x0 DUP1 PUSH2 0x4F5 DUP4 PUSH2 0x5DD JUMP JUMPDEST SWAP4 POP POP POP POP PUSH2 0x503 DUP2 PUSH2 0xA40 JUMP JUMPDEST SWAP4 SWAP3 POP POP POP JUMP JUMPDEST PUSH32 0x3B49A237FE2D18FA4D9642B8A0E065923CCEB71B797783B619A030A61D848BF0 PUSH2 0x535 DUP2 CALLER PUSH2 0x896 JUMP JUMPDEST PUSH1 0x2 DUP3 MLOAD PUSH2 0x543 SWAP2 SWAP1 PUSH2 0x1853 JUMP JUMPDEST ISZERO PUSH2 0x54D JUMPI PUSH1 0x0 DUP1 REVERT JUMPDEST DUP2 MLOAD PUSH1 0x0 JUMPDEST DUP2 DUP2 LT ISZERO PUSH2 0x460 JUMPI PUSH2 0x5A2 DUP5 DUP3 DUP2 MLOAD DUP2 LT PUSH2 0x56F JUMPI PUSH2 0x56F PUSH2 0x17F6 JUMP JUMPDEST PUSH1 0x20 MUL PUSH1 0x20 ADD ADD MLOAD DUP6 DUP4 PUSH1 0x1 PUSH2 0x585 SWAP2 SWAP1 PUSH2 0x1867 JUMP JUMPDEST DUP2 MLOAD DUP2 LT PUSH2 0x595 JUMPI PUSH2 0x595 PUSH2 0x17F6 JUMP JUMPDEST PUSH1 0x20 MUL PUSH1 0x20 ADD ADD MLOAD PUSH2 0xAEF JUMP JUMPDEST PUSH2 0x5AD DUP2 PUSH1 0x2 PUSH2 0x1867 JUMP JUMPDEST SWAP1 POP PUSH2 0x552 JUMP JUMPDEST PUSH1 0x0 SWAP2 DUP3 MSTORE PUSH1 0x20 DUP3 DUP2 MSTORE PUSH1 0x40 DUP1 DUP5 KECCAK256 PUSH1 0x1 PUSH1 0x1 PUSH1 0xA0 SHL SUB SWAP4 SWAP1 SWAP4 AND DUP5 MSTORE SWAP2 SWAP1 MSTORE SWAP1 KECCAK256 SLOAD PUSH1 0xFF AND SWAP1 JUMP JUMPDEST PUSH1 0x1 PUSH1 0x1 PUSH1 0xA0 SHL SUB DUP1 DUP3 AND PUSH1 0x0 SWAP1 DUP2 MSTORE PUSH1 0x2 PUSH1 0x20 MSTORE PUSH1 0x40 DUP2 KECCAK256 SLOAD SWAP1 SWAP2 DUP3 SWAP2 DUP3 SWAP2 DUP3 SWAP2 DUP3 SWAP2 DUP3 SWAP2 DUP3 SWAP2 PUSH2 0x60F SWAP2 AND PUSH2 0xE6B JUMP JUMPDEST PUSH1 0x1 PUSH1 0x1 PUSH1 0xA0 SHL SUB DUP12 AND PUSH1 0x0 SWAP1 DUP2 MSTORE PUSH1 0x1 PUSH1 0x20 MSTORE PUSH1 0x40 SWAP1 KECCAK256 PUSH1 0x3 ADD SLOAD SWAP3 SWAP6 POP SWAP1 SWAP4 POP SWAP2 POP PUSH4 0xFFFFFFFF DUP1 DUP4 AND SWAP2 AND EQ ISZERO PUSH2 0x685 JUMPI POP POP POP POP PUSH1 0x1 PUSH1 0x1 PUSH1 0xA0 SHL SUB DUP5 AND PUSH1 0x0 SWAP1 DUP2 MSTORE PUSH1 0x1 PUSH1 0x20 DUP2 SWAP1 MSTORE PUSH1 0x40 SWAP1 SWAP2 KECCAK256 DUP1 SLOAD SWAP2 DUP2 ADD SLOAD PUSH1 0x3 DUP3 ADD SLOAD PUSH1 0x2 SWAP1 SWAP3 ADD SLOAD SWAP3 SWAP6 POP SWAP4 POP PUSH4 0xFFFFFFFF AND SWAP2 POP PUSH2 0x869 JUMP JUMPDEST PUSH1 0x1 PUSH1 0x1 PUSH1 0xA0 SHL SUB DUP9 AND PUSH1 0x0 SWAP1 DUP2 MSTORE PUSH1 0x1 PUSH1 0x20 MSTORE PUSH1 0x40 DUP2 KECCAK256 PUSH1 0x3 ADD SLOAD PUSH2 0x6B1 SWAP1 PUSH4 0xFFFFFFFF AND DUP4 PUSH2 0x187F JUMP JUMPDEST PUSH1 0x1 PUSH1 0x1 PUSH1 0xA0 SHL SUB DUP11 DUP2 AND PUSH1 0x0 SWAP1 DUP2 MSTORE PUSH1 0x2 PUSH1 0x20 SWAP1 DUP2 MSTORE PUSH1 0x40 DUP1 DUP4 KECCAK256 SLOAD DUP2 MLOAD PUSH4 0xD21220A7 PUSH1 0xE0 SHL DUP2 MSTORE SWAP2 MLOAD SWAP6 SWAP7 POP SWAP3 SWAP5 PUSH32 0x0 DUP6 AND SWAP5 SWAP4 SWAP1 SWAP4 AND SWAP3 PUSH4 0xD21220A7 SWAP3 PUSH1 0x4 DUP1 DUP5 ADD SWAP4 SWAP2 SWAP3 SWAP2 DUP3 SWAP1 SUB ADD DUP2 DUP7 GAS STATICCALL ISZERO DUP1 ISZERO PUSH2 0x732 JUMPI RETURNDATASIZE PUSH1 0x0 DUP1 RETURNDATACOPY RETURNDATASIZE PUSH1 0x0 REVERT JUMPDEST POP POP POP POP PUSH1 0x40 MLOAD RETURNDATASIZE PUSH1 0x1F NOT PUSH1 0x1F DUP3 ADD AND DUP3 ADD DUP1 PUSH1 0x40 MSTORE POP DUP2 ADD SWAP1 PUSH2 0x756 SWAP2 SWAP1 PUSH2 0x18A4 JUMP JUMPDEST PUSH1 0x1 PUSH1 0x1 PUSH1 0xA0 SHL SUB AND EQ PUSH2 0x7D6 JUMPI PUSH1 0x40 MLOAD DUP1 PUSH1 0x20 ADD PUSH1 0x40 MSTORE DUP1 DUP4 PUSH4 0xFFFFFFFF AND PUSH1 0x1 PUSH1 0x0 DUP15 PUSH1 0x1 PUSH1 0x1 PUSH1 0xA0 SHL SUB AND PUSH1 0x1 PUSH1 0x1 PUSH1 0xA0 SHL SUB AND DUP2 MSTORE PUSH1 0x20 ADD SWAP1 DUP2 MSTORE PUSH1 0x20 ADD PUSH1 0x0 KECCAK256 PUSH1 0x1 ADD SLOAD DUP8 PUSH2 0x7AA SWAP2 SWAP1 PUSH2 0x18C1 JUMP JUMPDEST PUSH2 0x7BC SWAP1 PUSH8 0xDE0B6B3A7640000 PUSH2 0x18D8 JUMP JUMPDEST PUSH2 0x7C6 SWAP2 SWAP1 PUSH2 0x18F7 JUMP JUMPDEST PUSH1 0x1 PUSH1 0x1 PUSH1 0xE0 SHL SUB AND SWAP1 MSTORE PUSH2 0x836 JUMP JUMPDEST PUSH1 0x40 DUP1 MLOAD PUSH1 0x20 DUP1 DUP3 ADD DUP4 MSTORE PUSH1 0x1 PUSH1 0x1 PUSH1 0xA0 SHL SUB DUP14 AND PUSH1 0x0 SWAP1 DUP2 MSTORE PUSH1 0x1 SWAP1 SWAP2 MSTORE SWAP2 SWAP1 SWAP2 KECCAK256 SLOAD DUP2 SWAP1 PUSH4 0xFFFFFFFF DUP6 AND SWAP1 PUSH2 0x80E SWAP1 DUP10 PUSH2 0x18C1 JUMP JUMPDEST PUSH2 0x820 SWAP1 PUSH8 0xDE0B6B3A7640000 PUSH2 0x18D8 JUMP JUMPDEST PUSH2 0x82A SWAP2 SWAP1 PUSH2 0x18F7 JUMP JUMPDEST PUSH1 0x1 PUSH1 0x1 PUSH1 0xE0 SHL SUB AND SWAP1 MSTORE JUMPDEST SWAP1 POP DUP5 DUP5 DUP5 PUSH2 0x850 PUSH2 0x849 DUP6 PUSH1 0x1 PUSH2 0x1062 JUMP JUMPDEST MLOAD PUSH1 0x70 SHR SWAP1 JUMP JUMPDEST SWAP3 SWAP12 POP SWAP1 SWAP10 POP SWAP8 POP PUSH1 0x1 PUSH1 0x1 PUSH1 0x90 SHL SUB AND SWAP6 POP POP POP POP POP POP JUMPDEST SWAP2 SWAP4 POP SWAP2 SWAP4 JUMP JUMPDEST PUSH1 0x0 DUP3 DUP2 MSTORE PUSH1 0x20 DUP2 SWAP1 MSTORE PUSH1 0x40 SWAP1 KECCAK256 PUSH1 0x1 ADD SLOAD PUSH2 0x88C DUP2 CALLER PUSH2 0x896 JUMP JUMPDEST PUSH2 0x3F1 DUP4 DUP4 PUSH2 0x9DB JUMP JUMPDEST PUSH2 0x8A0 DUP3 DUP3 PUSH2 0x5B4 JUMP JUMPDEST PUSH2 0x4E5 JUMPI PUSH2 0x8B8 DUP2 PUSH1 0x1 PUSH1 0x1 PUSH1 0xA0 SHL SUB AND PUSH1 0x14 PUSH2 0x1100 JUMP JUMPDEST PUSH2 0x8C3 DUP4 PUSH1 0x20 PUSH2 0x1100 JUMP JUMPDEST PUSH1 0x40 MLOAD PUSH1 0x20 ADD PUSH2 0x8D4 SWAP3 SWAP2 SWAP1 PUSH2 0x1937 JUMP JUMPDEST PUSH1 0x40 DUP1 MLOAD PUSH1 0x1F NOT DUP2 DUP5 SUB ADD DUP2 MSTORE SWAP1 DUP3 SWAP1 MSTORE PUSH3 0x461BCD PUSH1 0xE5 SHL DUP3 MSTORE PUSH2 0x4D2 SWAP2 PUSH1 0x4 ADD PUSH2 0x19AC JUMP JUMPDEST PUSH2 0x904 DUP3 DUP3 PUSH2 0x5B4 JUMP JUMPDEST PUSH2 0x4E5 JUMPI PUSH1 0x0 DUP3 DUP2 MSTORE PUSH1 0x20 DUP2 DUP2 MSTORE PUSH1 0x40 DUP1 DUP4 KECCAK256 PUSH1 0x1 PUSH1 0x1 PUSH1 0xA0 SHL SUB DUP6 AND DUP5 MSTORE SWAP1 SWAP2 MSTORE SWAP1 KECCAK256 DUP1 SLOAD PUSH1 0xFF NOT AND PUSH1 0x1 OR SWAP1 SSTORE PUSH2 0x93A CALLER SWAP1 JUMP JUMPDEST PUSH1 0x1 PUSH1 0x1 PUSH1 0xA0 SHL SUB AND DUP2 PUSH1 0x1 PUSH1 0x1 PUSH1 0xA0 SHL SUB AND DUP4 PUSH32 0x2F8788117E7EFF1D82E926EC794901D17C78024A50270940304540A733656F0D PUSH1 0x40 MLOAD PUSH1 0x40 MLOAD DUP1 SWAP2 SUB SWAP1 LOG4 POP POP JUMP JUMPDEST PUSH1 0x0 DUP1 PUSH1 0x0 DUP1 PUSH2 0x98D DUP6 PUSH2 0x5DD JUMP JUMPDEST PUSH1 0x1 PUSH1 0x1 PUSH1 0xA0 SHL SUB SWAP1 SWAP9 AND PUSH1 0x0 SWAP1 DUP2 MSTORE PUSH1 0x1 PUSH1 0x20 DUP2 SWAP1 MSTORE PUSH1 0x40 SWAP1 SWAP2 KECCAK256 PUSH1 0x3 DUP2 ADD DUP1 SLOAD PUSH4 0xFFFFFFFF SWAP1 SWAP5 AND PUSH4 0xFFFFFFFF NOT SWAP1 SWAP5 AND SWAP4 SWAP1 SWAP4 OR SWAP1 SWAP3 SSTORE SWAP3 DUP2 SSTORE SWAP2 DUP3 ADD SSTORE PUSH1 0x2 ADD SWAP5 SWAP1 SWAP5 SSTORE POP POP POP POP JUMP JUMPDEST PUSH2 0x9E5 DUP3 DUP3 PUSH2 0x5B4 JUMP JUMPDEST ISZERO PUSH2 0x4E5 JUMPI PUSH1 0x0 DUP3 DUP2 MSTORE PUSH1 0x20 DUP2 DUP2 MSTORE PUSH1 0x40 DUP1 DUP4 KECCAK256 PUSH1 0x1 PUSH1 0x1 PUSH1 0xA0 SHL SUB DUP6 AND DUP1 DUP6 MSTORE SWAP3 MSTORE DUP1 DUP4 KECCAK256 DUP1 SLOAD PUSH1 0xFF NOT AND SWAP1 SSTORE MLOAD CALLER SWAP3 DUP6 SWAP2 PUSH32 0xF6391F5C32D9C69D2A47EA670B442974B53935D1EDC7FD64EB21E047A839171B SWAP2 SWAP1 LOG4 POP POP JUMP JUMPDEST PUSH1 0x0 PUSH1 0x12 PUSH32 0x0 GT PUSH2 0xAAA JUMPI PUSH2 0xA95 PUSH32 0x0 PUSH1 0x12 PUSH2 0x18C1 JUMP JUMPDEST PUSH2 0xAA0 SWAP1 PUSH1 0xA PUSH2 0x1ABB JUMP JUMPDEST PUSH2 0x3C5 SWAP1 DUP4 PUSH2 0x18D8 JUMP JUMPDEST PUSH2 0xAD5 PUSH1 0x12 PUSH32 0x0 PUSH2 0x18C1 JUMP JUMPDEST PUSH2 0xAE0 SWAP1 PUSH1 0xA PUSH2 0x1ABB JUMP JUMPDEST PUSH2 0x3C5 SWAP1 DUP4 PUSH2 0x18F7 JUMP JUMPDEST SWAP2 SWAP1 POP JUMP JUMPDEST PUSH1 0x1 PUSH1 0x1 PUSH1 0xA0 SHL SUB DUP3 DUP2 AND PUSH1 0x0 SWAP1 DUP2 MSTORE PUSH1 0x2 PUSH1 0x20 SWAP1 DUP2 MSTORE PUSH1 0x40 SWAP2 DUP3 SWAP1 KECCAK256 DUP1 SLOAD PUSH1 0x1 PUSH1 0x1 PUSH1 0xA0 SHL SUB NOT AND DUP6 DUP6 AND SWAP1 DUP2 OR SWAP1 SWAP2 SSTORE DUP3 MLOAD PUSH4 0xDFE1681 PUSH1 0xE0 SHL DUP2 MSTORE SWAP3 MLOAD PUSH32 0x0 SWAP1 SWAP5 AND SWAP4 SWAP1 SWAP3 PUSH4 0xDFE1681 SWAP3 PUSH1 0x4 DUP1 DUP4 ADD SWAP4 SWAP2 SWAP3 DUP3 SWAP1 SUB ADD DUP2 DUP7 GAS STATICCALL ISZERO DUP1 ISZERO PUSH2 0xB7D JUMPI RETURNDATASIZE PUSH1 0x0 DUP1 RETURNDATACOPY RETURNDATASIZE PUSH1 0x0 REVERT JUMPDEST POP POP POP POP PUSH1 0x40 MLOAD RETURNDATASIZE PUSH1 0x1F NOT PUSH1 0x1F DUP3 ADD AND DUP3 ADD DUP1 PUSH1 0x40 MSTORE POP DUP2 ADD SWAP1 PUSH2 0xBA1 SWAP2 SWAP1 PUSH2 0x18A4 JUMP JUMPDEST PUSH1 0x1 PUSH1 0x1 PUSH1 0xA0 SHL SUB AND EQ DUP1 PUSH2 0xC5C JUMPI POP PUSH1 0x1 PUSH1 0x1 PUSH1 0xA0 SHL SUB DUP3 DUP2 AND PUSH1 0x0 SWAP1 DUP2 MSTORE PUSH1 0x2 PUSH1 0x20 SWAP1 DUP2 MSTORE PUSH1 0x40 SWAP2 DUP3 SWAP1 KECCAK256 SLOAD DUP3 MLOAD PUSH4 0xD21220A7 PUSH1 0xE0 SHL DUP2 MSTORE SWAP3 MLOAD PUSH32 0x0 DUP6 AND SWAP5 SWAP2 SWAP1 SWAP2 AND SWAP3 PUSH4 0xD21220A7 SWAP3 PUSH1 0x4 DUP1 DUP4 ADD SWAP4 SWAP2 SWAP3 DUP3 SWAP1 SUB ADD DUP2 DUP7 GAS STATICCALL ISZERO DUP1 ISZERO PUSH2 0xC2D JUMPI RETURNDATASIZE PUSH1 0x0 DUP1 RETURNDATACOPY RETURNDATASIZE PUSH1 0x0 REVERT JUMPDEST POP POP POP POP PUSH1 0x40 MLOAD RETURNDATASIZE PUSH1 0x1F NOT PUSH1 0x1F DUP3 ADD AND DUP3 ADD DUP1 PUSH1 0x40 MSTORE POP DUP2 ADD SWAP1 PUSH2 0xC51 SWAP2 SWAP1 PUSH2 0x18A4 JUMP JUMPDEST PUSH1 0x1 PUSH1 0x1 PUSH1 0xA0 SHL SUB AND EQ JUMPDEST PUSH2 0xC97 JUMPI PUSH1 0x40 MLOAD PUSH3 0x461BCD PUSH1 0xE5 SHL DUP2 MSTORE PUSH1 0x20 PUSH1 0x4 DUP3 ADD MSTORE PUSH1 0xC PUSH1 0x24 DUP3 ADD MSTORE PUSH12 0x3737AFBAB9B22FBA37B5B2B7 PUSH1 0xA1 SHL PUSH1 0x44 DUP3 ADD MSTORE PUSH1 0x64 ADD PUSH2 0x4D2 JUMP JUMPDEST PUSH1 0x1 PUSH1 0x1 PUSH1 0xA0 SHL SUB DUP1 DUP4 AND PUSH1 0x0 SWAP1 DUP2 MSTORE PUSH1 0x2 PUSH1 0x20 SWAP1 DUP2 MSTORE PUSH1 0x40 DUP1 DUP4 KECCAK256 SLOAD DUP2 MLOAD PUSH4 0x5909C0D5 PUSH1 0xE0 SHL DUP2 MSTORE SWAP2 MLOAD SWAP4 SWAP5 AND SWAP3 PUSH4 0x5909C0D5 SWAP3 PUSH1 0x4 DUP1 DUP5 ADD SWAP4 SWAP2 SWAP3 SWAP2 DUP3 SWAP1 SUB ADD DUP2 DUP7 GAS STATICCALL ISZERO DUP1 ISZERO PUSH2 0xCEE JUMPI RETURNDATASIZE PUSH1 0x0 DUP1 RETURNDATACOPY RETURNDATASIZE PUSH1 0x0 REVERT JUMPDEST POP POP POP POP PUSH1 0x40 MLOAD RETURNDATASIZE PUSH1 0x1F NOT PUSH1 0x1F DUP3 ADD AND DUP3 ADD DUP1 PUSH1 0x40 MSTORE POP DUP2 ADD SWAP1 PUSH2 0xD12 SWAP2 SWAP1 PUSH2 0x1AC7 JUMP JUMPDEST PUSH1 0x1 PUSH1 0x1 PUSH1 0xA0 SHL SUB DUP1 DUP6 AND PUSH1 0x0 SWAP1 DUP2 MSTORE PUSH1 0x2 PUSH1 0x20 SWAP1 DUP2 MSTORE PUSH1 0x40 DUP1 DUP4 KECCAK256 SLOAD DUP2 MLOAD PUSH4 0x5A3D5493 PUSH1 0xE0 SHL DUP2 MSTORE SWAP2 MLOAD SWAP6 SWAP7 POP SWAP3 SWAP5 SWAP3 SWAP1 SWAP4 AND SWAP3 PUSH4 0x5A3D5493 SWAP3 PUSH1 0x4 DUP1 DUP4 ADD SWAP4 SWAP3 DUP3 SWAP1 SUB ADD DUP2 DUP7 GAS STATICCALL ISZERO DUP1 ISZERO PUSH2 0xD6D JUMPI RETURNDATASIZE PUSH1 0x0 DUP1 RETURNDATACOPY RETURNDATASIZE PUSH1 0x0 REVERT JUMPDEST POP POP POP POP PUSH1 0x40 MLOAD RETURNDATASIZE PUSH1 0x1F NOT PUSH1 0x1F DUP3 ADD AND DUP3 ADD DUP1 PUSH1 0x40 MSTORE POP DUP2 ADD SWAP1 PUSH2 0xD91 SWAP2 SWAP1 PUSH2 0x1AC7 JUMP JUMPDEST PUSH1 0x1 PUSH1 0x1 PUSH1 0xA0 SHL SUB DUP1 DUP7 AND PUSH1 0x0 SWAP1 DUP2 MSTORE PUSH1 0x2 PUSH1 0x20 MSTORE PUSH1 0x40 DUP1 DUP3 KECCAK256 SLOAD DUP2 MLOAD PUSH4 0x240BC6B PUSH1 0xE2 SHL DUP2 MSTORE SWAP2 MLOAD SWAP5 SWAP6 POP SWAP2 SWAP4 SWAP2 SWAP1 SWAP3 AND SWAP2 PUSH4 0x902F1AC SWAP2 PUSH1 0x4 DUP1 DUP4 ADD SWAP3 PUSH1 0x60 SWAP3 SWAP2 SWAP1 DUP3 SWAP1 SUB ADD DUP2 DUP7 GAS STATICCALL ISZERO DUP1 ISZERO PUSH2 0xDEE JUMPI RETURNDATASIZE PUSH1 0x0 DUP1 RETURNDATACOPY RETURNDATASIZE PUSH1 0x0 REVERT JUMPDEST POP POP POP POP PUSH1 0x40 MLOAD RETURNDATASIZE PUSH1 0x1F NOT PUSH1 0x1F DUP3 ADD AND DUP3 ADD DUP1 PUSH1 0x40 MSTORE POP DUP2 ADD SWAP1 PUSH2 0xE12 SWAP2 SWAP1 PUSH2 0x1AF7 JUMP JUMPDEST PUSH1 0x1 PUSH1 0x1 PUSH1 0xA0 SHL SUB DUP9 AND PUSH1 0x0 SWAP1 DUP2 MSTORE PUSH1 0x1 PUSH1 0x20 DUP2 SWAP1 MSTORE PUSH1 0x40 DUP3 KECCAK256 PUSH1 0x2 DUP2 ADD SWAP3 SWAP1 SWAP3 SSTORE PUSH1 0x3 DUP3 ADD DUP1 SLOAD PUSH4 0xFFFFFFFF NOT AND PUSH4 0xFFFFFFFF DUP6 AND OR SWAP1 SSTORE DUP8 DUP3 SSTORE DUP2 ADD DUP7 SWAP1 SSTORE SWAP1 SWAP4 POP SWAP2 POP PUSH2 0xE63 SWAP1 POP DUP7 PUSH2 0x97E JUMP JUMPDEST POP POP POP POP POP POP JUMP JUMPDEST PUSH1 0x0 DUP1 PUSH1 0x0 PUSH2 0xE78 PUSH2 0x129C JUMP JUMPDEST SWAP1 POP DUP4 PUSH1 0x1 PUSH1 0x1 PUSH1 0xA0 SHL SUB AND PUSH4 0x5909C0D5 PUSH1 0x40 MLOAD DUP2 PUSH4 0xFFFFFFFF AND PUSH1 0xE0 SHL DUP2 MSTORE PUSH1 0x4 ADD PUSH1 0x20 PUSH1 0x40 MLOAD DUP1 DUP4 SUB DUP2 DUP7 GAS STATICCALL ISZERO DUP1 ISZERO PUSH2 0xEB8 JUMPI RETURNDATASIZE PUSH1 0x0 DUP1 RETURNDATACOPY RETURNDATASIZE PUSH1 0x0 REVERT JUMPDEST POP POP POP POP PUSH1 0x40 MLOAD RETURNDATASIZE PUSH1 0x1F NOT PUSH1 0x1F DUP3 ADD AND DUP3 ADD DUP1 PUSH1 0x40 MSTORE POP DUP2 ADD SWAP1 PUSH2 0xEDC SWAP2 SWAP1 PUSH2 0x1AC7 JUMP JUMPDEST SWAP3 POP DUP4 PUSH1 0x1 PUSH1 0x1 PUSH1 0xA0 SHL SUB AND PUSH4 0x5A3D5493 PUSH1 0x40 MLOAD DUP2 PUSH4 0xFFFFFFFF AND PUSH1 0xE0 SHL DUP2 MSTORE PUSH1 0x4 ADD PUSH1 0x20 PUSH1 0x40 MLOAD DUP1 DUP4 SUB DUP2 DUP7 GAS STATICCALL ISZERO DUP1 ISZERO PUSH2 0xF1C JUMPI RETURNDATASIZE PUSH1 0x0 DUP1 RETURNDATACOPY RETURNDATASIZE PUSH1 0x0 REVERT JUMPDEST POP POP POP POP PUSH1 0x40 MLOAD RETURNDATASIZE PUSH1 0x1F NOT PUSH1 0x1F DUP3 ADD AND DUP3 ADD DUP1 PUSH1 0x40 MSTORE POP DUP2 ADD SWAP1 PUSH2 0xF40 SWAP2 SWAP1 PUSH2 0x1AC7 JUMP JUMPDEST SWAP2 POP PUSH1 0x0 DUP1 PUSH1 0x0 DUP7 PUSH1 0x1 PUSH1 0x1 PUSH1 0xA0 SHL SUB AND PUSH4 0x902F1AC PUSH1 0x40 MLOAD DUP2 PUSH4 0xFFFFFFFF AND PUSH1 0xE0 SHL DUP2 MSTORE PUSH1 0x4 ADD PUSH1 0x60 PUSH1 0x40 MLOAD DUP1 DUP4 SUB DUP2 DUP7 GAS STATICCALL ISZERO DUP1 ISZERO PUSH2 0xF85 JUMPI RETURNDATASIZE PUSH1 0x0 DUP1 RETURNDATACOPY RETURNDATASIZE PUSH1 0x0 REVERT JUMPDEST POP POP POP POP PUSH1 0x40 MLOAD RETURNDATASIZE PUSH1 0x1F NOT PUSH1 0x1F DUP3 ADD AND DUP3 ADD DUP1 PUSH1 0x40 MSTORE POP DUP2 ADD SWAP1 PUSH2 0xFA9 SWAP2 SWAP1 PUSH2 0x1AF7 JUMP JUMPDEST SWAP3 POP SWAP3 POP SWAP3 POP DUP4 PUSH4 0xFFFFFFFF AND DUP2 PUSH4 0xFFFFFFFF AND EQ PUSH2 0x1058 JUMPI PUSH1 0x0 PUSH2 0xFCE DUP3 DUP7 PUSH2 0x187F JUMP JUMPDEST SWAP1 POP DUP1 PUSH4 0xFFFFFFFF AND PUSH2 0xFF3 DUP5 PUSH1 0x1 PUSH1 0x1 PUSH1 0x70 SHL SUB AND DUP7 PUSH1 0x1 PUSH1 0x1 PUSH1 0x70 SHL SUB AND PUSH2 0x12B2 JUMP JUMPDEST MLOAD PUSH2 0x1007 SWAP2 SWAP1 PUSH1 0x1 PUSH1 0x1 PUSH1 0xE0 SHL SUB AND PUSH2 0x18D8 JUMP JUMPDEST PUSH2 0x1011 SWAP1 DUP9 PUSH2 0x1867 JUMP JUMPDEST SWAP7 POP DUP1 PUSH4 0xFFFFFFFF AND PUSH2 0x1036 DUP6 PUSH1 0x1 PUSH1 0x1 PUSH1 0x70 SHL SUB AND DUP6 PUSH1 0x1 PUSH1 0x1 PUSH1 0x70 SHL SUB AND PUSH2 0x12B2 JUMP JUMPDEST MLOAD PUSH2 0x104A SWAP2 SWAP1 PUSH1 0x1 PUSH1 0x1 PUSH1 0xE0 SHL SUB AND PUSH2 0x18D8 JUMP JUMPDEST PUSH2 0x1054 SWAP1 DUP8 PUSH2 0x1867 JUMP JUMPDEST SWAP6 POP POP JUMPDEST POP POP POP SWAP2 SWAP4 SWAP1 SWAP3 POP JUMP JUMPDEST PUSH1 0x40 DUP1 MLOAD PUSH1 0x20 DUP2 ADD SWAP1 SWAP2 MSTORE PUSH1 0x0 DUP2 MSTORE PUSH1 0x0 DUP3 ISZERO DUP1 PUSH2 0x109F JUMPI POP DUP4 MLOAD PUSH1 0x1 PUSH1 0x1 PUSH1 0xE0 SHL SUB AND DUP4 PUSH2 0x1091 DUP2 DUP4 PUSH2 0x18D8 JUMP JUMPDEST SWAP3 POP PUSH2 0x109D SWAP1 DUP4 PUSH2 0x18F7 JUMP JUMPDEST EQ JUMPDEST PUSH2 0x10EB JUMPI PUSH1 0x40 MLOAD PUSH3 0x461BCD PUSH1 0xE5 SHL DUP2 MSTORE PUSH1 0x20 PUSH1 0x4 DUP3 ADD MSTORE PUSH1 0x19 PUSH1 0x24 DUP3 ADD MSTORE PUSH32 0x4669786564506F696E743A3A6D756C3A206F766572666C6F7700000000000000 PUSH1 0x44 DUP3 ADD MSTORE PUSH1 0x64 ADD PUSH2 0x4D2 JUMP JUMPDEST PUSH1 0x40 DUP1 MLOAD PUSH1 0x20 DUP2 ADD SWAP1 SWAP2 MSTORE SWAP1 DUP2 MSTORE SWAP4 SWAP3 POP POP POP JUMP JUMPDEST PUSH1 0x60 PUSH1 0x0 PUSH2 0x110F DUP4 PUSH1 0x2 PUSH2 0x18D8 JUMP JUMPDEST PUSH2 0x111A SWAP1 PUSH1 0x2 PUSH2 0x1867 JUMP JUMPDEST PUSH8 0xFFFFFFFFFFFFFFFF DUP2 GT ISZERO PUSH2 0x1132 JUMPI PUSH2 0x1132 PUSH2 0x16FE JUMP JUMPDEST PUSH1 0x40 MLOAD SWAP1 DUP1 DUP3 MSTORE DUP1 PUSH1 0x1F ADD PUSH1 0x1F NOT AND PUSH1 0x20 ADD DUP3 ADD PUSH1 0x40 MSTORE DUP1 ISZERO PUSH2 0x115C JUMPI PUSH1 0x20 DUP3 ADD DUP2 DUP1 CALLDATASIZE DUP4 CALLDATACOPY ADD SWAP1 POP JUMPDEST POP SWAP1 POP PUSH1 0x3 PUSH1 0xFC SHL DUP2 PUSH1 0x0 DUP2 MLOAD DUP2 LT PUSH2 0x1177 JUMPI PUSH2 0x1177 PUSH2 0x17F6 JUMP JUMPDEST PUSH1 0x20 ADD ADD SWAP1 PUSH1 0x1 PUSH1 0x1 PUSH1 0xF8 SHL SUB NOT AND SWAP1 DUP2 PUSH1 0x0 BYTE SWAP1 MSTORE8 POP PUSH1 0xF PUSH1 0xFB SHL DUP2 PUSH1 0x1 DUP2 MLOAD DUP2 LT PUSH2 0x11A6 JUMPI PUSH2 0x11A6 PUSH2 0x17F6 JUMP JUMPDEST PUSH1 0x20 ADD ADD SWAP1 PUSH1 0x1 PUSH1 0x1 PUSH1 0xF8 SHL SUB NOT AND SWAP1 DUP2 PUSH1 0x0 BYTE SWAP1 MSTORE8 POP PUSH1 0x0 PUSH2 0x11CA DUP5 PUSH1 0x2 PUSH2 0x18D8 JUMP JUMPDEST PUSH2 0x11D5 SWAP1 PUSH1 0x1 PUSH2 0x1867 JUMP JUMPDEST SWAP1 POP JUMPDEST PUSH1 0x1 DUP2 GT ISZERO PUSH2 0x124D JUMPI PUSH16 0x181899199A1A9B1B9C1CB0B131B232B3 PUSH1 0x81 SHL DUP6 PUSH1 0xF AND PUSH1 0x10 DUP2 LT PUSH2 0x1209 JUMPI PUSH2 0x1209 PUSH2 0x17F6 JUMP JUMPDEST BYTE PUSH1 0xF8 SHL DUP3 DUP3 DUP2 MLOAD DUP2 LT PUSH2 0x121F JUMPI PUSH2 0x121F PUSH2 0x17F6 JUMP JUMPDEST PUSH1 0x20 ADD ADD SWAP1 PUSH1 0x1 PUSH1 0x1 PUSH1 0xF8 SHL SUB NOT AND SWAP1 DUP2 PUSH1 0x0 BYTE SWAP1 MSTORE8 POP PUSH1 0x4 SWAP5 SWAP1 SWAP5 SHR SWAP4 PUSH2 0x1246 DUP2 PUSH2 0x1B47 JUMP JUMPDEST SWAP1 POP PUSH2 0x11D8 JUMP JUMPDEST POP DUP4 ISZERO PUSH2 0x503 JUMPI PUSH1 0x40 MLOAD PUSH3 0x461BCD PUSH1 0xE5 SHL DUP2 MSTORE PUSH1 0x20 PUSH1 0x4 DUP3 ADD DUP2 SWAP1 MSTORE PUSH1 0x24 DUP3 ADD MSTORE PUSH32 0x537472696E67733A20686578206C656E67746820696E73756666696369656E74 PUSH1 0x44 DUP3 ADD MSTORE PUSH1 0x64 ADD PUSH2 0x4D2 JUMP JUMPDEST PUSH1 0x0 PUSH2 0x12AD PUSH5 0x100000000 TIMESTAMP PUSH2 0x1853 JUMP JUMPDEST SWAP1 POP SWAP1 JUMP JUMPDEST PUSH1 0x40 DUP1 MLOAD PUSH1 0x20 DUP2 ADD SWAP1 SWAP2 MSTORE PUSH1 0x0 DUP2 MSTORE PUSH1 0x0 DUP3 GT PUSH2 0x1320 JUMPI PUSH1 0x40 MLOAD PUSH3 0x461BCD PUSH1 0xE5 SHL DUP2 MSTORE PUSH1 0x20 PUSH1 0x4 DUP3 ADD MSTORE PUSH1 0x26 PUSH1 0x24 DUP3 ADD MSTORE PUSH32 0x4669786564506F696E743A3A6672616374696F6E3A206469766973696F6E2062 PUSH1 0x44 DUP3 ADD MSTORE PUSH6 0x79207A65726F PUSH1 0xD0 SHL PUSH1 0x64 DUP3 ADD MSTORE PUSH1 0x84 ADD PUSH2 0x4D2 JUMP JUMPDEST DUP3 PUSH2 0x133A JUMPI POP PUSH1 0x40 DUP1 MLOAD PUSH1 0x20 DUP2 ADD SWAP1 SWAP2 MSTORE PUSH1 0x0 DUP2 MSTORE PUSH2 0x3C5 JUMP JUMPDEST PUSH1 0x1 PUSH1 0x1 PUSH1 0x90 SHL SUB DUP4 GT PUSH2 0x13D1 JUMPI PUSH1 0x0 PUSH2 0x1358 DUP4 PUSH1 0x70 DUP7 SWAP1 SHL PUSH2 0x18F7 JUMP JUMPDEST SWAP1 POP PUSH1 0x1 PUSH1 0x1 PUSH1 0xE0 SHL SUB DUP2 GT ISZERO PUSH2 0x13B1 JUMPI PUSH1 0x40 MLOAD PUSH3 0x461BCD PUSH1 0xE5 SHL DUP2 MSTORE PUSH1 0x20 PUSH1 0x4 DUP3 ADD MSTORE PUSH1 0x1E PUSH1 0x24 DUP3 ADD MSTORE PUSH32 0x4669786564506F696E743A3A6672616374696F6E3A206F766572666C6F770000 PUSH1 0x44 DUP3 ADD MSTORE PUSH1 0x64 ADD PUSH2 0x4D2 JUMP JUMPDEST PUSH1 0x40 MLOAD DUP1 PUSH1 0x20 ADD PUSH1 0x40 MSTORE DUP1 DUP3 PUSH1 0x1 PUSH1 0x1 PUSH1 0xE0 SHL SUB AND DUP2 MSTORE POP SWAP2 POP POP PUSH2 0x3C5 JUMP JUMPDEST PUSH1 0x0 PUSH2 0x1358 DUP5 PUSH1 0x1 PUSH1 0x70 SHL DUP6 PUSH1 0x0 DUP1 PUSH1 0x0 PUSH2 0x13EC DUP7 DUP7 PUSH2 0x14A5 JUMP JUMPDEST SWAP2 POP SWAP2 POP PUSH1 0x0 DUP5 DUP1 PUSH2 0x1400 JUMPI PUSH2 0x1400 PUSH2 0x183D JUMP JUMPDEST DUP7 DUP9 MULMOD SWAP1 POP DUP3 DUP2 GT ISZERO PUSH2 0x141B JUMPI PUSH2 0x1418 PUSH1 0x1 DUP4 PUSH2 0x18C1 JUMP JUMPDEST SWAP2 POP JUMPDEST PUSH2 0x1425 DUP2 DUP5 PUSH2 0x18C1 JUMP JUMPDEST SWAP3 POP DUP2 PUSH2 0x1440 JUMPI PUSH2 0x1436 DUP6 DUP5 PUSH2 0x18F7 JUMP JUMPDEST SWAP4 POP POP POP POP PUSH2 0x503 JUMP JUMPDEST DUP5 DUP3 LT PUSH2 0x148F JUMPI PUSH1 0x40 MLOAD PUSH3 0x461BCD PUSH1 0xE5 SHL DUP2 MSTORE PUSH1 0x20 PUSH1 0x4 DUP3 ADD MSTORE PUSH1 0x1A PUSH1 0x24 DUP3 ADD MSTORE PUSH32 0x46756C6C4D6174683A2046554C4C4449565F4F564552464C4F57000000000000 PUSH1 0x44 DUP3 ADD MSTORE PUSH1 0x64 ADD PUSH2 0x4D2 JUMP JUMPDEST PUSH2 0x149A DUP4 DUP4 DUP8 PUSH2 0x14E7 JUMP JUMPDEST SWAP8 SWAP7 POP POP POP POP POP POP POP JUMP JUMPDEST PUSH1 0x0 DUP1 DUP1 PUSH1 0x0 NOT DUP5 DUP7 MULMOD SWAP1 POP PUSH2 0x14BB DUP5 DUP7 PUSH2 0x18D8 JUMP JUMPDEST SWAP3 POP PUSH2 0x14C7 DUP4 DUP3 PUSH2 0x18C1 JUMP JUMPDEST SWAP2 POP DUP3 DUP2 LT ISZERO PUSH2 0x14DF JUMPI PUSH2 0x14DC PUSH1 0x1 DUP4 PUSH2 0x18C1 JUMP JUMPDEST SWAP2 POP JUMPDEST POP SWAP3 POP SWAP3 SWAP1 POP JUMP JUMPDEST PUSH1 0x0 DUP1 PUSH2 0x14F6 DUP4 NOT PUSH1 0x1 PUSH2 0x1867 JUMP JUMPDEST DUP4 AND SWAP1 POP PUSH2 0x1504 DUP2 DUP5 PUSH2 0x18F7 JUMP JUMPDEST SWAP3 POP PUSH2 0x1510 DUP2 DUP7 PUSH2 0x18F7 JUMP JUMPDEST SWAP5 POP DUP1 PUSH2 0x151F DUP2 NOT PUSH1 0x1 PUSH2 0x1867 JUMP JUMPDEST PUSH2 0x1529 SWAP2 SWAP1 PUSH2 0x18F7 JUMP JUMPDEST PUSH2 0x1534 SWAP1 PUSH1 0x1 PUSH2 0x1867 JUMP JUMPDEST PUSH2 0x153E SWAP1 DUP6 PUSH2 0x18D8 JUMP JUMPDEST PUSH2 0x1548 SWAP1 DUP7 PUSH2 0x1867 JUMP JUMPDEST SWAP5 POP PUSH1 0x1 PUSH2 0x1556 DUP2 DUP6 PUSH2 0x18D8 JUMP JUMPDEST PUSH2 0x1561 SWAP1 PUSH1 0x2 PUSH2 0x18C1 JUMP JUMPDEST PUSH2 0x156B SWAP1 DUP3 PUSH2 0x18D8 JUMP JUMPDEST SWAP1 POP PUSH2 0x1577 DUP2 DUP6 PUSH2 0x18D8 JUMP JUMPDEST PUSH2 0x1582 SWAP1 PUSH1 0x2 PUSH2 0x18C1 JUMP JUMPDEST PUSH2 0x158C SWAP1 DUP3 PUSH2 0x18D8 JUMP JUMPDEST SWAP1 POP PUSH2 0x1598 DUP2 DUP6 PUSH2 0x18D8 JUMP JUMPDEST PUSH2 0x15A3 SWAP1 PUSH1 0x2 PUSH2 0x18C1 JUMP JUMPDEST PUSH2 0x15AD SWAP1 DUP3 PUSH2 0x18D8 JUMP JUMPDEST SWAP1 POP PUSH2 0x15B9 DUP2 DUP6 PUSH2 0x18D8 JUMP JUMPDEST PUSH2 0x15C4 SWAP1 PUSH1 0x2 PUSH2 0x18C1 JUMP JUMPDEST PUSH2 0x15CE SWAP1 DUP3 PUSH2 0x18D8 JUMP JUMPDEST SWAP1 POP PUSH2 0x15DA DUP2 DUP6 PUSH2 0x18D8 JUMP JUMPDEST PUSH2 0x15E5 SWAP1 PUSH1 0x2 PUSH2 0x18C1 JUMP JUMPDEST PUSH2 0x15EF SWAP1 DUP3 PUSH2 0x18D8 JUMP JUMPDEST SWAP1 POP PUSH2 0x15FB DUP2 DUP6 PUSH2 0x18D8 JUMP JUMPDEST PUSH2 0x1606 SWAP1 PUSH1 0x2 PUSH2 0x18C1 JUMP JUMPDEST PUSH2 0x1610 SWAP1 DUP3 PUSH2 0x18D8 JUMP JUMPDEST SWAP1 POP PUSH2 0x161C DUP2 DUP6 PUSH2 0x18D8 JUMP JUMPDEST PUSH2 0x1627 SWAP1 PUSH1 0x2 PUSH2 0x18C1 JUMP JUMPDEST PUSH2 0x1631 SWAP1 DUP3 PUSH2 0x18D8 JUMP JUMPDEST SWAP1 POP PUSH2 0x163D DUP2 DUP6 PUSH2 0x18D8 JUMP JUMPDEST PUSH2 0x1648 SWAP1 PUSH1 0x2 PUSH2 0x18C1 JUMP JUMPDEST PUSH2 0x1652 SWAP1 DUP3 PUSH2 0x18D8 JUMP JUMPDEST SWAP1 POP PUSH2 0x165E DUP2 DUP8 PUSH2 0x18D8 JUMP JUMPDEST SWAP7 SWAP6 POP POP POP POP POP POP JUMP JUMPDEST PUSH1 0x0 PUSH1 0x20 DUP3 DUP5 SUB SLT ISZERO PUSH2 0x167A JUMPI PUSH1 0x0 DUP1 REVERT JUMPDEST DUP2 CALLDATALOAD PUSH1 0x1 PUSH1 0x1 PUSH1 0xE0 SHL SUB NOT DUP2 AND DUP2 EQ PUSH2 0x503 JUMPI PUSH1 0x0 DUP1 REVERT JUMPDEST PUSH1 0x0 PUSH1 0x20 DUP3 DUP5 SUB SLT ISZERO PUSH2 0x16A4 JUMPI PUSH1 0x0 DUP1 REVERT JUMPDEST POP CALLDATALOAD SWAP2 SWAP1 POP JUMP JUMPDEST PUSH1 0x1 PUSH1 0x1 PUSH1 0xA0 SHL SUB DUP2 AND DUP2 EQ PUSH2 0x16C0 JUMPI PUSH1 0x0 DUP1 REVERT JUMPDEST POP JUMP JUMPDEST DUP1 CALLDATALOAD PUSH2 0xAEA DUP2 PUSH2 0x16AB JUMP JUMPDEST PUSH1 0x0 DUP1 PUSH1 0x40 DUP4 DUP6 SUB SLT ISZERO PUSH2 0x16E1 JUMPI PUSH1 0x0 DUP1 REVERT JUMPDEST DUP3 CALLDATALOAD SWAP2 POP PUSH1 0x20 DUP4 ADD CALLDATALOAD PUSH2 0x16F3 DUP2 PUSH2 0x16AB JUMP JUMPDEST DUP1 SWAP2 POP POP SWAP3 POP SWAP3 SWAP1 POP JUMP JUMPDEST PUSH4 0x4E487B71 PUSH1 0xE0 SHL PUSH1 0x0 MSTORE PUSH1 0x41 PUSH1 0x4 MSTORE PUSH1 0x24 PUSH1 0x0 REVERT JUMPDEST PUSH1 0x0 PUSH1 0x20 DUP1 DUP4 DUP6 SUB SLT ISZERO PUSH2 0x1727 JUMPI PUSH1 0x0 DUP1 REVERT JUMPDEST DUP3 CALLDATALOAD PUSH8 0xFFFFFFFFFFFFFFFF DUP1 DUP3 GT ISZERO PUSH2 0x173F JUMPI PUSH1 0x0 DUP1 REVERT JUMPDEST DUP2 DUP6 ADD SWAP2 POP DUP6 PUSH1 0x1F DUP4 ADD SLT PUSH2 0x1753 JUMPI PUSH1 0x0 DUP1 REVERT JUMPDEST DUP2 CALLDATALOAD DUP2 DUP2 GT ISZERO PUSH2 0x1765 JUMPI PUSH2 0x1765 PUSH2 0x16FE JUMP JUMPDEST DUP1 PUSH1 0x5 SHL PUSH1 0x40 MLOAD PUSH1 0x1F NOT PUSH1 0x3F DUP4 ADD AND DUP2 ADD DUP2 DUP2 LT DUP6 DUP3 GT OR ISZERO PUSH2 0x178A JUMPI PUSH2 0x178A PUSH2 0x16FE JUMP JUMPDEST PUSH1 0x40 MSTORE SWAP2 DUP3 MSTORE DUP5 DUP3 ADD SWAP3 POP DUP4 DUP2 ADD DUP6 ADD SWAP2 DUP9 DUP4 GT ISZERO PUSH2 0x17A8 JUMPI PUSH1 0x0 DUP1 REVERT JUMPDEST SWAP4 DUP6 ADD SWAP4 JUMPDEST DUP3 DUP6 LT ISZERO PUSH2 0x17CD JUMPI PUSH2 0x17BE DUP6 PUSH2 0x16C3 JUMP JUMPDEST DUP5 MSTORE SWAP4 DUP6 ADD SWAP4 SWAP3 DUP6 ADD SWAP3 PUSH2 0x17AD JUMP JUMPDEST SWAP9 SWAP8 POP POP POP POP POP POP POP POP JUMP JUMPDEST PUSH1 0x0 PUSH1 0x20 DUP3 DUP5 SUB SLT ISZERO PUSH2 0x17EB JUMPI PUSH1 0x0 DUP1 REVERT JUMPDEST DUP2 CALLDATALOAD PUSH2 0x503 DUP2 PUSH2 0x16AB JUMP JUMPDEST PUSH4 0x4E487B71 PUSH1 0xE0 SHL PUSH1 0x0 MSTORE PUSH1 0x32 PUSH1 0x4 MSTORE PUSH1 0x24 PUSH1 0x0 REVERT JUMPDEST PUSH4 0x4E487B71 PUSH1 0xE0 SHL PUSH1 0x0 MSTORE PUSH1 0x11 PUSH1 0x4 MSTORE PUSH1 0x24 PUSH1 0x0 REVERT JUMPDEST PUSH1 0x0 PUSH1 0x0 NOT DUP3 EQ ISZERO PUSH2 0x1836 JUMPI PUSH2 0x1836 PUSH2 0x180C JUMP JUMPDEST POP PUSH1 0x1 ADD SWAP1 JUMP JUMPDEST PUSH4 0x4E487B71 PUSH1 0xE0 SHL PUSH1 0x0 MSTORE PUSH1 0x12 PUSH1 0x4 MSTORE PUSH1 0x24 PUSH1 0x0 REVERT JUMPDEST PUSH1 0x0 DUP3 PUSH2 0x1862 JUMPI PUSH2 0x1862 PUSH2 0x183D JUMP JUMPDEST POP MOD SWAP1 JUMP JUMPDEST PUSH1 0x0 DUP3 NOT DUP3 GT ISZERO PUSH2 0x187A JUMPI PUSH2 0x187A PUSH2 0x180C JUMP JUMPDEST POP ADD SWAP1 JUMP JUMPDEST PUSH1 0x0 PUSH4 0xFFFFFFFF DUP4 DUP2 AND SWAP1 DUP4 AND DUP2 DUP2 LT ISZERO PUSH2 0x189C JUMPI PUSH2 0x189C PUSH2 0x180C JUMP JUMPDEST SUB SWAP4 SWAP3 POP POP POP JUMP JUMPDEST PUSH1 0x0 PUSH1 0x20 DUP3 DUP5 SUB SLT ISZERO PUSH2 0x18B6 JUMPI PUSH1 0x0 DUP1 REVERT JUMPDEST DUP2 MLOAD PUSH2 0x503 DUP2 PUSH2 0x16AB JUMP JUMPDEST PUSH1 0x0 DUP3 DUP3 LT ISZERO PUSH2 0x18D3 JUMPI PUSH2 0x18D3 PUSH2 0x180C JUMP JUMPDEST POP SUB SWAP1 JUMP JUMPDEST PUSH1 0x0 DUP2 PUSH1 0x0 NOT DIV DUP4 GT DUP3 ISZERO ISZERO AND ISZERO PUSH2 0x18F2 JUMPI PUSH2 0x18F2 PUSH2 0x180C JUMP JUMPDEST POP MUL SWAP1 JUMP JUMPDEST PUSH1 0x0 DUP3 PUSH2 0x1906 JUMPI PUSH2 0x1906 PUSH2 0x183D JUMP JUMPDEST POP DIV SWAP1 JUMP JUMPDEST PUSH1 0x0 JUMPDEST DUP4 DUP2 LT ISZERO PUSH2 0x1926 JUMPI DUP2 DUP2 ADD MLOAD DUP4 DUP3 ADD MSTORE PUSH1 0x20 ADD PUSH2 0x190E JUMP JUMPDEST DUP4 DUP2 GT ISZERO PUSH2 0x460 JUMPI POP POP PUSH1 0x0 SWAP2 ADD MSTORE JUMP JUMPDEST PUSH32 0x416363657373436F6E74726F6C3A206163636F756E7420000000000000000000 DUP2 MSTORE PUSH1 0x0 DUP4 MLOAD PUSH2 0x196F DUP2 PUSH1 0x17 DUP6 ADD PUSH1 0x20 DUP9 ADD PUSH2 0x190B JUMP JUMPDEST PUSH17 0x1034B99036B4B9B9B4B733903937B6329 PUSH1 0x7D SHL PUSH1 0x17 SWAP2 DUP5 ADD SWAP2 DUP3 ADD MSTORE DUP4 MLOAD PUSH2 0x19A0 DUP2 PUSH1 0x28 DUP5 ADD PUSH1 0x20 DUP9 ADD PUSH2 0x190B JUMP JUMPDEST ADD PUSH1 0x28 ADD SWAP5 SWAP4 POP POP POP POP JUMP JUMPDEST PUSH1 0x20 DUP2 MSTORE PUSH1 0x0 DUP3 MLOAD DUP1 PUSH1 0x20 DUP5 ADD MSTORE PUSH2 0x19CB DUP2 PUSH1 0x40 DUP6 ADD PUSH1 0x20 DUP8 ADD PUSH2 0x190B JUMP JUMPDEST PUSH1 0x1F ADD PUSH1 0x1F NOT AND SWAP2 SWAP1 SWAP2 ADD PUSH1 0x40 ADD SWAP3 SWAP2 POP POP JUMP JUMPDEST PUSH1 0x1 DUP2 DUP2 JUMPDEST DUP1 DUP6 GT ISZERO PUSH2 0x14DF JUMPI DUP2 PUSH1 0x0 NOT DIV DUP3 GT ISZERO PUSH2 0x1A00 JUMPI PUSH2 0x1A00 PUSH2 0x180C JUMP JUMPDEST DUP1 DUP6 AND ISZERO PUSH2 0x1A0D JUMPI SWAP2 DUP2 MUL SWAP2 JUMPDEST SWAP4 DUP5 SHR SWAP4 SWAP1 DUP1 MUL SWAP1 PUSH2 0x19E4 JUMP JUMPDEST PUSH1 0x0 DUP3 PUSH2 0x1A29 JUMPI POP PUSH1 0x1 PUSH2 0x3C5 JUMP JUMPDEST DUP2 PUSH2 0x1A36 JUMPI POP PUSH1 0x0 PUSH2 0x3C5 JUMP JUMPDEST DUP2 PUSH1 0x1 DUP2 EQ PUSH2 0x1A4C JUMPI PUSH1 0x2 DUP2 EQ PUSH2 0x1A56 JUMPI PUSH2 0x1A72 JUMP JUMPDEST PUSH1 0x1 SWAP2 POP POP PUSH2 0x3C5 JUMP JUMPDEST PUSH1 0xFF DUP5 GT ISZERO PUSH2 0x1A67 JUMPI PUSH2 0x1A67 PUSH2 0x180C JUMP JUMPDEST POP POP PUSH1 0x1 DUP3 SHL PUSH2 0x3C5 JUMP JUMPDEST POP PUSH1 0x20 DUP4 LT PUSH2 0x133 DUP4 LT AND PUSH1 0x4E DUP5 LT PUSH1 0xB DUP5 LT AND OR ISZERO PUSH2 0x1A95 JUMPI POP DUP2 DUP2 EXP PUSH2 0x3C5 JUMP JUMPDEST PUSH2 0x1A9F DUP4 DUP4 PUSH2 0x19DF JUMP JUMPDEST DUP1 PUSH1 0x0 NOT DIV DUP3 GT ISZERO PUSH2 0x1AB3 JUMPI PUSH2 0x1AB3 PUSH2 0x180C JUMP JUMPDEST MUL SWAP4 SWAP3 POP POP POP JUMP JUMPDEST PUSH1 0x0 PUSH2 0x503 DUP4 DUP4 PUSH2 0x1A1A JUMP JUMPDEST PUSH1 0x0 PUSH1 0x20 DUP3 DUP5 SUB SLT ISZERO PUSH2 0x1AD9 JUMPI PUSH1 0x0 DUP1 REVERT JUMPDEST POP MLOAD SWAP2 SWAP1 POP JUMP JUMPDEST DUP1 MLOAD PUSH1 0x1 PUSH1 0x1 PUSH1 0x70 SHL SUB DUP2 AND DUP2 EQ PUSH2 0xAEA JUMPI PUSH1 0x0 DUP1 REVERT JUMPDEST PUSH1 0x0 DUP1 PUSH1 0x0 PUSH1 0x60 DUP5 DUP7 SUB SLT ISZERO PUSH2 0x1B0C JUMPI PUSH1 0x0 DUP1 REVERT JUMPDEST PUSH2 0x1B15 DUP5 PUSH2 0x1AE0 JUMP JUMPDEST SWAP3 POP PUSH2 0x1B23 PUSH1 0x20 DUP6 ADD PUSH2 0x1AE0 JUMP JUMPDEST SWAP2 POP PUSH1 0x40 DUP5 ADD MLOAD PUSH4 0xFFFFFFFF DUP2 AND DUP2 EQ PUSH2 0x1B3C JUMPI PUSH1 0x0 DUP1 REVERT JUMPDEST DUP1 SWAP2 POP POP SWAP3 POP SWAP3 POP SWAP3 JUMP JUMPDEST PUSH1 0x0 DUP2 PUSH2 0x1B56 JUMPI PUSH2 0x1B56 PUSH2 0x180C JUMP JUMPDEST POP PUSH1 0x0 NOT ADD SWAP1 JUMP INVALID LOG2 PUSH5 0x6970667358 0x22 SLT KECCAK256 0xE2 CALLCODE 0xB8 PUSH10 0x68CC2033C8CEB0DB0A8 0xEB 0xEE 0xE8 0xC5 0xCD LOG2 PUSH29 0x1958A41D9804A0C7A15CD964736F6C634300080C003300000000000000 ",
  "sha1": "11dab7a82c77b57c3a1c7ebfee594f568b7a5b18",
  "source": "// SPDX-License-Identifier: MIT\npragma solidity 0.8.12;\n\nimport \"@openzeppelin/contracts/access/AccessControl.sol\";\nimport \"@openzeppelin/contracts/token/ERC20/extensions/IERC20Metadata.sol\";\n\nimport '../libraries/FixedPoint.sol';\nimport \"../interfaces/IUniv2LikePair.sol\";\n\ninterface IMarketOracle {\n    function getData(address tokenAddress) external view returns (uint256);\n}\n\n// library with helper methods for oracles that are concerned with computing average prices\nlibrary UniswapV2OracleLibrary {\n    using FixedPoint for uint112;\n\n    // helper function that returns the current block timestamp within the range of uint32, i.e. [0, 2**32 - 1]\n    function currentBlockTimestamp() internal view returns (uint32) {\n        return uint32(block.timestamp % 2 ** 32);\n    }\n\n    // produces the cumulative price using counterfactuals to save gas and avoid a call to sync.\n    function currentCumulativePrices(\n        address pair\n    ) internal view returns (uint price0Cumulative, uint price1Cumulative, uint32 blockTimestamp) {\n        blockTimestamp = currentBlockTimestamp();\n        price0Cumulative = IUniv2LikePair(pair).price0CumulativeLast();\n        price1Cumulative = IUniv2LikePair(pair).price1CumulativeLast();\n\n        // if time has elapsed since the last update on the pair, mock the accumulated price values\n        (uint112 reserve0, uint112 reserve1, uint32 timestampLast) = IUniv2LikePair(pair).getReserves();\n        if (timestampLast != blockTimestamp) {\n            // subtraction overflow is desired\n            uint32 timeElapsed = blockTimestamp - timestampLast;\n            // addition overflow is desired\n            // counterfactual\n            price0Cumulative += uint(FixedPoint.fraction(reserve1, reserve0)._x) * timeElapsed;\n            // counterfactual\n            price1Cumulative += uint(FixedPoint.fraction(reserve0, reserve1)._x) * timeElapsed;\n        }\n    }\n}\n\ncontract MarketOracle is IMarketOracle, AccessControl {\n    using FixedPoint for FixedPoint.uq112x112;\n    using FixedPoint for FixedPoint.uq144x112;\n\n    struct TokenPrice {\n        uint    price0CumulativeLast;\n        uint    price1CumulativeLast;\n        uint    tokenValueInUSDAverage;\n        uint32  timestampLast;\n    }\n\n    bytes32 public constant CONFIGURATOR_ROLE = keccak256(\"CONFIGURATOR_ROLE\");\n    bytes32 public constant KEEPER_ROLE = keccak256(\"KEEPER_ROLE\");\n\n    // USD  (USDC / MIM / 3CRV)\n    address public immutable QUOTE_USD_TOKEN;\n    uint256 public immutable QUOTE_USD_DECIMAL;\n\n    mapping(address => TokenPrice) public priceList;\n    mapping(address => IUniv2LikePair) public tokenLP;\n\n    address public controller;\n\n    constructor(address _QUOTE_USD_TOKEN) {\n        QUOTE_USD_TOKEN = _QUOTE_USD_TOKEN;\n        QUOTE_USD_DECIMAL = IERC20Metadata(_QUOTE_USD_TOKEN).decimals();\n        _setupRole(DEFAULT_ADMIN_ROLE, msg.sender);\n        _setupRole(CONFIGURATOR_ROLE, msg.sender);\n        _setupRole(KEEPER_ROLE, msg.sender);\n    }\n\n    function _setTokenLP(address _token, address _tokenLP) private {\n        tokenLP[_token] = IUniv2LikePair(_tokenLP);\n        require(tokenLP[_token].token0() == QUOTE_USD_TOKEN || tokenLP[_token].token1() == QUOTE_USD_TOKEN, \"no_usd_token\");\n\n        uint price0CumulativeLast = tokenLP[_token].price0CumulativeLast();\n        uint price1CumulativeLast = tokenLP[_token].price1CumulativeLast();\n\n        (,,uint32 timestampLast) = tokenLP[_token].getReserves();\n\n        delete priceList[_token]; // reset\n        TokenPrice storage tokenPriceInfo = priceList[_token];\n\n        tokenPriceInfo.timestampLast = timestampLast;\n        tokenPriceInfo.price0CumulativeLast = price0CumulativeLast;\n        tokenPriceInfo.price1CumulativeLast = price1CumulativeLast;\n        tokenPriceInfo.tokenValueInUSDAverage = 0;\n\n        _update(_token);\n    }\n\n    function setTokenLP(address[] memory tokenLPPairs) external onlyRole(CONFIGURATOR_ROLE) {\n        require(tokenLPPairs.length % 2 == 0);\n        uint length = tokenLPPairs.length;\n        for (uint i = 0; i < length; i = i + 2) {\n            _setTokenLP(tokenLPPairs[i], tokenLPPairs[i + 1]);\n        }\n    }\n\n    function getTokenPrice(address tokenAddress) public view returns (uint256, uint256, uint32, uint256) {\n        (uint price0Cumulative, uint price1Cumulative, uint32 _blockTimestamp) = UniswapV2OracleLibrary.currentCumulativePrices(address(tokenLP[tokenAddress]));\n        if (_blockTimestamp == priceList[tokenAddress].timestampLast) {\n            return (\n                priceList[tokenAddress].price0CumulativeLast,\n                priceList[tokenAddress].price1CumulativeLast,\n                priceList[tokenAddress].timestampLast,\n                priceList[tokenAddress].tokenValueInUSDAverage\n            );\n        }\n\n        uint32 timeElapsed = (_blockTimestamp - priceList[tokenAddress].timestampLast);\n\n        FixedPoint.uq112x112 memory tokenValueInUSDAverage =\n            tokenLP[tokenAddress].token1() == QUOTE_USD_TOKEN\n            ? FixedPoint.uq112x112(uint224(1e18 * (price0Cumulative - priceList[tokenAddress].price0CumulativeLast) / timeElapsed))\n            : FixedPoint.uq112x112(uint224(1e18 * (price1Cumulative - priceList[tokenAddress].price1CumulativeLast) / timeElapsed));\n\n        return (price0Cumulative, price1Cumulative, _blockTimestamp, tokenValueInUSDAverage.mul(1).decode144());\n    }\n\n    function _update(address tokenAddress) private {\n        (uint price0CumulativeLast, uint price1CumulativeLast, uint32 timestampLast, uint256 tokenValueInUSDAverage) = getTokenPrice(tokenAddress);\n\n        TokenPrice storage tokenPriceInfo = priceList[tokenAddress];\n\n        tokenPriceInfo.timestampLast = timestampLast;\n        tokenPriceInfo.price0CumulativeLast = price0CumulativeLast;\n        tokenPriceInfo.price1CumulativeLast = price1CumulativeLast;\n        tokenPriceInfo.tokenValueInUSDAverage = tokenValueInUSDAverage;\n    }\n\n    function scalePriceTo1e18(uint256 rawPrice) internal view returns(uint256) {\n        if (QUOTE_USD_DECIMAL <= 18) {\n        return rawPrice * (10**(18 - QUOTE_USD_DECIMAL));\n        } else {\n        return rawPrice / (10**(QUOTE_USD_DECIMAL - 18));\n        }\n    }\n\n    // Update \"last\" state variables to current values\n    function update(address[] memory tokenAddress) external onlyRole(KEEPER_ROLE) {\n        uint length = tokenAddress.length;\n        for (uint i = 0; i < length; ++i) {\n            _update(tokenAddress[i]);\n        }\n    }\n\n    // Return the average usd price (1e18) since last update\n    function getData(address tokenAddress) external override view returns (uint256) {\n        (,,, uint tokenValueInUSDAverage) = getTokenPrice(tokenAddress);\n        return scalePriceTo1e18(tokenValueInUSDAverage);\n    }\n\n}",
  "sourcePath": "contracts/priceOracle/MarketOracle.sol",
  "type": "contract"
}