{
  "abi": [
    {
      "inputs": [
        {
          "internalType": "address",
          "name": "_CURVE_ROUTER",
          "type": "address"
        },
        {
          "internalType": "address",
          "name": "_SOLIDLY_ROUTER",
          "type": "address"
        },
        {
          "internalType": "address",
          "name": "_QUOTE_USD_TOKEN",
          "type": "address"
        }
      ],
      "stateMutability": "nonpayable",
      "type": "constructor"
    },
    {
      "anonymous": false,
      "inputs": [
        {
          "indexed": true,
          "internalType": "address",
          "name": "previousOwner",
          "type": "address"
        },
        {
          "indexed": true,
          "internalType": "address",
          "name": "newOwner",
          "type": "address"
        }
      ],
      "name": "OwnershipTransferred",
      "type": "event"
    },
    {
      "inputs": [],
      "name": "CURVE_ROUTER",
      "outputs": [
        {
          "internalType": "address",
          "name": "",
          "type": "address"
        }
      ],
      "stateMutability": "view",
      "type": "function"
    },
    {
      "inputs": [],
      "name": "QUOTE_USD_DECIMAL",
      "outputs": [
        {
          "internalType": "uint256",
          "name": "",
          "type": "uint256"
        }
      ],
      "stateMutability": "view",
      "type": "function"
    },
    {
      "inputs": [],
      "name": "QUOTE_USD_TOKEN",
      "outputs": [
        {
          "internalType": "address",
          "name": "",
          "type": "address"
        }
      ],
      "stateMutability": "view",
      "type": "function"
    },
    {
      "inputs": [],
      "name": "SOLIDLY_ROUTER",
      "outputs": [
        {
          "internalType": "address",
          "name": "",
          "type": "address"
        }
      ],
      "stateMutability": "view",
      "type": "function"
    },
    {
      "inputs": [
        {
          "internalType": "address",
          "name": "fromToken",
          "type": "address"
        },
        {
          "internalType": "uint256",
          "name": "amount",
          "type": "uint256"
        },
        {
          "internalType": "address",
          "name": "toToken",
          "type": "address"
        }
      ],
      "name": "getCurveQuote",
      "outputs": [
        {
          "internalType": "uint256",
          "name": "",
          "type": "uint256"
        }
      ],
      "stateMutability": "view",
      "type": "function"
    },
    {
      "inputs": [
        {
          "internalType": "address",
          "name": "token",
          "type": "address"
        }
      ],
      "name": "getData",
      "outputs": [
        {
          "internalType": "uint256",
          "name": "priceInUSD",
          "type": "uint256"
        }
      ],
      "stateMutability": "view",
      "type": "function"
    },
    {
      "inputs": [
        {
          "internalType": "address",
          "name": "fromToken",
          "type": "address"
        },
        {
          "internalType": "uint256",
          "name": "amount",
          "type": "uint256"
        },
        {
          "internalType": "address",
          "name": "toToken",
          "type": "address"
        }
      ],
      "name": "getSolidlyQuote",
      "outputs": [
        {
          "internalType": "uint256",
          "name": "",
          "type": "uint256"
        }
      ],
      "stateMutability": "view",
      "type": "function"
    },
    {
      "inputs": [
        {
          "internalType": "address",
          "name": "fromToken",
          "type": "address"
        },
        {
          "internalType": "uint256",
          "name": "amount",
          "type": "uint256"
        },
        {
          "internalType": "address",
          "name": "toToken",
          "type": "address"
        }
      ],
      "name": "getUniV2Quote",
      "outputs": [
        {
          "internalType": "uint256",
          "name": "",
          "type": "uint256"
        }
      ],
      "stateMutability": "view",
      "type": "function"
    },
    {
      "inputs": [],
      "name": "owner",
      "outputs": [
        {
          "internalType": "address",
          "name": "",
          "type": "address"
        }
      ],
      "stateMutability": "view",
      "type": "function"
    },
    {
      "inputs": [
        {
          "internalType": "uint256",
          "name": "",
          "type": "uint256"
        }
      ],
      "name": "pairRouter",
      "outputs": [
        {
          "internalType": "address",
          "name": "router",
          "type": "address"
        }
      ],
      "stateMutability": "view",
      "type": "function"
    },
    {
      "inputs": [],
      "name": "renounceOwnership",
      "outputs": [],
      "stateMutability": "nonpayable",
      "type": "function"
    },
    {
      "inputs": [
        {
          "internalType": "address",
          "name": "newOwner",
          "type": "address"
        }
      ],
      "name": "transferOwnership",
      "outputs": [],
      "stateMutability": "nonpayable",
      "type": "function"
    },
    {
      "inputs": [
        {
          "internalType": "address",
          "name": "router",
          "type": "address"
        },
        {
          "internalType": "address[]",
          "name": "path",
          "type": "address[]"
        }
      ],
      "name": "updatePairRouter",
      "outputs": [],
      "stateMutability": "nonpayable",
      "type": "function"
    }
  ],
  "bytecode": "6101006040523480156200001257600080fd5b50604051620013583803806200135883398101604081905262000035916200013a565b6200004033620000cd565b6001600160a01b0380841660805282811660a052811660c08190526040805163313ce56760e01b8152905163313ce567916004808201926020929091908290030181865afa15801562000097573d6000803e3d6000fd5b505050506040513d601f19601f82011682018060405250810190620000bd919062000184565b60ff1660e05250620001b0915050565b600080546001600160a01b038381166001600160a01b0319831681178455604051919092169283917f8be0079c531659141344cd1fd0a4f28419497f9722a3daafe3b4186f6b6457e09190a35050565b80516001600160a01b03811681146200013557600080fd5b919050565b6000806000606084860312156200015057600080fd5b6200015b846200011d565b92506200016b602085016200011d565b91506200017b604085016200011d565b90509250925092565b6000602082840312156200019757600080fd5b815160ff81168114620001a957600080fd5b9392505050565b60805160a05160c05160e0516111296200022f600039600081816101cf01528181610a8501528181610aae0152610af601526000818161013e01528181610392015281816103c1015261041701526000818160d9015281816106f8015261075d0152600081816102090152818161052b015261059001526111296000f3fe608060405234801561001057600080fd5b50600436106100cf5760003560e01c806373f356dd1161008c578063e35bef2f11610066578063e35bef2f146101f1578063e49b30da14610204578063f0b19cc41461022b578063f2fde38b1461023e57600080fd5b806373f356dd146101a65780638da5cb5b146101b9578063bfe8933d146101ca57600080fd5b806318645b43146100d4578063251506d9146101185780633367fd2d1461013957806338266b2214610160578063715018a6146101735780637309142b1461017d575b600080fd5b6100fb7f000000000000000000000000000000000000000000000000000000000000000081565b6040516001600160a01b0390911681526020015b60405180910390f35b61012b610126366004610c3e565b610251565b60405190815260200161010f565b6100fb7f000000000000000000000000000000000000000000000000000000000000000081565b61012b61016e366004610c80565b610317565b61017b6104e8565b005b6100fb61018b366004610c9d565b6001602052600090815260409020546001600160a01b031681565b61012b6101b4366004610c3e565b610527565b6000546001600160a01b03166100fb565b61012b7f000000000000000000000000000000000000000000000000000000000000000081565b61017b6101ff366004610cb6565b610611565b6100fb7f000000000000000000000000000000000000000000000000000000000000000081565b61012b610239366004610c3e565b6106f4565b61017b61024c366004610c80565b6107d5565b60008060006102608685610870565b915091506000826001600160a01b031663d06ca61f87846040518363ffffffff1660e01b8152600401610294929190610d3e565b600060405180830381865afa1580156102b1573d6000803e3d6000fd5b505050506040513d6000823e601f3d908101601f191682016040526102d99190810190610dab565b905061030a81600183516102ed9190610e7f565b815181106102fd576102fd610e96565b6020026020010151610a7f565b93505050505b9392505050565b600080826001600160a01b031663313ce5676040518163ffffffff1660e01b8152600401602060405180830381865afa158015610358573d6000803e3d6000fd5b505050506040513d601f19601f8201168201806040525081019061037c9190610eac565b61038790600a610fb3565b905060006103b684837f00000000000000000000000000000000000000000000000000000000000000006106f4565b905060006103e585847f0000000000000000000000000000000000000000000000000000000000000000610527565b90506103f18183610b2f565b60405163251506d960e01b81526001600160a01b038088166004830152602482018690527f0000000000000000000000000000000000000000000000000000000000000000166044820152909450309063251506d990606401602060405180830381865afa925050508015610483575060408051601f3d908101601f1916820190925261048091810190610fc2565b60015b6104bd573d8080156104b1576040519150601f19603f3d011682016040523d82523d6000602084013e6104b6565b606091505b50506104e0565b80156104de57600085116104d157806104db565b6104db8582610b46565b94505b505b505050919050565b6000546001600160a01b0316331461051b5760405162461bcd60e51b815260040161051290610fdb565b60405180910390fd5b6105256000610b61565b565b60007f00000000000000000000000000000000000000000000000000000000000000006001600160a01b031661055f57506000610310565b604051634e21df7560e01b81526001600160a01b0385811660048301528381166024830152604482018590526000917f000000000000000000000000000000000000000000000000000000000000000090911690634e21df75906064016040805180830381865afa1580156105d8573d6000803e3d6000fd5b505050506040513d601f19601f820116820180604052508101906105fc9190611010565b91505061060881610a7f565b95945050505050565b6000546001600160a01b0316331461063b5760405162461bcd60e51b815260040161051290610fdb565b6000828261064a600182610e7f565b81811061065957610659610e96565b905060200201602081019061066e9190610c80565b6001600160a01b03168383600081811061068a5761068a610e96565b905060200201602081019061069f9190610c80565b6001600160a01b03166106b2919061103e565b600081815260016020819052604090912080546001600160a01b0319166001600160a01b0388161781559192506106ec9082018585610bb1565b505050505050565b60007f00000000000000000000000000000000000000000000000000000000000000006001600160a01b031661072c57506000610310565b604051635e1e632560e01b8152600481018490526001600160a01b03858116602483015283811660448301526000917f000000000000000000000000000000000000000000000000000000000000000090911690635e1e6325906064016040805180830381865afa1580156107a5573d6000803e3d6000fd5b505050506040513d601f19601f820116820180604052508101906107c99190611056565b50905061060881610a7f565b6000546001600160a01b031633146107ff5760405162461bcd60e51b815260040161051290610fdb565b6001600160a01b0381166108645760405162461bcd60e51b815260206004820152602660248201527f4f776e61626c653a206e6577206f776e657220697320746865207a65726f206160448201526564647265737360d01b6064820152608401610512565b61086d81610b61565b50565b600060608161088b6001600160a01b0380861690871661103e565b60008181526001602052604090208054919250906001600160a01b03166108e55760405162461bcd60e51b815260206004820152600e60248201526d1c9bdd5d195c881b9bdd081cd95d60921b6044820152606401610512565b805460018201546001600160a01b03909116945067ffffffffffffffff81111561091157610911610d95565b60405190808252806020026020018201604052801561093a578160200160208202803683370190505b509250856001600160a01b03168160010160008154811061095d5761095d610e96565b6000918252602090912001546001600160a01b031614156109dc57806001018054806020026020016040519081016040528092919081815260200182805480156109d057602002820191906000526020600020905b81546001600160a01b031681526001909101906020018083116109b2575b50505050509250610a76565b60005b6001820154811015610a74576001808301805490918391610a009190610e7f565b610a0a9190610e7f565b81548110610a1a57610a1a610e96565b9060005260206000200160009054906101000a90046001600160a01b0316848281518110610a4a57610a4a610e96565b6001600160a01b039092166020928302919091019091015280610a6c8161108b565b9150506109df565b505b50509250929050565b600060127f000000000000000000000000000000000000000000000000000000000000000011610aef57610ad47f00000000000000000000000000000000000000000000000000000000000000006012610e7f565b610adf90600a6110a6565b610ae990836110b2565b92915050565b610b1a60127f0000000000000000000000000000000000000000000000000000000000000000610e7f565b610b2590600a6110a6565b610ae990836110d1565b600081831015610b3f5781610310565b5090919050565b6000610b5560028484186110d1565b6103109084841661103e565b600080546001600160a01b038381166001600160a01b0319831681178455604051919092169283917f8be0079c531659141344cd1fd0a4f28419497f9722a3daafe3b4186f6b6457e09190a35050565b828054828255906000526020600020908101928215610c04579160200282015b82811115610c045781546001600160a01b0319166001600160a01b03843516178255602090920191600190910190610bd1565b50610c10929150610c14565b5090565b5b80821115610c105760008155600101610c15565b6001600160a01b038116811461086d57600080fd5b600080600060608486031215610c5357600080fd5b8335610c5e81610c29565b9250602084013591506040840135610c7581610c29565b809150509250925092565b600060208284031215610c9257600080fd5b813561031081610c29565b600060208284031215610caf57600080fd5b5035919050565b600080600060408486031215610ccb57600080fd5b8335610cd681610c29565b9250602084013567ffffffffffffffff80821115610cf357600080fd5b818601915086601f830112610d0757600080fd5b813581811115610d1657600080fd5b8760208260051b8501011115610d2b57600080fd5b6020830194508093505050509250925092565b6000604082018483526020604081850152818551808452606086019150828701935060005b81811015610d885784516001600160a01b031683529383019391830191600101610d63565b5090979650505050505050565b634e487b7160e01b600052604160045260246000fd5b60006020808385031215610dbe57600080fd5b825167ffffffffffffffff80821115610dd657600080fd5b818501915085601f830112610dea57600080fd5b815181811115610dfc57610dfc610d95565b8060051b604051601f19603f83011681018181108582111715610e2157610e21610d95565b604052918252848201925083810185019188831115610e3f57600080fd5b938501935b82851015610e5d57845184529385019392850192610e44565b98975050505050505050565b634e487b7160e01b600052601160045260246000fd5b600082821015610e9157610e91610e69565b500390565b634e487b7160e01b600052603260045260246000fd5b600060208284031215610ebe57600080fd5b815160ff8116811461031057600080fd5b600181815b80851115610f0a578160001904821115610ef057610ef0610e69565b80851615610efd57918102915b93841c9390800290610ed4565b509250929050565b600082610f2157506001610ae9565b81610f2e57506000610ae9565b8160018114610f445760028114610f4e57610f6a565b6001915050610ae9565b60ff841115610f5f57610f5f610e69565b50506001821b610ae9565b5060208310610133831016604e8410600b8410161715610f8d575081810a610ae9565b610f978383610ecf565b8060001904821115610fab57610fab610e69565b029392505050565b600061031060ff841683610f12565b600060208284031215610fd457600080fd5b5051919050565b6020808252818101527f4f776e61626c653a2063616c6c6572206973206e6f7420746865206f776e6572604082015260600190565b6000806040838503121561102357600080fd5b825161102e81610c29565b6020939093015192949293505050565b6000821982111561105157611051610e69565b500190565b6000806040838503121561106957600080fd5b825191506020830151801515811461108057600080fd5b809150509250929050565b600060001982141561109f5761109f610e69565b5060010190565b60006103108383610f12565b60008160001904831182151516156110cc576110cc610e69565b500290565b6000826110ee57634e487b7160e01b600052601260045260246000fd5b50049056fea26469706673582212207a3d2fcfbc43e82f75e2771596ebc95e65b78c32daca688ef830b7f0a198382564736f6c634300080c0033",
  "bytecodeSha1": "eb27bb452ebc373d0bd44b86a4d3a5b49b1f6a48",
  "compiler": {
    "evm_version": "istanbul",
    "optimizer": {
      "enabled": true,
      "runs": 200
    },
    "version": "0.8.12+commit.f00d7308"
  },
  "contractName": "OnChainPriceFetcher",
  "language": "Solidity",
  "natspec": {
    "kind": "dev",
    "methods": {
      "owner()": {
        "details": "Returns the address of the current owner."
      },
      "pairRouter(uint256)": {
        "notice": "Info of each TokenPair"
      },
      "renounceOwnership()": {
        "details": "Leaves the contract without owner. It will not be possible to call `onlyOwner` functions anymore. Can only be called by the current owner. NOTE: Renouncing ownership will leave the contract without an owner, thereby removing any functionality that is only available to the owner."
      },
      "transferOwnership(address)": {
        "details": "Transfers ownership of the contract to a new account (`newOwner`). Can only be called by the current owner."
      }
    },
    "version": 1
  },
  "opcodes": "PUSH1 0x80 PUSH1 0x40 MSTORE CALLVALUE DUP1 ISZERO PUSH2 0x10 JUMPI PUSH1 0x0 DUP1 REVERT JUMPDEST POP PUSH1 0x4 CALLDATASIZE LT PUSH2 0xCF JUMPI PUSH1 0x0 CALLDATALOAD PUSH1 0xE0 SHR DUP1 PUSH4 0x73F356DD GT PUSH2 0x8C JUMPI DUP1 PUSH4 0xE35BEF2F GT PUSH2 0x66 JUMPI DUP1 PUSH4 0xE35BEF2F EQ PUSH2 0x1F1 JUMPI DUP1 PUSH4 0xE49B30DA EQ PUSH2 0x204 JUMPI DUP1 PUSH4 0xF0B19CC4 EQ PUSH2 0x22B JUMPI DUP1 PUSH4 0xF2FDE38B EQ PUSH2 0x23E JUMPI PUSH1 0x0 DUP1 REVERT JUMPDEST DUP1 PUSH4 0x73F356DD EQ PUSH2 0x1A6 JUMPI DUP1 PUSH4 0x8DA5CB5B EQ PUSH2 0x1B9 JUMPI DUP1 PUSH4 0xBFE8933D EQ PUSH2 0x1CA JUMPI PUSH1 0x0 DUP1 REVERT JUMPDEST DUP1 PUSH4 0x18645B43 EQ PUSH2 0xD4 JUMPI DUP1 PUSH4 0x251506D9 EQ PUSH2 0x118 JUMPI DUP1 PUSH4 0x3367FD2D EQ PUSH2 0x139 JUMPI DUP1 PUSH4 0x38266B22 EQ PUSH2 0x160 JUMPI DUP1 PUSH4 0x715018A6 EQ PUSH2 0x173 JUMPI DUP1 PUSH4 0x7309142B EQ PUSH2 0x17D JUMPI JUMPDEST PUSH1 0x0 DUP1 REVERT JUMPDEST PUSH2 0xFB PUSH32 0x0 DUP2 JUMP JUMPDEST PUSH1 0x40 MLOAD PUSH1 0x1 PUSH1 0x1 PUSH1 0xA0 SHL SUB SWAP1 SWAP2 AND DUP2 MSTORE PUSH1 0x20 ADD JUMPDEST PUSH1 0x40 MLOAD DUP1 SWAP2 SUB SWAP1 RETURN JUMPDEST PUSH2 0x12B PUSH2 0x126 CALLDATASIZE PUSH1 0x4 PUSH2 0xC3E JUMP JUMPDEST PUSH2 0x251 JUMP JUMPDEST PUSH1 0x40 MLOAD SWAP1 DUP2 MSTORE PUSH1 0x20 ADD PUSH2 0x10F JUMP JUMPDEST PUSH2 0xFB PUSH32 0x0 DUP2 JUMP JUMPDEST PUSH2 0x12B PUSH2 0x16E CALLDATASIZE PUSH1 0x4 PUSH2 0xC80 JUMP JUMPDEST PUSH2 0x317 JUMP JUMPDEST PUSH2 0x17B PUSH2 0x4E8 JUMP JUMPDEST STOP JUMPDEST PUSH2 0xFB PUSH2 0x18B CALLDATASIZE PUSH1 0x4 PUSH2 0xC9D JUMP JUMPDEST PUSH1 0x1 PUSH1 0x20 MSTORE PUSH1 0x0 SWAP1 DUP2 MSTORE PUSH1 0x40 SWAP1 KECCAK256 SLOAD PUSH1 0x1 PUSH1 0x1 PUSH1 0xA0 SHL SUB AND DUP2 JUMP JUMPDEST PUSH2 0x12B PUSH2 0x1B4 CALLDATASIZE PUSH1 0x4 PUSH2 0xC3E JUMP JUMPDEST PUSH2 0x527 JUMP JUMPDEST PUSH1 0x0 SLOAD PUSH1 0x1 PUSH1 0x1 PUSH1 0xA0 SHL SUB AND PUSH2 0xFB JUMP JUMPDEST PUSH2 0x12B PUSH32 0x0 DUP2 JUMP JUMPDEST PUSH2 0x17B PUSH2 0x1FF CALLDATASIZE PUSH1 0x4 PUSH2 0xCB6 JUMP JUMPDEST PUSH2 0x611 JUMP JUMPDEST PUSH2 0xFB PUSH32 0x0 DUP2 JUMP JUMPDEST PUSH2 0x12B PUSH2 0x239 CALLDATASIZE PUSH1 0x4 PUSH2 0xC3E JUMP JUMPDEST PUSH2 0x6F4 JUMP JUMPDEST PUSH2 0x17B PUSH2 0x24C CALLDATASIZE PUSH1 0x4 PUSH2 0xC80 JUMP JUMPDEST PUSH2 0x7D5 JUMP JUMPDEST PUSH1 0x0 DUP1 PUSH1 0x0 PUSH2 0x260 DUP7 DUP6 PUSH2 0x870 JUMP JUMPDEST SWAP2 POP SWAP2 POP PUSH1 0x0 DUP3 PUSH1 0x1 PUSH1 0x1 PUSH1 0xA0 SHL SUB AND PUSH4 0xD06CA61F DUP8 DUP5 PUSH1 0x40 MLOAD DUP4 PUSH4 0xFFFFFFFF AND PUSH1 0xE0 SHL DUP2 MSTORE PUSH1 0x4 ADD PUSH2 0x294 SWAP3 SWAP2 SWAP1 PUSH2 0xD3E JUMP JUMPDEST PUSH1 0x0 PUSH1 0x40 MLOAD DUP1 DUP4 SUB DUP2 DUP7 GAS STATICCALL ISZERO DUP1 ISZERO PUSH2 0x2B1 JUMPI RETURNDATASIZE PUSH1 0x0 DUP1 RETURNDATACOPY RETURNDATASIZE PUSH1 0x0 REVERT JUMPDEST POP POP POP POP PUSH1 0x40 MLOAD RETURNDATASIZE PUSH1 0x0 DUP3 RETURNDATACOPY PUSH1 0x1F RETURNDATASIZE SWAP1 DUP2 ADD PUSH1 0x1F NOT AND DUP3 ADD PUSH1 0x40 MSTORE PUSH2 0x2D9 SWAP2 SWAP1 DUP2 ADD SWAP1 PUSH2 0xDAB JUMP JUMPDEST SWAP1 POP PUSH2 0x30A DUP2 PUSH1 0x1 DUP4 MLOAD PUSH2 0x2ED SWAP2 SWAP1 PUSH2 0xE7F JUMP JUMPDEST DUP2 MLOAD DUP2 LT PUSH2 0x2FD JUMPI PUSH2 0x2FD PUSH2 0xE96 JUMP JUMPDEST PUSH1 0x20 MUL PUSH1 0x20 ADD ADD MLOAD PUSH2 0xA7F JUMP JUMPDEST SWAP4 POP POP POP POP JUMPDEST SWAP4 SWAP3 POP POP POP JUMP JUMPDEST PUSH1 0x0 DUP1 DUP3 PUSH1 0x1 PUSH1 0x1 PUSH1 0xA0 SHL SUB AND PUSH4 0x313CE567 PUSH1 0x40 MLOAD DUP2 PUSH4 0xFFFFFFFF AND PUSH1 0xE0 SHL DUP2 MSTORE PUSH1 0x4 ADD PUSH1 0x20 PUSH1 0x40 MLOAD DUP1 DUP4 SUB DUP2 DUP7 GAS STATICCALL ISZERO DUP1 ISZERO PUSH2 0x358 JUMPI RETURNDATASIZE PUSH1 0x0 DUP1 RETURNDATACOPY RETURNDATASIZE PUSH1 0x0 REVERT JUMPDEST POP POP POP POP PUSH1 0x40 MLOAD RETURNDATASIZE PUSH1 0x1F NOT PUSH1 0x1F DUP3 ADD AND DUP3 ADD DUP1 PUSH1 0x40 MSTORE POP DUP2 ADD SWAP1 PUSH2 0x37C SWAP2 SWAP1 PUSH2 0xEAC JUMP JUMPDEST PUSH2 0x387 SWAP1 PUSH1 0xA PUSH2 0xFB3 JUMP JUMPDEST SWAP1 POP PUSH1 0x0 PUSH2 0x3B6 DUP5 DUP4 PUSH32 0x0 PUSH2 0x6F4 JUMP JUMPDEST SWAP1 POP PUSH1 0x0 PUSH2 0x3E5 DUP6 DUP5 PUSH32 0x0 PUSH2 0x527 JUMP JUMPDEST SWAP1 POP PUSH2 0x3F1 DUP2 DUP4 PUSH2 0xB2F JUMP JUMPDEST PUSH1 0x40 MLOAD PUSH4 0x251506D9 PUSH1 0xE0 SHL DUP2 MSTORE PUSH1 0x1 PUSH1 0x1 PUSH1 0xA0 SHL SUB DUP1 DUP9 AND PUSH1 0x4 DUP4 ADD MSTORE PUSH1 0x24 DUP3 ADD DUP7 SWAP1 MSTORE PUSH32 0x0 AND PUSH1 0x44 DUP3 ADD MSTORE SWAP1 SWAP5 POP ADDRESS SWAP1 PUSH4 0x251506D9 SWAP1 PUSH1 0x64 ADD PUSH1 0x20 PUSH1 0x40 MLOAD DUP1 DUP4 SUB DUP2 DUP7 GAS STATICCALL SWAP3 POP POP POP DUP1 ISZERO PUSH2 0x483 JUMPI POP PUSH1 0x40 DUP1 MLOAD PUSH1 0x1F RETURNDATASIZE SWAP1 DUP2 ADD PUSH1 0x1F NOT AND DUP3 ADD SWAP1 SWAP3 MSTORE PUSH2 0x480 SWAP2 DUP2 ADD SWAP1 PUSH2 0xFC2 JUMP JUMPDEST PUSH1 0x1 JUMPDEST PUSH2 0x4BD JUMPI RETURNDATASIZE DUP1 DUP1 ISZERO PUSH2 0x4B1 JUMPI PUSH1 0x40 MLOAD SWAP2 POP PUSH1 0x1F NOT PUSH1 0x3F RETURNDATASIZE ADD AND DUP3 ADD PUSH1 0x40 MSTORE RETURNDATASIZE DUP3 MSTORE RETURNDATASIZE PUSH1 0x0 PUSH1 0x20 DUP5 ADD RETURNDATACOPY PUSH2 0x4B6 JUMP JUMPDEST PUSH1 0x60 SWAP2 POP JUMPDEST POP POP PUSH2 0x4E0 JUMP JUMPDEST DUP1 ISZERO PUSH2 0x4DE JUMPI PUSH1 0x0 DUP6 GT PUSH2 0x4D1 JUMPI DUP1 PUSH2 0x4DB JUMP JUMPDEST PUSH2 0x4DB DUP6 DUP3 PUSH2 0xB46 JUMP JUMPDEST SWAP5 POP JUMPDEST POP JUMPDEST POP POP POP SWAP2 SWAP1 POP JUMP JUMPDEST PUSH1 0x0 SLOAD PUSH1 0x1 PUSH1 0x1 PUSH1 0xA0 SHL SUB AND CALLER EQ PUSH2 0x51B JUMPI PUSH1 0x40 MLOAD PUSH3 0x461BCD PUSH1 0xE5 SHL DUP2 MSTORE PUSH1 0x4 ADD PUSH2 0x512 SWAP1 PUSH2 0xFDB JUMP JUMPDEST PUSH1 0x40 MLOAD DUP1 SWAP2 SUB SWAP1 REVERT JUMPDEST PUSH2 0x525 PUSH1 0x0 PUSH2 0xB61 JUMP JUMPDEST JUMP JUMPDEST PUSH1 0x0 PUSH32 0x0 PUSH1 0x1 PUSH1 0x1 PUSH1 0xA0 SHL SUB AND PUSH2 0x55F JUMPI POP PUSH1 0x0 PUSH2 0x310 JUMP JUMPDEST PUSH1 0x40 MLOAD PUSH4 0x4E21DF75 PUSH1 0xE0 SHL DUP2 MSTORE PUSH1 0x1 PUSH1 0x1 PUSH1 0xA0 SHL SUB DUP6 DUP2 AND PUSH1 0x4 DUP4 ADD MSTORE DUP4 DUP2 AND PUSH1 0x24 DUP4 ADD MSTORE PUSH1 0x44 DUP3 ADD DUP6 SWAP1 MSTORE PUSH1 0x0 SWAP2 PUSH32 0x0 SWAP1 SWAP2 AND SWAP1 PUSH4 0x4E21DF75 SWAP1 PUSH1 0x64 ADD PUSH1 0x40 DUP1 MLOAD DUP1 DUP4 SUB DUP2 DUP7 GAS STATICCALL ISZERO DUP1 ISZERO PUSH2 0x5D8 JUMPI RETURNDATASIZE PUSH1 0x0 DUP1 RETURNDATACOPY RETURNDATASIZE PUSH1 0x0 REVERT JUMPDEST POP POP POP POP PUSH1 0x40 MLOAD RETURNDATASIZE PUSH1 0x1F NOT PUSH1 0x1F DUP3 ADD AND DUP3 ADD DUP1 PUSH1 0x40 MSTORE POP DUP2 ADD SWAP1 PUSH2 0x5FC SWAP2 SWAP1 PUSH2 0x1010 JUMP JUMPDEST SWAP2 POP POP PUSH2 0x608 DUP2 PUSH2 0xA7F JUMP JUMPDEST SWAP6 SWAP5 POP POP POP POP POP JUMP JUMPDEST PUSH1 0x0 SLOAD PUSH1 0x1 PUSH1 0x1 PUSH1 0xA0 SHL SUB AND CALLER EQ PUSH2 0x63B JUMPI PUSH1 0x40 MLOAD PUSH3 0x461BCD PUSH1 0xE5 SHL DUP2 MSTORE PUSH1 0x4 ADD PUSH2 0x512 SWAP1 PUSH2 0xFDB JUMP JUMPDEST PUSH1 0x0 DUP3 DUP3 PUSH2 0x64A PUSH1 0x1 DUP3 PUSH2 0xE7F JUMP JUMPDEST DUP2 DUP2 LT PUSH2 0x659 JUMPI PUSH2 0x659 PUSH2 0xE96 JUMP JUMPDEST SWAP1 POP PUSH1 0x20 MUL ADD PUSH1 0x20 DUP2 ADD SWAP1 PUSH2 0x66E SWAP2 SWAP1 PUSH2 0xC80 JUMP JUMPDEST PUSH1 0x1 PUSH1 0x1 PUSH1 0xA0 SHL SUB AND DUP4 DUP4 PUSH1 0x0 DUP2 DUP2 LT PUSH2 0x68A JUMPI PUSH2 0x68A PUSH2 0xE96 JUMP JUMPDEST SWAP1 POP PUSH1 0x20 MUL ADD PUSH1 0x20 DUP2 ADD SWAP1 PUSH2 0x69F SWAP2 SWAP1 PUSH2 0xC80 JUMP JUMPDEST PUSH1 0x1 PUSH1 0x1 PUSH1 0xA0 SHL SUB AND PUSH2 0x6B2 SWAP2 SWAP1 PUSH2 0x103E JUMP JUMPDEST PUSH1 0x0 DUP2 DUP2 MSTORE PUSH1 0x1 PUSH1 0x20 DUP2 SWAP1 MSTORE PUSH1 0x40 SWAP1 SWAP2 KECCAK256 DUP1 SLOAD PUSH1 0x1 PUSH1 0x1 PUSH1 0xA0 SHL SUB NOT AND PUSH1 0x1 PUSH1 0x1 PUSH1 0xA0 SHL SUB DUP9 AND OR DUP2 SSTORE SWAP2 SWAP3 POP PUSH2 0x6EC SWAP1 DUP3 ADD DUP6 DUP6 PUSH2 0xBB1 JUMP JUMPDEST POP POP POP POP POP POP JUMP JUMPDEST PUSH1 0x0 PUSH32 0x0 PUSH1 0x1 PUSH1 0x1 PUSH1 0xA0 SHL SUB AND PUSH2 0x72C JUMPI POP PUSH1 0x0 PUSH2 0x310 JUMP JUMPDEST PUSH1 0x40 MLOAD PUSH4 0x5E1E6325 PUSH1 0xE0 SHL DUP2 MSTORE PUSH1 0x4 DUP2 ADD DUP5 SWAP1 MSTORE PUSH1 0x1 PUSH1 0x1 PUSH1 0xA0 SHL SUB DUP6 DUP2 AND PUSH1 0x24 DUP4 ADD MSTORE DUP4 DUP2 AND PUSH1 0x44 DUP4 ADD MSTORE PUSH1 0x0 SWAP2 PUSH32 0x0 SWAP1 SWAP2 AND SWAP1 PUSH4 0x5E1E6325 SWAP1 PUSH1 0x64 ADD PUSH1 0x40 DUP1 MLOAD DUP1 DUP4 SUB DUP2 DUP7 GAS STATICCALL ISZERO DUP1 ISZERO PUSH2 0x7A5 JUMPI RETURNDATASIZE PUSH1 0x0 DUP1 RETURNDATACOPY RETURNDATASIZE PUSH1 0x0 REVERT JUMPDEST POP POP POP POP PUSH1 0x40 MLOAD RETURNDATASIZE PUSH1 0x1F NOT PUSH1 0x1F DUP3 ADD AND DUP3 ADD DUP1 PUSH1 0x40 MSTORE POP DUP2 ADD SWAP1 PUSH2 0x7C9 SWAP2 SWAP1 PUSH2 0x1056 JUMP JUMPDEST POP SWAP1 POP PUSH2 0x608 DUP2 PUSH2 0xA7F JUMP JUMPDEST PUSH1 0x0 SLOAD PUSH1 0x1 PUSH1 0x1 PUSH1 0xA0 SHL SUB AND CALLER EQ PUSH2 0x7FF JUMPI PUSH1 0x40 MLOAD PUSH3 0x461BCD PUSH1 0xE5 SHL DUP2 MSTORE PUSH1 0x4 ADD PUSH2 0x512 SWAP1 PUSH2 0xFDB JUMP JUMPDEST PUSH1 0x1 PUSH1 0x1 PUSH1 0xA0 SHL SUB DUP2 AND PUSH2 0x864 JUMPI PUSH1 0x40 MLOAD PUSH3 0x461BCD PUSH1 0xE5 SHL DUP2 MSTORE PUSH1 0x20 PUSH1 0x4 DUP3 ADD MSTORE PUSH1 0x26 PUSH1 0x24 DUP3 ADD MSTORE PUSH32 0x4F776E61626C653A206E6577206F776E657220697320746865207A65726F2061 PUSH1 0x44 DUP3 ADD MSTORE PUSH6 0x646472657373 PUSH1 0xD0 SHL PUSH1 0x64 DUP3 ADD MSTORE PUSH1 0x84 ADD PUSH2 0x512 JUMP JUMPDEST PUSH2 0x86D DUP2 PUSH2 0xB61 JUMP JUMPDEST POP JUMP JUMPDEST PUSH1 0x0 PUSH1 0x60 DUP2 PUSH2 0x88B PUSH1 0x1 PUSH1 0x1 PUSH1 0xA0 SHL SUB DUP1 DUP7 AND SWAP1 DUP8 AND PUSH2 0x103E JUMP JUMPDEST PUSH1 0x0 DUP2 DUP2 MSTORE PUSH1 0x1 PUSH1 0x20 MSTORE PUSH1 0x40 SWAP1 KECCAK256 DUP1 SLOAD SWAP2 SWAP3 POP SWAP1 PUSH1 0x1 PUSH1 0x1 PUSH1 0xA0 SHL SUB AND PUSH2 0x8E5 JUMPI PUSH1 0x40 MLOAD PUSH3 0x461BCD PUSH1 0xE5 SHL DUP2 MSTORE PUSH1 0x20 PUSH1 0x4 DUP3 ADD MSTORE PUSH1 0xE PUSH1 0x24 DUP3 ADD MSTORE PUSH14 0x1C9BDD5D195C881B9BDD081CD95D PUSH1 0x92 SHL PUSH1 0x44 DUP3 ADD MSTORE PUSH1 0x64 ADD PUSH2 0x512 JUMP JUMPDEST DUP1 SLOAD PUSH1 0x1 DUP3 ADD SLOAD PUSH1 0x1 PUSH1 0x1 PUSH1 0xA0 SHL SUB SWAP1 SWAP2 AND SWAP5 POP PUSH8 0xFFFFFFFFFFFFFFFF DUP2 GT ISZERO PUSH2 0x911 JUMPI PUSH2 0x911 PUSH2 0xD95 JUMP JUMPDEST PUSH1 0x40 MLOAD SWAP1 DUP1 DUP3 MSTORE DUP1 PUSH1 0x20 MUL PUSH1 0x20 ADD DUP3 ADD PUSH1 0x40 MSTORE DUP1 ISZERO PUSH2 0x93A JUMPI DUP2 PUSH1 0x20 ADD PUSH1 0x20 DUP3 MUL DUP1 CALLDATASIZE DUP4 CALLDATACOPY ADD SWAP1 POP JUMPDEST POP SWAP3 POP DUP6 PUSH1 0x1 PUSH1 0x1 PUSH1 0xA0 SHL SUB AND DUP2 PUSH1 0x1 ADD PUSH1 0x0 DUP2 SLOAD DUP2 LT PUSH2 0x95D JUMPI PUSH2 0x95D PUSH2 0xE96 JUMP JUMPDEST PUSH1 0x0 SWAP2 DUP3 MSTORE PUSH1 0x20 SWAP1 SWAP2 KECCAK256 ADD SLOAD PUSH1 0x1 PUSH1 0x1 PUSH1 0xA0 SHL SUB AND EQ ISZERO PUSH2 0x9DC JUMPI DUP1 PUSH1 0x1 ADD DUP1 SLOAD DUP1 PUSH1 0x20 MUL PUSH1 0x20 ADD PUSH1 0x40 MLOAD SWAP1 DUP2 ADD PUSH1 0x40 MSTORE DUP1 SWAP3 SWAP2 SWAP1 DUP2 DUP2 MSTORE PUSH1 0x20 ADD DUP3 DUP1 SLOAD DUP1 ISZERO PUSH2 0x9D0 JUMPI PUSH1 0x20 MUL DUP3 ADD SWAP2 SWAP1 PUSH1 0x0 MSTORE PUSH1 0x20 PUSH1 0x0 KECCAK256 SWAP1 JUMPDEST DUP2 SLOAD PUSH1 0x1 PUSH1 0x1 PUSH1 0xA0 SHL SUB AND DUP2 MSTORE PUSH1 0x1 SWAP1 SWAP2 ADD SWAP1 PUSH1 0x20 ADD DUP1 DUP4 GT PUSH2 0x9B2 JUMPI JUMPDEST POP POP POP POP POP SWAP3 POP PUSH2 0xA76 JUMP JUMPDEST PUSH1 0x0 JUMPDEST PUSH1 0x1 DUP3 ADD SLOAD DUP2 LT ISZERO PUSH2 0xA74 JUMPI PUSH1 0x1 DUP1 DUP4 ADD DUP1 SLOAD SWAP1 SWAP2 DUP4 SWAP2 PUSH2 0xA00 SWAP2 SWAP1 PUSH2 0xE7F JUMP JUMPDEST PUSH2 0xA0A SWAP2 SWAP1 PUSH2 0xE7F JUMP JUMPDEST DUP2 SLOAD DUP2 LT PUSH2 0xA1A JUMPI PUSH2 0xA1A PUSH2 0xE96 JUMP JUMPDEST SWAP1 PUSH1 0x0 MSTORE PUSH1 0x20 PUSH1 0x0 KECCAK256 ADD PUSH1 0x0 SWAP1 SLOAD SWAP1 PUSH2 0x100 EXP SWAP1 DIV PUSH1 0x1 PUSH1 0x1 PUSH1 0xA0 SHL SUB AND DUP5 DUP3 DUP2 MLOAD DUP2 LT PUSH2 0xA4A JUMPI PUSH2 0xA4A PUSH2 0xE96 JUMP JUMPDEST PUSH1 0x1 PUSH1 0x1 PUSH1 0xA0 SHL SUB SWAP1 SWAP3 AND PUSH1 0x20 SWAP3 DUP4 MUL SWAP2 SWAP1 SWAP2 ADD SWAP1 SWAP2 ADD MSTORE DUP1 PUSH2 0xA6C DUP2 PUSH2 0x108B JUMP JUMPDEST SWAP2 POP POP PUSH2 0x9DF JUMP JUMPDEST POP JUMPDEST POP POP SWAP3 POP SWAP3 SWAP1 POP JUMP JUMPDEST PUSH1 0x0 PUSH1 0x12 PUSH32 0x0 GT PUSH2 0xAEF JUMPI PUSH2 0xAD4 PUSH32 0x0 PUSH1 0x12 PUSH2 0xE7F JUMP JUMPDEST PUSH2 0xADF SWAP1 PUSH1 0xA PUSH2 0x10A6 JUMP JUMPDEST PUSH2 0xAE9 SWAP1 DUP4 PUSH2 0x10B2 JUMP JUMPDEST SWAP3 SWAP2 POP POP JUMP JUMPDEST PUSH2 0xB1A PUSH1 0x12 PUSH32 0x0 PUSH2 0xE7F JUMP JUMPDEST PUSH2 0xB25 SWAP1 PUSH1 0xA PUSH2 0x10A6 JUMP JUMPDEST PUSH2 0xAE9 SWAP1 DUP4 PUSH2 0x10D1 JUMP JUMPDEST PUSH1 0x0 DUP2 DUP4 LT ISZERO PUSH2 0xB3F JUMPI DUP2 PUSH2 0x310 JUMP JUMPDEST POP SWAP1 SWAP2 SWAP1 POP JUMP JUMPDEST PUSH1 0x0 PUSH2 0xB55 PUSH1 0x2 DUP5 DUP5 XOR PUSH2 0x10D1 JUMP JUMPDEST PUSH2 0x310 SWAP1 DUP5 DUP5 AND PUSH2 0x103E JUMP JUMPDEST PUSH1 0x0 DUP1 SLOAD PUSH1 0x1 PUSH1 0x1 PUSH1 0xA0 SHL SUB DUP4 DUP2 AND PUSH1 0x1 PUSH1 0x1 PUSH1 0xA0 SHL SUB NOT DUP4 AND DUP2 OR DUP5 SSTORE PUSH1 0x40 MLOAD SWAP2 SWAP1 SWAP3 AND SWAP3 DUP4 SWAP2 PUSH32 0x8BE0079C531659141344CD1FD0A4F28419497F9722A3DAAFE3B4186F6B6457E0 SWAP2 SWAP1 LOG3 POP POP JUMP JUMPDEST DUP3 DUP1 SLOAD DUP3 DUP3 SSTORE SWAP1 PUSH1 0x0 MSTORE PUSH1 0x20 PUSH1 0x0 KECCAK256 SWAP1 DUP2 ADD SWAP3 DUP3 ISZERO PUSH2 0xC04 JUMPI SWAP2 PUSH1 0x20 MUL DUP3 ADD JUMPDEST DUP3 DUP2 GT ISZERO PUSH2 0xC04 JUMPI DUP2 SLOAD PUSH1 0x1 PUSH1 0x1 PUSH1 0xA0 SHL SUB NOT AND PUSH1 0x1 PUSH1 0x1 PUSH1 0xA0 SHL SUB DUP5 CALLDATALOAD AND OR DUP3 SSTORE PUSH1 0x20 SWAP1 SWAP3 ADD SWAP2 PUSH1 0x1 SWAP1 SWAP2 ADD SWAP1 PUSH2 0xBD1 JUMP JUMPDEST POP PUSH2 0xC10 SWAP3 SWAP2 POP PUSH2 0xC14 JUMP JUMPDEST POP SWAP1 JUMP JUMPDEST JUMPDEST DUP1 DUP3 GT ISZERO PUSH2 0xC10 JUMPI PUSH1 0x0 DUP2 SSTORE PUSH1 0x1 ADD PUSH2 0xC15 JUMP JUMPDEST PUSH1 0x1 PUSH1 0x1 PUSH1 0xA0 SHL SUB DUP2 AND DUP2 EQ PUSH2 0x86D JUMPI PUSH1 0x0 DUP1 REVERT JUMPDEST PUSH1 0x0 DUP1 PUSH1 0x0 PUSH1 0x60 DUP5 DUP7 SUB SLT ISZERO PUSH2 0xC53 JUMPI PUSH1 0x0 DUP1 REVERT JUMPDEST DUP4 CALLDATALOAD PUSH2 0xC5E DUP2 PUSH2 0xC29 JUMP JUMPDEST SWAP3 POP PUSH1 0x20 DUP5 ADD CALLDATALOAD SWAP2 POP PUSH1 0x40 DUP5 ADD CALLDATALOAD PUSH2 0xC75 DUP2 PUSH2 0xC29 JUMP JUMPDEST DUP1 SWAP2 POP POP SWAP3 POP SWAP3 POP SWAP3 JUMP JUMPDEST PUSH1 0x0 PUSH1 0x20 DUP3 DUP5 SUB SLT ISZERO PUSH2 0xC92 JUMPI PUSH1 0x0 DUP1 REVERT JUMPDEST DUP2 CALLDATALOAD PUSH2 0x310 DUP2 PUSH2 0xC29 JUMP JUMPDEST PUSH1 0x0 PUSH1 0x20 DUP3 DUP5 SUB SLT ISZERO PUSH2 0xCAF JUMPI PUSH1 0x0 DUP1 REVERT JUMPDEST POP CALLDATALOAD SWAP2 SWAP1 POP JUMP JUMPDEST PUSH1 0x0 DUP1 PUSH1 0x0 PUSH1 0x40 DUP5 DUP7 SUB SLT ISZERO PUSH2 0xCCB JUMPI PUSH1 0x0 DUP1 REVERT JUMPDEST DUP4 CALLDATALOAD PUSH2 0xCD6 DUP2 PUSH2 0xC29 JUMP JUMPDEST SWAP3 POP PUSH1 0x20 DUP5 ADD CALLDATALOAD PUSH8 0xFFFFFFFFFFFFFFFF DUP1 DUP3 GT ISZERO PUSH2 0xCF3 JUMPI PUSH1 0x0 DUP1 REVERT JUMPDEST DUP2 DUP7 ADD SWAP2 POP DUP7 PUSH1 0x1F DUP4 ADD SLT PUSH2 0xD07 JUMPI PUSH1 0x0 DUP1 REVERT JUMPDEST DUP2 CALLDATALOAD DUP2 DUP2 GT ISZERO PUSH2 0xD16 JUMPI PUSH1 0x0 DUP1 REVERT JUMPDEST DUP8 PUSH1 0x20 DUP3 PUSH1 0x5 SHL DUP6 ADD ADD GT ISZERO PUSH2 0xD2B JUMPI PUSH1 0x0 DUP1 REVERT JUMPDEST PUSH1 0x20 DUP4 ADD SWAP5 POP DUP1 SWAP4 POP POP POP POP SWAP3 POP SWAP3 POP SWAP3 JUMP JUMPDEST PUSH1 0x0 PUSH1 0x40 DUP3 ADD DUP5 DUP4 MSTORE PUSH1 0x20 PUSH1 0x40 DUP2 DUP6 ADD MSTORE DUP2 DUP6 MLOAD DUP1 DUP5 MSTORE PUSH1 0x60 DUP7 ADD SWAP2 POP DUP3 DUP8 ADD SWAP4 POP PUSH1 0x0 JUMPDEST DUP2 DUP2 LT ISZERO PUSH2 0xD88 JUMPI DUP5 MLOAD PUSH1 0x1 PUSH1 0x1 PUSH1 0xA0 SHL SUB AND DUP4 MSTORE SWAP4 DUP4 ADD SWAP4 SWAP2 DUP4 ADD SWAP2 PUSH1 0x1 ADD PUSH2 0xD63 JUMP JUMPDEST POP SWAP1 SWAP8 SWAP7 POP POP POP POP POP POP POP JUMP JUMPDEST PUSH4 0x4E487B71 PUSH1 0xE0 SHL PUSH1 0x0 MSTORE PUSH1 0x41 PUSH1 0x4 MSTORE PUSH1 0x24 PUSH1 0x0 REVERT JUMPDEST PUSH1 0x0 PUSH1 0x20 DUP1 DUP4 DUP6 SUB SLT ISZERO PUSH2 0xDBE JUMPI PUSH1 0x0 DUP1 REVERT JUMPDEST DUP3 MLOAD PUSH8 0xFFFFFFFFFFFFFFFF DUP1 DUP3 GT ISZERO PUSH2 0xDD6 JUMPI PUSH1 0x0 DUP1 REVERT JUMPDEST DUP2 DUP6 ADD SWAP2 POP DUP6 PUSH1 0x1F DUP4 ADD SLT PUSH2 0xDEA JUMPI PUSH1 0x0 DUP1 REVERT JUMPDEST DUP2 MLOAD DUP2 DUP2 GT ISZERO PUSH2 0xDFC JUMPI PUSH2 0xDFC PUSH2 0xD95 JUMP JUMPDEST DUP1 PUSH1 0x5 SHL PUSH1 0x40 MLOAD PUSH1 0x1F NOT PUSH1 0x3F DUP4 ADD AND DUP2 ADD DUP2 DUP2 LT DUP6 DUP3 GT OR ISZERO PUSH2 0xE21 JUMPI PUSH2 0xE21 PUSH2 0xD95 JUMP JUMPDEST PUSH1 0x40 MSTORE SWAP2 DUP3 MSTORE DUP5 DUP3 ADD SWAP3 POP DUP4 DUP2 ADD DUP6 ADD SWAP2 DUP9 DUP4 GT ISZERO PUSH2 0xE3F JUMPI PUSH1 0x0 DUP1 REVERT JUMPDEST SWAP4 DUP6 ADD SWAP4 JUMPDEST DUP3 DUP6 LT ISZERO PUSH2 0xE5D JUMPI DUP5 MLOAD DUP5 MSTORE SWAP4 DUP6 ADD SWAP4 SWAP3 DUP6 ADD SWAP3 PUSH2 0xE44 JUMP JUMPDEST SWAP9 SWAP8 POP POP POP POP POP POP POP POP JUMP JUMPDEST PUSH4 0x4E487B71 PUSH1 0xE0 SHL PUSH1 0x0 MSTORE PUSH1 0x11 PUSH1 0x4 MSTORE PUSH1 0x24 PUSH1 0x0 REVERT JUMPDEST PUSH1 0x0 DUP3 DUP3 LT ISZERO PUSH2 0xE91 JUMPI PUSH2 0xE91 PUSH2 0xE69 JUMP JUMPDEST POP SUB SWAP1 JUMP JUMPDEST PUSH4 0x4E487B71 PUSH1 0xE0 SHL PUSH1 0x0 MSTORE PUSH1 0x32 PUSH1 0x4 MSTORE PUSH1 0x24 PUSH1 0x0 REVERT JUMPDEST PUSH1 0x0 PUSH1 0x20 DUP3 DUP5 SUB SLT ISZERO PUSH2 0xEBE JUMPI PUSH1 0x0 DUP1 REVERT JUMPDEST DUP2 MLOAD PUSH1 0xFF DUP2 AND DUP2 EQ PUSH2 0x310 JUMPI PUSH1 0x0 DUP1 REVERT JUMPDEST PUSH1 0x1 DUP2 DUP2 JUMPDEST DUP1 DUP6 GT ISZERO PUSH2 0xF0A JUMPI DUP2 PUSH1 0x0 NOT DIV DUP3 GT ISZERO PUSH2 0xEF0 JUMPI PUSH2 0xEF0 PUSH2 0xE69 JUMP JUMPDEST DUP1 DUP6 AND ISZERO PUSH2 0xEFD JUMPI SWAP2 DUP2 MUL SWAP2 JUMPDEST SWAP4 DUP5 SHR SWAP4 SWAP1 DUP1 MUL SWAP1 PUSH2 0xED4 JUMP JUMPDEST POP SWAP3 POP SWAP3 SWAP1 POP JUMP JUMPDEST PUSH1 0x0 DUP3 PUSH2 0xF21 JUMPI POP PUSH1 0x1 PUSH2 0xAE9 JUMP JUMPDEST DUP2 PUSH2 0xF2E JUMPI POP PUSH1 0x0 PUSH2 0xAE9 JUMP JUMPDEST DUP2 PUSH1 0x1 DUP2 EQ PUSH2 0xF44 JUMPI PUSH1 0x2 DUP2 EQ PUSH2 0xF4E JUMPI PUSH2 0xF6A JUMP JUMPDEST PUSH1 0x1 SWAP2 POP POP PUSH2 0xAE9 JUMP JUMPDEST PUSH1 0xFF DUP5 GT ISZERO PUSH2 0xF5F JUMPI PUSH2 0xF5F PUSH2 0xE69 JUMP JUMPDEST POP POP PUSH1 0x1 DUP3 SHL PUSH2 0xAE9 JUMP JUMPDEST POP PUSH1 0x20 DUP4 LT PUSH2 0x133 DUP4 LT AND PUSH1 0x4E DUP5 LT PUSH1 0xB DUP5 LT AND OR ISZERO PUSH2 0xF8D JUMPI POP DUP2 DUP2 EXP PUSH2 0xAE9 JUMP JUMPDEST PUSH2 0xF97 DUP4 DUP4 PUSH2 0xECF JUMP JUMPDEST DUP1 PUSH1 0x0 NOT DIV DUP3 GT ISZERO PUSH2 0xFAB JUMPI PUSH2 0xFAB PUSH2 0xE69 JUMP JUMPDEST MUL SWAP4 SWAP3 POP POP POP JUMP JUMPDEST PUSH1 0x0 PUSH2 0x310 PUSH1 0xFF DUP5 AND DUP4 PUSH2 0xF12 JUMP JUMPDEST PUSH1 0x0 PUSH1 0x20 DUP3 DUP5 SUB SLT ISZERO PUSH2 0xFD4 JUMPI PUSH1 0x0 DUP1 REVERT JUMPDEST POP MLOAD SWAP2 SWAP1 POP JUMP JUMPDEST PUSH1 0x20 DUP1 DUP3 MSTORE DUP2 DUP2 ADD MSTORE PUSH32 0x4F776E61626C653A2063616C6C6572206973206E6F7420746865206F776E6572 PUSH1 0x40 DUP3 ADD MSTORE PUSH1 0x60 ADD SWAP1 JUMP JUMPDEST PUSH1 0x0 DUP1 PUSH1 0x40 DUP4 DUP6 SUB SLT ISZERO PUSH2 0x1023 JUMPI PUSH1 0x0 DUP1 REVERT JUMPDEST DUP3 MLOAD PUSH2 0x102E DUP2 PUSH2 0xC29 JUMP JUMPDEST PUSH1 0x20 SWAP4 SWAP1 SWAP4 ADD MLOAD SWAP3 SWAP5 SWAP3 SWAP4 POP POP POP JUMP JUMPDEST PUSH1 0x0 DUP3 NOT DUP3 GT ISZERO PUSH2 0x1051 JUMPI PUSH2 0x1051 PUSH2 0xE69 JUMP JUMPDEST POP ADD SWAP1 JUMP JUMPDEST PUSH1 0x0 DUP1 PUSH1 0x40 DUP4 DUP6 SUB SLT ISZERO PUSH2 0x1069 JUMPI PUSH1 0x0 DUP1 REVERT JUMPDEST DUP3 MLOAD SWAP2 POP PUSH1 0x20 DUP4 ADD MLOAD DUP1 ISZERO ISZERO DUP2 EQ PUSH2 0x1080 JUMPI PUSH1 0x0 DUP1 REVERT JUMPDEST DUP1 SWAP2 POP POP SWAP3 POP SWAP3 SWAP1 POP JUMP JUMPDEST PUSH1 0x0 PUSH1 0x0 NOT DUP3 EQ ISZERO PUSH2 0x109F JUMPI PUSH2 0x109F PUSH2 0xE69 JUMP JUMPDEST POP PUSH1 0x1 ADD SWAP1 JUMP JUMPDEST PUSH1 0x0 PUSH2 0x310 DUP4 DUP4 PUSH2 0xF12 JUMP JUMPDEST PUSH1 0x0 DUP2 PUSH1 0x0 NOT DIV DUP4 GT DUP3 ISZERO ISZERO AND ISZERO PUSH2 0x10CC JUMPI PUSH2 0x10CC PUSH2 0xE69 JUMP JUMPDEST POP MUL SWAP1 JUMP JUMPDEST PUSH1 0x0 DUP3 PUSH2 0x10EE JUMPI PUSH4 0x4E487B71 PUSH1 0xE0 SHL PUSH1 0x0 MSTORE PUSH1 0x12 PUSH1 0x4 MSTORE PUSH1 0x24 PUSH1 0x0 REVERT JUMPDEST POP DIV SWAP1 JUMP INVALID LOG2 PUSH5 0x6970667358 0x22 SLT KECCAK256 PUSH27 0x3D2FCFBC43E82F75E2771596EBC95E65B78C32DACA688EF830B7F0 LOG1 SWAP9 CODESIZE 0x25 PUSH5 0x736F6C6343 STOP ADDMOD 0xC STOP CALLER ",
  "sha1": "17c6803616c0a2de3752c93e065316ed7660d0b5",
  "source": "// SPDX-License-Identifier: MIT\npragma solidity 0.8.12;\n\nimport \"@openzeppelin/contracts/access/Ownable.sol\";\nimport \"@openzeppelin/contracts/token/ERC20/extensions/IERC20Metadata.sol\";\nimport \"@openzeppelin/contracts/utils/math/Math.sol\";\n\nimport '../interfaces/IPriceFeed.sol';\nimport '../interfaces/IBaseV1Router01.sol';\nimport '../interfaces/IUniv2LikeRouter01.sol';\nimport '../interfaces/ICurveRouter.sol';\n\ncontract OnChainPriceFetcher is IPriceFeed, Ownable {\n\n    struct TokenPairInfo {\n        // ROUTER\n        address router;\n        // swap path\n        address[] path;\n    }\n\n    address public immutable CURVE_ROUTER;\n    address public immutable SOLIDLY_ROUTER;\n    // USD  (USDC / MIM / 3CRV)\n    address public immutable QUOTE_USD_TOKEN;\n    uint256 public immutable QUOTE_USD_DECIMAL;\n\n    /// @notice Info of each TokenPair\n    mapping(uint => TokenPairInfo) public pairRouter;\n\n    constructor(address _CURVE_ROUTER, address _SOLIDLY_ROUTER, address _QUOTE_USD_TOKEN) {\n        CURVE_ROUTER = _CURVE_ROUTER;\n        SOLIDLY_ROUTER = _SOLIDLY_ROUTER;\n        QUOTE_USD_TOKEN = _QUOTE_USD_TOKEN;\n\n        QUOTE_USD_DECIMAL = IERC20Metadata(_QUOTE_USD_TOKEN).decimals();\n    }\n\n    function getData(address token) external view returns(uint256 priceInUSD) {\n        uint256 amount = 10 ** IERC20Metadata(token).decimals();\n        // Check Solidly\n        uint256 solidlyQuote = getSolidlyQuote(token, amount, QUOTE_USD_TOKEN);\n        // Check Curve\n        uint256 curveQuote = getCurveQuote(token, amount, QUOTE_USD_TOKEN);\n\n        priceInUSD = Math.max(curveQuote, solidlyQuote);\n\n        try this.getUniV2Quote(token, amount, QUOTE_USD_TOKEN) returns (uint256 uniV2Quote) {\n            if (uniV2Quote > 0) {\n                priceInUSD = priceInUSD > 0 ? Math.average(priceInUSD, uniV2Quote) : uniV2Quote;\n            }\n        } catch (bytes memory) {\n            // We ignore as it means it's zero\n        }\n    }\n\n    function getUniV2Quote(address fromToken, uint256 amount, address toToken) public view returns(uint256) {\n        (address router, address[] memory path) = getRouterAndPath(fromToken,toToken);\n\n        uint256[] memory amounts = IUniv2LikeRouter01(router).getAmountsOut(amount, path);\n\n        return scalePriceTo1e18(amounts[amounts.length - 1]);\n    }\n\n    function getSolidlyQuote(address fromToken, uint256 amount, address toToken) public view returns(uint256) {\n        if (SOLIDLY_ROUTER == address(0)) return 0;\n\n        (uint256 solidlyQuote,) = IBaseV1Router01(SOLIDLY_ROUTER).getAmountOut(amount, fromToken, toToken);\n\n        return scalePriceTo1e18(solidlyQuote);\n    }\n\n    function getCurveQuote(address fromToken, uint256 amount, address toToken) public view returns(uint256) {\n        if (CURVE_ROUTER == address(0)) return 0;\n\n        (, uint256 curveQuote) = ICurveRouter(CURVE_ROUTER).get_best_rate(fromToken, toToken, amount);\n\n        return scalePriceTo1e18(curveQuote);\n    }\n\n    function scalePriceTo1e18(uint256 rawPrice) internal view returns(uint256) {\n        if (QUOTE_USD_DECIMAL <= 18) {\n            return rawPrice * (10**(18 - QUOTE_USD_DECIMAL));\n        } else {\n            return rawPrice / (10**(QUOTE_USD_DECIMAL - 18));\n        }\n    }\n\n    // --------------------------------------------------------------\n    // ROUTER Manage\n    // --------------------------------------------------------------\n\n    function updatePairRouter(address router, address[] calldata path) external onlyOwner {\n        uint pairKey = uint(uint160(path[0])) + uint(uint160(path[path.length - 1]));\n        TokenPairInfo storage pairInfo = pairRouter[pairKey];\n\n        pairInfo.router = router;\n        pairInfo.path = path;\n    }\n    \n\n    // --------------------------------------------------------------\n    // Internal\n    // --------------------------------------------------------------\n\n    function getRouterAndPath(address fromToken, address toToken) internal view returns (address router, address[] memory path) {\n        uint pairKey = uint(uint160(fromToken)) + uint(uint160(toToken));\n        TokenPairInfo storage pairInfo = pairRouter[pairKey];\n\n        require(pairInfo.router != address(0), \"router not set\");\n\n        router = pairInfo.router;\n\n        path = new address[](pairInfo.path.length);\n        if (pairInfo.path[0] == fromToken) {\n            path = pairInfo.path;\n        } else {\n            for (uint index = 0; index < pairInfo.path.length; index++) {\n                path[index] = (pairInfo.path[pairInfo.path.length - 1 - index]);\n            }\n        }\n    }\n}",
  "sourcePath": "contracts/priceOracle/OnChainPriceFetcher.sol",
  "type": "contract"
}